:02000002B0004C
:1040000000400B003C530B00000006000D000502B1
:0840100004010410000000008F
:0440180080500B00C9
:10401C0009480A49884208B505D0094A824202D0AB
:10402C00121A00F075FF0748074A0021121A00F017
:10403C007DFF014808BD00BF24E60320A8520B00F9
:10404C0090E6032090E60320EDE7032070B5074EC1
:10405C00074C00F0E3FEA41BA4080025AC4200D1E1
:10406C0070BD56F8043B98470135F7E758520B00E2
:10407C007C520B0000F014B808B500F01DF8BDE838
:10408C00084000F083BE00F091BA00F097BA0078B7
:10409C00B0FA80F0400970470123037070470000AC
:1040AC0008B5044800F0D2F8BDE80840014800F01B
:1040BC00F2B800BF90E6032007B500220548009235
:1040CC00FF23114600F03BF8024803B05DF804EB07
:1040DC0000F0E1B890E60320024800220E2100F027
:1040EC00CCB800BF90E603202DE9F843002304462A
:1040FC00036040680E4608B100F060FA06F11F0834
:10410C0006EB4605C8F347181FFA85F918FA85F52A
:10411C00ADB2284600F04AFA0746606068B14A46DC
:10412C0026806580802100F001FF424607EB0900E4
:10413C000021BDE8F84300F0F9BEBDE8F88310B5E6
:10414C0004888C420ED9446801EB410163F07F0373
:10415C0063549DF80830601862F07F0263F07F03AF
:10416C004270837010BD000010B5094C2378BFF36A
:10417C005B8FDB070AD42046FFF789FF30B1054877
:10418C00012100F04DFC2046FFF786FF014810BDD1
:10419C00A8E60320ACE6032013B50B4C2178BFF343
:1041AC005B8F11F001010BD120460191FFF76FFFDE
:1041BC00019928B1054800F033FC2046FFF76CFF4D
:1041CC00024802B010BD00BF9CE60320A0E603200D
:1041DC0070B5047A05460CB3FFF7C6FF00F02AFC55
:1041EC00FFF7C2FF012100F04BFCFFF7BDFF0021E0
:1041FC0000F05AFCFFF7B8FF134A022100F07EFCD6
:10420C002C881F346409F4B12E7AC6B1FFF7ACFFC9
:10421C000021013C00F0A4FCA4B2F4E7FFF7BCFFC2
:10422C0000F008FCFFF7B8FF012100F029FCFFF7B4
:10423C00B3FF214600F038FCFFF7AEFFDCE7FFF7D9
:10424C00ABFF3146E5E770BD40420F0010B50446A8
:10425C00FFF7BEFF0123637210BD38B5437A0446E5
:10426C000D462BB1037A2BB1FFF77EFF00F0F6FB66
:10427C00257238BDFFF790FFF8E738B500230446E8
:10428C00154643604372FFF72FFF20462946FFF780
:10429C00E4FF204638BD37B544684588037A254489
:1042AC0053B1AC4213D014F8011B0191FFF75CFF22
:1042BC00019900F055FCF4E7AC4208D014F8011B4E
:1042CC000191FFF769FF019900F04AFCF4E703B094
:1042DC0030BD000008B5024B1B685B6C019308BD38
:1042EC004802030008B5024B1B685B68019308BDCC
:1042FC001802030008B5024B1B685B69019308BDEB
:10430C001802030008B5024B1B685B69019308BDDA
:10431C006402030008B5024B1B689B68019308BD3F
:10432C006802030008B5024B1B68DB68019308BDEB
:10433C006802030008B5024B1B681B68019308BD9B
:10434C003002030008B5024B1B685B68019308BD83
:10435C003002030008B5024B1B689B68019308BD33
:10436C003002030008B5024B1B68DB68019308BDE3
:10437C003002030008B5024B1B681B69019308BD92
:10438C003002030008B5024B1B685B69019308BD42
:10439C003002030008B5024B1B68DB69019308BDB2
:1043AC003002030008B5024B1B685B6A019308BD21
:1043BC003002030008B5024B1B681B6C019308BD4F
:1043CC003002030008B5024B1B685B6C019308BDFF
:1043DC003002030008B5024B1B68DB68019308BD73
:1043EC003C02030008B5024B1B681B69019308BD16
:1043FC003C02030008B5024B1B685B69019308BDC6
:10440C003C02030008B5024B1B689B69019308BD75
:10441C003C02030008B5024B1B68DB69019308BD25
:10442C003C02030008B5024B1B689B6A019308BD54
:10443C003C02030008B5024B1B681B6C019308BDC2
:10444C003C02030008B5024B1B681B68019308BDB6
:10445C004C02030008B5024B1B681B69019308BD95
:10446C004C02030008B5024B1B685B69019308BD45
:10447C004C02030008B5024B1B689B69019308BDF5
:10448C004C02030008B5024B1B68DB69019308BDA5
:10449C004C02030008B5024B1B681B6A019308BD54
:1044AC004C02030008B5024B1B685B68019308BD06
:1044BC002002030008B5034B1B68D3F88830019326
:1044CC0008BD00002002030008B5034B1B68D3F89D
:1044DC009430019308BD00002002030008B5024B84
:1044EC001B68DB6B019308BD4402030008B5024B4B
:1044FC001B685B68019308BD4002030008B5024BC2
:10450C001B689B68019308BD4002030008B5024B71
:10451C001B68DB68019308BD4002030008B5024B21
:10452C001B681B69019308BD4002030008B5024BD0
:10453C001B685B69019308BD4002030008B5024B80
:10454C001B689B69019308BD4002030008B5024B30
:10455C001B68DB69019308BD4002030008B5024BE0
:10456C001B681B6A019308BD4002030008B5024B8F
:10457C001B681B6B019308BD4002030008B5024B7E
:10458C001B685B6B019308BD4002030008B5024B2E
:10459C001B681B6C019308BD4002030008B5024B5D
:1045AC001B685B6C019308BD4002030008B5024B0D
:1045BC001B681B68019308BD1C02030008B5024B65
:1045CC001B685B68019308BD1C02030008B5024B15
:1045DC001B681B6C019308BD1C02030008B5024B41
:1045EC001B685B6C019308BD1C020300024800238E
:1045FC000360FFF76FBE00BFB4E6032000224068E3
:10460C001146FFF78BBF002240681146FFF7A6BF8B
:10461C00002240681146FFF7B1BF40680022FFF747
:10462C00A5BF4068002281F00101FFF78FBF002376
:10463C0040681A461946FFF781BF002340681A46A6
:10464C001946FFF773BF002240681146FFF756BFAB
:10465C00406800220221FFF759BF002340681A4628
:10466C00FFF744BF084B10B52824224618460021FA
:10467C0000F05CFC054B04804FF0FF3242600422DA
:10468C005A60034A1A6010BDC0E60320B8E6032046
:10469C009C500B00002240681146FFF75FBF0022C0
:1046AC0040681146FFF76ABF40680022FFF75EBF03
:1046BC004068002281F00101FFF748BF00234068E9
:1046CC001A461946FFF73ABF002340681A461946A6
:1046DC00FFF72CBF002240681146FFF71FBF0022D6
:1046EC0040681146FFF70ABF406800220221FFF71D
:1046FC000DBF002340681A46FFF7F8BE024B032299
:10470C005A60024A1A607047E8E60320D8500B0042
:10471C00704710B518210446FFF7B7FC204610BDB2
:10472C00F0B5037D062B8DB00E4600F104074FF05B
:10473C00000412D000F1080515F8011D0A223046BC
:10474C0000F043F9AF42044419D0002CF4D02E21D0
:10475C00304600F037F90444EEE72F236A46394619
:10476C000A208DF80040FFF7CDFD684600F014FCE0
:10477C0033680246DB686946304698470446204653
:10478C000DB0F0BD10B5054B0446112240F8043BAA
:10479C00002100F0CBFB204610BD00BF14510B00D4
:1047AC000346074A10B543F8042B01F1100251F8E7
:1047BC00044B43F8044B9142F9D10A781A7010BD9E
:1047CC0014510B0010B59DF8084044EA032343EA4A
:1047DC00024242EA016104234160037510BD0000EE
:1047EC0007B5064B0360CB7800938B784A78097831
:1047FC00FFF7E8FF03B05DF804FB00BF14510B009A
:10480C00014B024A1A607047F0E6032020510B005E
:10481C00002340681A46FFF769BE40680022022157
:10482C00FFF774BE002240681146FFF767BE0022F6
:10483C0040681146FFF772BE002340681A461946BD
:10484C00FFF774BE002340681A461946FFF776BE80
:10485C0040680021FFF79ABE40680021FFF79EBE1A
:10486C004068002281F00101FFF770BE4068002211
:10487C00FFF77CBE002240681146FFF77FBE002286
:10488C0040681146FFF76ABE2DE9F04395B0144617
:10489C000D460746FFF776FF00211C220DA800915C
:1048AC0000F044FB40230C9320466B460CAA0021DD
:1048BC00FFF738FD044600284BD1024601216868F9
:1048CC00FFF72CFE0221804622466868FFF726FE81
:1048DC00009E81462146002E3BD0002939D17368B9
:1048EC00022B03D00A2B11D0F669F4E7B8F1000FB4
:1048FC00FAD0716906A8043107ADFFF771FF0FCD2F
:10490C003C1D0FC42B6823704146EDE7B9F1000F35
:10491C00EAD07469102201A800F008FB06238DF878
:10492C00143001AD04F108031834186859682A468C
:10493C0003C20833A3421546F7D101A906A807AD57
:10494C00FFF72EFF0FCD3C1D0FC42B68237049467B
:10495C00CAE70098FFF7DEFC384615B0BDE8F083D7
:10496C00024B034A1A6000225A607047F4E6032097
:10497C002C510B00F8B506460D468F180024BD428D
:10498C000CD0336815F8011B9B6830469847031E02
:10499C0001DB1C44F3E7002C08BF1C462046F8BD85
:1049AC0013B50446084659B1019100F0F5FA236895
:1049BC000199DB680246204602B0BDE8104018475A
:1049CC0002B010BD03689B68184730B58BB000234C
:1049DC00012A8DF8243098BF0A2209AC0D46B1FB90
:1049EC00F2F101FB125303F0FF03092B94BF303398
:1049FC003733DBB2AA4204F8013DEFD92146FFF769
:104A0C00CFFF0BB030BD0000014B00229A60704705
:104A1C00FCE603200021FFF7D5BC0021FFF7CABC40
:104A2C0010B5044608462170FFF7B4FC0023636000
:104A3C00204610BD13B504460078FFF7EEFF58B9B9
:104A4C00207801904FF6FF71FFF774FC019802B0CB
:104A5C00BDE81040FFF7DEBF02B010BD13B5044631
:104A6C000078FFF7DAFF48B920780190FFF76AFC6D
:104A7C00019802B0BDE81040FFF7CCBF02B010BDEA
:104A8C0013B5044600780191FFF7C7FF019948B9A7
:104A9C0020780190FFF75EFC019802B0BDE8104051
:104AAC00FFF7B8BF02B010BD13B5044600780191F2
:104ABC00FFF7B3FF019948B920780190FFF752FC3A
:104ACC00019802B0BDE81040FFF7A4BF02B010BDC2
:104ADC00400830B51860002418688842E5B206D941
:104AEC000134082C02D040081860F5E70725024B6A
:104AFC005B5D137030BD00BF60510B002DE9F041C0
:104B0C0088B000230446007802930E461746FFF740
:104B1C0084FF054600BB94F800800146142203A8CC
:104B2C0000F004FA0B232A4603A94046ADF80C30DA
:104B3C00FFF738FC04988DF8075002AB0DF1070213
:104B4C0007FB06F1FFF7C4FF20789DF80710FFF76D
:104B5C0011FC2078FFF75EFF029808B0BDE8F081E9
:104B6C0008B50078FFF70EFCC0B208BD054B022259
:104B7C001A60054B054A9A600020C3E90000FFF754
:104B8C0091BC00BF18E703200CE703200000FFFFD7
:104B9C00024B1A68024B1A60704700BF24E60320D0
:104BAC001CE7032070474174704708B5007CFFF781
:104BBC0039FC20EAE07008BD08B5007CFFF712FC58
:104BCC0020EAE07008BD08B5007CFFF71BFC40EA4A
:104BDC00E07008BD08B5007CFFF70CFC40EAE07003
:104BEC0008BD007CFFF716BC37B5457C04462DB1DB
:104BFC00207C03B0BDE83040FFF7ECBB007C01919A
:104C0C00FFF710FC00280199F2DC284603B030BDF8
:104C1C0010B514210446FFF738FA204610BD0000E9
:104C2C0010B54FF47A730446084611460022C4E9C5
:104C3C000123044B2360012320746374FFF7FAFBF8
:104C4C00204610BD8C510B00417470477047704763
:104C5C0008B50021007CFFF70DFC40EAE07008BDB0
:104C6C0008B50121007CFFF705FC40EAE07008BDA7
:104C7C0008B5007CFFF7F6FB20EAE07008BD08B52C
:104C8C00007CFFF7E7FB20EAE07008BD13B5044693
:104C9C00007C0191FFF7E6FB0028019901DC607CA8
:104CAC0020B1207CFFF7EEFB20EAE07002B010BDD3
:104CBC00007CFFF7EFBB10B514210446FFF7E5F9B4
:104CCC00204610BD10B54FF47A73044608460021F7
:104CDC00C4E90113044B236001232074637411464F
:104CEC00FFF7B0FB204610BDBC510B0010B51422D1
:104CFC000446002100F01AF9204610BD10B50F4CE7
:104D0C0088B003A8FFF7F2FF2178BFF35B8F11F097
:104D1C0001010FD120460191FFF7B9F9019948B172
:104D2C0003AA0748FFF7CEFF2046FFF7B5F9054861
:104D3C0000F0E8F8024808B010BD00BF20E70320DF
:104D4C0024E70320594C0B00014B1860704700BF3F
:104D5C0028E6032008B50B4B43B1FFF7CFFF0368E0
:104D6C001B699847002801DDAFF30080064B43B167
:104D7C0000F0A2F803681B699847002801DDAFF327
:104D8C00008008BD000000000000000008B5FFF71F
:104D9C00E1FFFFF7AFFA014B186008BD40E70320B5
:104DAC000548064A064908B5121A00F0B1F8054B39
:104DBC00054A1A6008BD00BF00F4032004F4032068
:104DCC00A4520B0000F403201E1C279A07B50023E5
:104DDC0000931A466FF07701FFF776FB03B05DF88E
:104DEC0004FB000007B543880A2B08D0502B0BD1CD
:104DFC00094B1B684BB103B05DF804EB1847FFF788
:104E0C00E5FF03B05DF804FB002300931A466FF036
:104E1C007701FFF759FBF4E73CE7032010B5124884
:104E2C000021FFF7DBFB114B1A68114B9A42114B17
:104E3C000CBF012200221A7001D0FFF7B1FFFFF75F
:104E4C0051FA044600F07AF80B4B13B12046AFF33D
:104E5C00008000210848FFF741FBBDE810400748DF
:104E6C000021FFF727BB00BF554D0B0000F40320BA
:104E7C001E1C279A38E7032000000000F14D0B00A0
:104E8C007047000038B5044614252A46002100F06E
:104E9C004DF825804025074925812846258200F0BC
:104EAC002FF804496060284600F02AF8E06020469C
:104EBC0038BD00BFE4510B0030B50E4D2978BFF35F
:104ECC005B8F11F0010487B011D12846FFF7DFF892
:104EDC0068B101A8FFF7D6FF01AA21460648FFF7E3
:104EEC009FFE2846FFF7D8F8044800F00BF802485C
:104EFC0007B030BD44E7032048E703208D4E0B007C
:104F0C00FFF7C1B8002301461A46184600F04CB80A
:104F1C000A44914200F1FF3300D1704710B511F8EB
:104F2C00014B03F8014F9142F9D110BD02440346E5
:104F3C00934200D1704703F8011BF9E738B5104BC9
:104F4C001D68AB6B0446B3B91820FFF72FFB024664
:104F5C00A86320B90B4B0C484221FFF737FB0B49D8
:104F6C000B4BC0E900130B4B83600B238381002197
:104F7C000120C2E90401AB6B00221C615A6138BDEF
:104F8C0028E60320E5510B00FC510B000E33CDAB92
:104F9C0034126DE6ECDE0500034613F8012B002AF3
:104FAC00FBD1181A013870472DE9F843DFF8B880A7
:104FBC000646D8F800001F460D46914600F056F8FC
:104FCC00254B1C6834B9254C1C60254B13B11B6850
:104FDC00C4F8883063681F2B07DDD8F8000000F098
:104FEC0047F84FF0FF30BDE8F8834EB3D4F8880093
:104FFC0088B91C4B23B9D8F8000000F038F8F0E75A
:10500C004FF48470FFF7D2FA0028F4D00023C0E9E3
:10501C004033C4F88800636840F8239001229A401A
:10502C0000EB8301D0F800311343C0F80031022E9D
:10503C00C1F8807002BFD0F804311343C0F80431BA
:10504C006368D8F800005A1C0233626044F823509D
:10505C0000F00EF80020C6E7E8E703205CE7032029
:10506C0000000000B9450B008CE603207047704728
:10507C00704700001D400B0059400B0081400B0095
:10508C0085400B0000000000000000000000000044
:10509C0067460B005D460B0053460B0009460B00A0
:1050AC0047460B003B460B005D480B0065480B0068
:1050BC002F460B0027460B001D460B0013460B001A
:1050CC0095480B000000000000000000FF460B009C
:1050DC00F5460B00EB460B00E1460B00D5460B00EA
:1050EC00C9460B005D480B0065480B00BD460B0024
:1050FC00B5460B00AB460B00A1460B0095480B00C8
:10510C0000000000000000002D470B001D470B00A5
:10511C001F470B00617070000000000000000000D1
:10512C001D480B0027480B0031480B003B480B0077
:10513C0045480B0051480B005D480B0065480B00BF
:10514C006D480B0079480B0081480B008B480B0015
:10515C0095480B00000810182028303825592D25AB
:10516C006D2D25645425483A254D3A2553257A0052
:10517C0061736374696D650000000000000000003D
:10518C00B14B0B001D4C0B00F54B0B0081490B0078
:10519C00C54B0B00E14B0B00D34B0B00EF4B0B0043
:1051AC00B34B0B00B74B0B000000000000000000DD
:1051BC005B4C0B00C34C0B00994C0B0081490B0052
:1051CC008B4C0B005D4C0B006D4C0B00BD4C0B0065
:1051DC007D4C0B00554C0B00005245454E54206D38
:1051EC00616C6C6F632073756363656564656400E3
:1051FC002F746D702F6A656E6B696E732D47434308
:10520C002D31302D706970656C696E652D34385F89
:10521C0032303230313132345F3136303631383031
:10522C003633392F7372632F6E65776C69622F6E0C
:10523C0065776C69622F6C6962632F7374646C6937
:10524C00622F72616E642E6300000000E5400B005B
:10525C00F9450B0071460B0009470B000D480B007C
:10526C006D490B00154A0B00794B0B009D4B0B0045
:04527C00000000002E
:10528000040000001400000003000000474E550019
:10529000547BCEC27B66FA62F7409D848CEBEA4178
:0452A0009517F6DC8C
:0452A4000000000006
:1052A8007C510B002CE603200000000000000000E9
:1052B80000000000000000000000000000000000E6
:1052C80000000000000000000000000000000000D6
:1052D80000000000000000000000000000000000C6
:1052E80000000000000000000000000000000000B6
:1052F80000000000000000000000000000000000A6
:0C5308000000000000000000ECE70320A3
:10531400FFFFFFFF00000102030405060708090A56
:105324000B0C0D0E0F101112131415161718191A51
:085334001B1C1D1E1F20280098
:04533C007856341259
:04000003B000401CED
:00000001FF
