:02000002B0004C
:1040000000400B00A0550B00000006000D0005024B
:0840100004010410000000008F
:0440180070520B00D7
:10401C0009480A49884208B505D0094A824202D0AB
:10402C00121A01F06DF80748074A0021121A01F024
:10403C0075F8014808BD00BFF4E5032008550B00D6
:10404C0064E6032064E60320EDE7032070B5074E19
:10405C00074C00F01DFFA41BA4080025AC4200D1A6
:10406C0070BD56F8043B98470135F7E7B4540B0084
:10407C00D4540B0000F022B808B500F097F8BDE856
:10408C00084000F0BDBE00F0C7BA00F0CDBA007811
:10409C00B0FA80F0400970470123037070470EB4EA
:1040AC0003B503AB002153F8042B019300F04FFD33
:1040BC0002B05DF804EB03B07047000038B500F0B7
:1040CC0057FE4FF4165100F043FE002000F000F9AB
:1040DC0043F698250446002000F0FAF8001B61F125
:1040EC000001A84271F1000307D200F041FE00F07C
:1040FC0033FE10B900F020FAEDE700F039FE00F0C5
:10410C002BFE0021132000F033FF0121072000F0CB
:10411C002FFF0121082000F02BFF0021082000F0C8
:10412C0038FF0121072000F034FF044B40F2FF322E
:10413C001A60034B00221A6038BD00BF70E60320E2
:10414C006CE6032010B5154A1368834206DD106037
:10415C00134C236883420DDA206010BD114C21688A
:10416C0001318C29C5BF0021013321602160C8BFFA
:10417C001360EDE70C48016801311C2901DC01607A
:10418C00EBE712689A1A642A4FF00001C8BF03F1DA
:10419C00FF330160C8BF2360DFE700BF70E6032078
:1041AC006CE6032068E6032064E6032073B5012166
:1041BC00082000F0EEFE002108202E4E00F0E9FE53
:1041CC00002534460021072000F0E3FE1E2000F0FD
:1041DC006FF8132000F0F6FE013546F8040BFFF7DC
:1041EC00B1FF0121072000F0D4FE072DEAD1224BAC
:1041FC001B680093214B64221B680021232000F0D4
:10420C0033FA23688342054602DC6368834206DD89
:10421C0000F0AEFDD4E900231949FFF740FFA36875
:10422C00AB4202DCE368AB4206DD00F0A1FDD4E951
:10423C0002231449FFF733FF2369AB4202DC6369A5
:10424C00AB4206DD00F094FDD4E904230E49FFF7E0
:10425C0026FF0E4C00F034F82568854204D900F096
:10426C002FF8281A00F00CFA23683233236002B0BE
:10427C0070BD00BF74E603206CE6032070E60320DB
:10428C0084520B009D520B00B6520B00F4E5032038
:10429C0008B5024B1B685B6C019308BD4802030018
:1042AC0008B5024B1B685B68019308BD180203003C
:1042BC0008B5024B1B68DB68019308BD18020300AC
:1042CC0008B5024B1B685B69019308BD180203001B
:1042DC0008B5024B1B68DB6D019308BD1802030087
:1042EC0008B5024B1B685B68019308BD2C020300E8
:1042FC0008B5024B1B689B68019308BD2C02030098
:10430C0008B5024B1B68DB68019308BD2C02030047
:10431C0008B5024B1B681B69019308BD2C020300F6
:10432C0008B5024B1B681B6B019308BD2C020300E4
:10433C0008B5024B1B681B6A019308BD28020300D9
:10434C0008B5024B1B685B6A019308BD2802030089
:10435C0008B5024B1B689B6A019308BD2802030039
:10436C0008B5024B1B68DB6A019308BD28020300E9
:10437C0008B5024B1B681B6B019308BD2802030098
:10438C0008B5024B1B685B6B019308BD2802030048
:10439C0008B5024B1B681B6C019308BD2802030077
:1043AC0008B5024B1B685B69019308BD64020300EE
:1043BC0008B5024B1B689B68019308BD680203009B
:1043CC0008B5024B1B68DB68019308BD680203004B
:1043DC0008B5024B1B68DB69019308BD3002030072
:1043EC0008B5024B1B681B6A019308BD3002030021
:1043FC0008B5024B1B68DB68019308BD3C02030047
:10440C0008B5024B1B681B69019308BD3C020300F5
:10441C0008B5024B1B685B69019308BD3C020300A5
:10442C0008B5024B1B689B69019308BD3C02030055
:10443C0008B5024B1B68DB69019308BD3C02030005
:10444C0008B5024B1B681B6A019308BD3C020300B4
:10445C0008B5024B1B689B6A019308BD3C02030024
:10446C0008B5024B1B681B6C019308BD3C02030092
:10447C0008B5024B1B681B68019308BD4C02030076
:10448C0008B5024B1B685B68019308BD4C02030026
:10449C0008B5024B1B681B69019308BD4C02030055
:1044AC0008B5024B1B685B69019308BD4C02030005
:1044BC0008B5024B1B689B69019308BD4C020300B5
:1044CC0008B5024B1B68DB69019308BD4C02030065
:1044DC0008B5024B1B681B6A019308BD4C02030014
:1044EC0008B5024B1B689B6A019308BD4C02030084
:1044FC0008B5024B1B685B68019308BD20020300E2
:10450C0008B5024B1B685B69019308BD20020300D0
:10451C0008B5034B1B68D3F88830019308BD000025
:10452C002002030008B5034B1B68D3F894300193A9
:10453C0008BD00002002030008B5024B1B689B68F5
:10454C00019308BD4402030008B5024B1B68DB6BEA
:10455C00019308BD4402030008B5024B1B685B685D
:10456C00019308BD4002030008B5024B1B689B6811
:10457C00019308BD4002030008B5024B1B68DB68C1
:10458C00019308BD4002030008B5024B1B681B6970
:10459C00019308BD4002030008B5024B1B685B6920
:1045AC00019308BD4002030008B5024B1B689B69D0
:1045BC00019308BD4002030008B5024B1B68DB6980
:1045CC00019308BD4002030008B5024B1B681B6A2F
:1045DC00019308BD4002030008B5024B1B681B6B1E
:1045EC00019308BD4002030008B5024B1B685B6BCE
:1045FC00019308BD4002030008B5024B1B681B6CFD
:10460C00019308BD4002030008B5024B1B685B6CAC
:10461C00019308BD4002030008B5024B1B681B68E0
:10462C00019308BD1C02030008B5024B1B685B68B4
:10463C00019308BD1C02030008B5024B1B685B6AA2
:10464C00019308BD1C02030008B5024B1B681B6CD0
:10465C00019308BD1C02030008B5024B1B685B6C80
:10466C00019308BD1C0203008A4210B507D0441AFE
:10467C000298C01A4443501A94FBF0F0184410BD31
:10468C000021FFF73DBF0000024800230360FFF745
:10469C00FFBD00BF90E60320002240681146FFF7E3
:1046AC0073BF002240681146FFF78EBF002240689E
:1046BC001146FFF799BF40680022FFF78DBF406895
:1046CC00002281F00101FFF777BF002340681A46F2
:1046DC001946FFF769BF002340681A461946FFF7D1
:1046EC005BBF002240681146FFF73EBF40680022C6
:1046FC000221FFF741BF002340681A46FFF72CBF89
:10470C00084B10B5282422461846002100F006FD5F
:10471C00054B04804FF0FF32426004225A60034A7A
:10472C001A6010BD9CE6032094E60320D8520B00BF
:10473C00002240681146FFF747BF0022406811462F
:10474C00FFF752BF40680022FFF746BF40680022C7
:10475C0081F00101FFF730BF002340681A4619466B
:10476C00FFF722BF002340681A461946FFF714BF13
:10477C00002240681146FFF707BF0022406811462F
:10478C00FFF7F2BE406800220221FFF7F5BE0023BE
:10479C0040681A46FFF7E0BE024B03225A60024AF9
:1047AC001A607047C4E6032014530B007047F8B529
:1047BC00064615460C468F18BC4206D0336814F8D2
:1047CC00011B9B6830469847F6E72846F8BD007CED
:1047DC000022FFF7ADBD007C0021FFF7B1BD007CCE
:1047EC000021FFF7B5BD007C0021FFF7B9BD007CAF
:1047FC000021FFF7BDBD10B514210446FFF745FCA1
:10480C00204610BD38B5044615464FF47A73002285
:10481C00C4E90123094B2174084623602946FFF79C
:10482C00B7FDBF3008D16B69DB0705D56868FFF7AA
:10483C00FBFEE868FFF7F8FE204638BD50530B002E
:10484C00704710B518210446FFF71FFC204610BD19
:10485C00F0B5037D062B8DB00E4600F104074FF02A
:10486C00000412D000F1080515F8011D0A2230468B
:10487C0000F04FF9AF42044419D0002CF4D02E2193
:10488C00304600F037F90444EEE72F236A463946E8
:10489C000A208DF80040FFF783FD684600F074FC99
:1048AC0033680246DB686946304698470446204622
:1048BC000DB0F0BD10B5054B0446112240F8043B79
:1048CC00002100F02BFC204610BD00BF78530B00DC
:1048DC000346074A10B543F8042B01F1100251F8B6
:1048EC00044B43F8044B9142F9D10A781A7010BD6D
:1048FC0078530B0010B59DF8084044EA032343EAB3
:10490C00024242EA016104234160037510BD0000BC
:10491C0007B5064B0360CB7800938B784A780978FF
:10492C00FFF7E8FF03B05DF804FB00BF78530B0002
:10493C00014B024A1A607047CCE6032084530B00EB
:10494C00002340681A46FFF707BE40680022022188
:10495C00FFF712BE002240681146FFF705BE002289
:10496C0040681146FFF710BE002340681A461946EE
:10497C00FFF712BE002340681A461946FFF714BE13
:10498C0040680021FFF738BE40680021FFF73CBEAD
:10499C004068002281F00101FFF70EBE4068002242
:1049AC00FFF71ABE002240681146FFF71DBE002219
:1049BC0040681146FFF708BE2DE9F04395B0144648
:1049CC000D460746FFF776FF00211C220DA800912B
:1049DC0000F0A4FB40230C9320466B460CAA00214C
:1049EC00FFF7EEFC044600284BD102460121686813
:1049FC00FFF7CAFD0221804622466868FFF7C4FD16
:104A0C00009E81462146002E3BD0002939D1736887
:104A1C00022B03D00A2B11D0F669F4E7B8F1000F82
:104A2C00FAD0716906A8043107ADFFF771FF0FCDFD
:104A3C003C1D0FC42B6823704146EDE7B9F1000F04
:104A4C00EAD07469102201A800F068FB06238DF8E7
:104A5C00143001AD04F108031834186859682A465B
:104A6C0003C20833A3421546F7D101A906A807AD26
:104A7C00FFF72EFF0FCD3C1D0FC42B68237049464A
:104A8C00CAE70098FFF794FC384615B0BDE8F083F0
:104A9C00024B034A1A6000225A607047D0E603208A
:104AAC0090530B00F8B506460D468F180024BD42F6
:104ABC000CD0336815F8011B9B6830469847031ED1
:104ACC0001DB1C44F3E7002C08BF1C462046F8BD54
:104ADC0013B50446084659B1019100F055FB236803
:104AEC000199DB680246204602B0BDE81040184729
:104AFC0002B010BD03689B68184738B50D210546F8
:104B0C00FFF7F8FF0A2104462846FFF7F3FF20447D
:104B1C0038BD30B58BB00023012A8DF8243098BFF6
:104B2C000A2209AC0D46B1FBF2F101FB125303F062
:104B3C00FF03092B94BF30333733DBB2AA4204F89E
:104B4C00013DEFD92146FFF7C3FF0BB030BD2DE976
:104B5C00F04186B000AF05460E46381D14211446B0
:104B6C003B60FFF769FD13280ED8391D2846FFF767
:104B7C00AFFF04461EB12846FFF7BFFF0444204692
:104B8C001837BD46BDE8F08100F1080323F0070398
:104B9C00E846ADEB030D2246411C3B686846FFF727
:104BAC004BFD69462846FFF793FF0446C546E1E7EF
:104BBC00014B00229A607047D8E6032010B50446DA
:104BCC0008462170FFF704FC00236360204610BDEB
:104BDC00054B02221A60054B054A9A600020C3E976
:104BEC000000FFF785BC00BFF4E60320E8E60320D5
:104BFC000000FFFF024B1A68024B1A60704700BF9F
:104C0C00F8E50320F8E6032070474174704708B5B7
:104C1C00007CFFF71DFC20EAE07008BD08B5007CA5
:104C2C00FFF7EEFB20EAE07008BD08B5007CFFF74B
:104C3C00F7FB40EAE07008BD08B5007CFFF7E8FB25
:104C4C0040EAE07008BD007CFFF7F2BB37B5457C4D
:104C5C0004462DB1207C03B0BDE83040FFF7C8BB43
:104C6C00007C0191FFF7F4FB00280199F2DC284647
:104C7C0003B030BD10B514210446FFF706FA2046E8
:104C8C0010BD000010B54FF47A7304460846114667
:104C9C000022C4E90123044B2360012320746374B4
:104CAC00FFF7DEFB204610BDE8530B004174704744
:104CBC007047704708B50021007CFFF7F9FB40EA0C
:104CCC00E07008BD08B50121007CFFF7F1FB40EA5C
:104CDC00E07008BD08B5007CFFF7E2FB20EAE0704D
:104CEC0008BD08B5007CFFF7D3FB20EAE07008BDD7
:104CFC0013B50446007C0191FFF7D2FB0028019903
:104D0C0001DC607C20B1207CFFF7DAFB20EAE0704C
:104D1C0002B010BD007CFFF7DBBB10B514210446BC
:104D2C00FFF7B3F9204610BD10B54FF47A73044663
:104D3C0008460021C4E90113044B236001232074AD
:104D4C0063741146FFF794FB204610BD18540B00FA
:104D5C00007C0022FFF794BB007CFFF7C1BB10B5B1
:104D6C0014220446002100F0D9F9204610BD0000A1
:104D7C0010B50F4C88B003A8FFF7F1FF2178BFF3F3
:104D8C005B8F11F001010FD120460191FFF77FF9E4
:104D9C00019948B103AA0748FFF7C6FF2046FFF761
:104DAC007BF9054800F0A6F9024808B010BD00BF19
:104DBC00FCE6032000E70320BD4C0B00014B186000
:104DCC00704700BFFCE5032008B50B4B43B1FFF760
:104DDC00CFFF03681B699847002801DDAFF3008003
:104DEC00064B43B100F060F903681B699847002833
:104DFC0001DDAFF3008008BD0000000000000000E2
:104E0C0008B5FFF7E1FFFFF75BFA014B186008BD2F
:104E1C0028E703200548064A064908B5121A00F08F
:104E2C006FF9054B054A1A6008BD00BF00F403205A
:104E3C0004F4032004550B0000F403201E1C279AD5
:104E4C0007B5002300931A466FF07701FFF76AFB52
:104E5C0003B05DF804FB000007B543880A2B08D0AB
:104E6C00502B0BD1094B1B684BB103B05DF804EB15
:104E7C001847FFF7E5FF03B05DF804FB0023009330
:104E8C001A466FF07701FFF74DFBF4E718E70320A4
:104E9C0010B512480021FFF7DFFB114B1A68114BBC
:104EAC009A42114B0CBF012200221A7001D0FFF75D
:104EBC00B1FFFFF7F5F9044600F038F90B4B13B1CD
:104ECC002046AFF3008000210848FFF73DFBBDE80A
:104EDC00104007480021FFF71BBB00BFC94D0B005A
:104EEC0000F403201E1C279A14E703200000000086
:104EFC00654E0B00232813B502D9002002B010BD5B
:104F0C00A0F10B03022B1AD8174C2178BFF35B8F3F
:104F1C0011F001010BD120460191FFF7B8F801996E
:104F2C0028B11248FFF74AFE2046FFF7B5F80F4BA1
:104F3C001878FFF755FA0028DFD10120DEE70128A9
:104F4C0009D800F071F80021007CFFF719FA80F005
:104F5C000100C0B2D2E709380128EED800F0A4F85D
:104F6C00007CFFF76DFAF2E71CE7032020E7032033
:104F7C00232838B504460D460AD8FF2908D0FFF778
:104F8C00B9FF28B129462046BDE83840FFF7B0B933
:104F9C0038BD38B504460D46FFF7B2F9FF2810D0DE
:104FAC00062804D84D2323FA00F0C30709D4204661
:104FBC00FFF7A0FF28B129462046BDE83840FFF78F
:104FCC00A7B938BD0D2810B504469CBF0E34A4B249
:104FDC002046FFF78FFF50B103212046FFF780F9E1
:104FEC00032804D12046BDE81040FFF799B90020F2
:104FFC0010BD704738B50A4B03600123044643616A
:10500C000849202000F074F8202560600549A5604F
:10501C00284600F06DF8C4E90305204638BD00BFF2
:10502C001800010040540B0030B50E4D2978BFF329
:10503C005B8F11F0010487B011D12846FFF727F8D8
:10504C0068B16846FFF7D6FF6A4621460648FFF767
:10505C00D9FB2846FFF720F8044800F04BF802482B
:10506C0007B030BD2CE7032030E70320FF4F0B00C7
:10507C007047000038B5044614252A46002100F07C
:10508C004DF825804025074925812846258200F0CA
:10509C002FF804496060284600F02AF8E0602046AA
:1050AC0038BD00BF40540B0030B50E4D2978BFF30E
:1050BC005B8F11F0010487B011D12846FEF7E7FF92
:1050CC0068B101A8FFF7D6FF01AA21460648FFF7F1
:1050DC00D9FD2846FEF7E0FF044800F00BF8024823
:1050EC0007B030BD44E7032048E703207D500B0098
:1050FC00FEF7C9BF002301461A46184600F04CB80B
:10510C000A44914200F1FF3300D1704710B511F8F9
:10511C00014B03F8014F9142F9D110BD02440346F3
:10512C00934200D1704703F8011BF9E738B5104BD7
:10513C001D68AB6B0446B3B91820FFF76DFA024635
:10514C00A86320B90B4B0C484221FFF77DFA0B49A1
:10515C000B4BC0E900130B4B83600B2383810021A5
:10516C000120C2E90401AB6B00221C615A6138BDFD
:10517C00FCE5032041540B0058540B000E33CDAB0F
:10518C0034126DE6ECDE0500034613F8012B002A01
:10519C00FBD1181A013870472DE9F843DFF8B880B5
:1051AC000646D8F800001F460D46914600F056F80A
:1051BC00254B1C6834B9254C1C60254B13B11B685E
:1051CC00C4F8883063681F2B07DDD8F8000000F0A6
:1051DC0047F84FF0FF30BDE8F8834EB3D4F88800A1
:1051EC0088B91C4B23B9D8F8000000F038F8F0E768
:1051FC004FF48470FFF710FA0028F4D00023C0E9B4
:10520C004033C4F88800636840F8239001229A4028
:10521C0000EB8301D0F800311343C0F80031022EAB
:10522C00C1F8807002BFD0F804311343C0F80431C8
:10523C006368D8F800005A1C0233626044F82350AB
:10524C0000F00EF80020C6E7E8E703205CE7032037
:10525C000000000025460B0060E6032070477047F5
:10526C00704700001D400B0059400B0081400B00A3
:10527C0085400B000000000042616E6420303A2033
:10528C002569200A2042616E642031202569200A9C
:10529C000042616E6420323A202569200A20426166
:1052AC006E642033202569200A0042616E6420342C
:1052BC003A202569200A2042616E64203520256938
:1052CC00200A0000000000000000000003470B0053
:1052DC00F9460B00EF460B00A5460B00E3460B000E
:1052EC00D7460B008D490B0095490B00CB460B00A4
:1052FC00C3460B00B9460B00AF460B00C5490B006B
:10530C0000000000000000009B470B0091470B00C1
:10531C0087470B007D470B0071470B0065470B005F
:10532C008D490B0095490B0059470B0051470B0059
:10533C0047470B003D470B00C5490B000000000020
:10534C0000000000B9470B0003480B00DB470B00C3
:10535C00BB470B00E3470B00EB470B00F3470B007D
:10536C00FB470B0000000000000000005D480B0034
:10537C004D480B004F480B0061707000000000009E
:10538C00000000004D490B0057490B0061490B0010
:10539C006B490B0075490B0081490B008D490B00C3
:1053AC0095490B009D490B00A9490B00B1490B0015
:1053BC00BB490B00C5490B0025592D256D2D2564C6
:1053CC005425483A254D3A2553257A006173637468
:1053DC00696D65000000000000000000154C0B001A
:1053EC00814C0B00594C0B00B14A0B00294C0B00A3
:1053FC00454C0B00374C0B00534C0B00174C0B005F
:10540C001B4C0B000000000000000000BF4C0B0008
:10541C00274D0B00FD4C0B00B14A0B00EF4C0B0061
:10542C00C14C0B00D14C0B00214D0B00E14C0B007F
:10543C00B94C0B00005245454E54206D616C6C6F9D
:10544C006320737563636565646564002F746D70A8
:10545C002F6A656E6B696E732D4743432D31302D6A
:10546C00706970656C696E652D34385F323032301E
:10547C00313132345F313630363138303633392FC2
:10548C007372632F6E65776C69622F6E65776C69CA
:10549C00622F6C6962632F7374646C69622F726122
:1054AC006E642E630000000095460B000D470B0048
:1054BC00A5470B003D490B009D4A0B00BD4B0B0053
:1054CC00DD4B0B00014C0B00000000000000000045
:0454DC0000000000CC
:1054E000040000001400000003000000474E5500B7
:1054F00026958B02CB859325353537B1BAEDDAE9A0
:04550000DE83413EC7
:0455040000000000A3
:1055080032000000D8530B0000E603200000000022
:105518000000000000000000000000000000000083
:105528000000000000000000000000000000000073
:105538000000000000000000000000000000000063
:105548000000000000000000000000000000000053
:105558000000000000000000000000000000000043
:10556800000000000000000000000000ECE703203D
:10557800FFFFFFFF00000102030405060708090AF0
:105588000B0C0D0E0F101112131415161718191AEB
:085598001B1C1D1E1F20280032
:0455A00078563412F3
:04000003B000401CED
:00000001FF
