:02000002B0004C
:1040000000400B00FC5A0B00000006000D000502EA
:0840100004010410000000008F
:04401800C0570B0082
:10401C0009480A49884208B505D0094A824202D0AB
:10402C00121A01F015FB0748074A0021121A01F079
:10403C001DFB014808BD00BFD4E50320685A0B00E6
:10404C0040E6032040E60320EDE7032070B5074E61
:10405C00074C01F0C5F9A41BA4080025AC4200D103
:10406C0070BD56F8043B98470135F7E7145A0B001E
:10407C00385A0B0000F022B808B500F0ABF8BDE8D8
:10408C00084001F065B900F0B7BC00F0BDBC007889
:10409C00B0FA80F0400970470123037070470EB4EA
:1040AC0003B503AB002153F8042B019300F02FFF51
:1040BC0002B05DF804EB03B07047000038B501F0B6
:1040CC00FFF84FF4165101F0EBF8002000F0B0FAB5
:1040DC0043F698250446002000F0AAFA001B61F173
:1040EC000001A84271F1000307D201F0E9F801F0D8
:1040FC00DBF810B900F010FCEDE701F0E1F801F08D
:10410C00D3F80021102001F0DBF90121072001F088
:10411C00D7F90121082001F0D3F90021082001F082
:10412C00E0F90121072001F0DCF9074B074840F2C8
:10413C00FF321A60064B00221A6000F04AFABDE802
:10414C003840024800F0B2B970E6032060E6032064
:10415C006CE603202DE9F041094E04460D469046CD
:10416C004F1EA74206DDA1B24246304600F045F98B
:10417C000134F6E7024800F099F92846BDE8F081D1
:10418C0060E603200D4A0E4B10681B680D4A8342F3
:10419C00B8BF034610680C4A8342B8BF0346106888
:1041AC000A4A8342B8BF03461068094A8342B8BF23
:1041BC00034610689842B8BF1846704748E603207B
:1041CC0044E603204CE6032050E6032054E603208B
:1041DC0058E603202DE9F84F0121082001F081F960
:1041EC0000210820DFF8A4A1584F01F07AF94FF014
:1041FC00000954460021072001F073F91E2000F03D
:10420C0007FA102001F086F901214AF8040B072067
:10421C0001F067F94E4E63683B604E4DA368336006
:10422C00DFF85CB1E3684C4A2B602369CBF80030B3
:10423C0063691360DFF85881484AA36920681360EA
:10424C00C8F80000FFF79EFF09F10109444BB9F1D2
:10425C00070F1860CED101F033F8D8F8002041498F
:10426C00FFF71DFF01F02CF83A683F49FFF717FFE5
:10427C0001F026F832683D49FFF711FF01F020F8F4
:10428C002A683B49FFF70BFF01F01AF8DBF8002016
:10429C003849FFF704FF01F013F82F4B36491A6821
:1042AC00FFF7FDFE01F00CF82C4B34491A68FFF7B0
:1042BC00F6FE2B4B1A68D8F800309A4205D142F220
:1042CC00FF229F210020FFF745FF254C3B68226809
:1042DC009A4204D1FF229F210020FFF73BFF226866
:1042EC0033689A4205D14FF47F429F210020FFF79B
:1042FC0031FF22682B689A4205D14FF6FF729F213D
:10430C000020FFF727FF1E4B22681B689A4204D13E
:10431C001C4A9F210020FFF71DFF0F4B22681B68D2
:10432C009A4204D1184A9F210020FFF713FF0B4B30
:10433C0022681B689A4207D1BDE8F84F6FF07F42A4
:10434C009F210020FFF706BFBDE8F88F44E603204D
:10435C0048E603204CE6032054E6032058E60320ED
:10436C005CE60320D4570B00E0570B00EC570B0016
:10437C00F8570B0004580B0010580B001C580B007E
:10438C0050E6032000FF330000FFFF0074E603201B
:10439C0040E6032002480F230E22A02100F0E5B8CE
:1043AC0060E603202DE9F8430023044603604068CF
:1043BC000E4608B100F028FB06F11F0806EB460577
:1043CC00C8F347181FFA85F918FA85F5ADB22846D7
:1043DC0000F012FB0746606068B14A462680658093
:1043EC00802101F043F9424607EB09000021BDE8AA
:1043FC00F84301F03BB9BDE8F88310B503888B4254
:10440C000ED9446801EB4101130C63F07F03635434
:10441C006018130A63F07F0362F07F0243708270AE
:10442C0010BD38B5054690F90900012180B201F0A4
:10443C0047F895F90800012180B201F041F895F98F
:10444C000900002180B201F04CF82C881F34641153
:10445C00E40074B195F90800012180B201F041F833
:10446C0095F90800002180B2013C01F03AF8A4B2A1
:10447C00EFE738BD13B50B4C2178BFF35B8F11F010
:10448C0001010BD120460191FFF701FE019928B1E2
:10449C00054800F079FD2046FFF7FEFD024802B00A
:1044AC0010BD00BF90E6032094E603202DE9F743EE
:1044BC0090F9083045684688013304462E440AD1E9
:1044CC00B5422AD015F8011B0191FFF7D3FF0199D2
:1044DC0000F020FEF4E7AE421FD015F8019B4FF020
:1044EC000808802794F9090019EA070118BF01216F
:1044FC0080B200F0F6FF94F90800012180B200F0C0
:10450C00F0FF94F90800002180B200F0EAFFB8F146
:10451C0001084FEA5707E5D1DDE703B0BDE8F083AA
:10452C0070B5837A04460E4615463BB190F90830B7
:10453C0001330CD1FFF79EFF00F044FDA37A6672A5
:10454C0025728BB12046BDE87040FFF76ABF90F929
:10455C000900002180B200F0B3FF94F9080000219B
:10456C0080B200F0ADFFE9E770BD70B51E460023C8
:10457C00044615464360837206724272FFF712FFBF
:10458C00204632462946FFF7CBFF204670BD10B5BA
:10459C000446FFF76FFF00F001FDFFF76BFF0121F1
:1045AC0000F022FDFFF766FF002100F031FDFFF760
:1045BC0061FF012100F088FD24881F3464093CB19F
:1045CC00FFF758FF013C002100F0A4FDA4B2F6E770
:1045DC0010BD90F90830013310B5044604D1FFF733
:1045EC00D6FF0123A37210BDFFF71BFFF9E70000F4
:1045FC0008B5024B1B685B6C019308BD48020300B5
:10460C0008B5024B1B685B68019308BD18020300D8
:10461C0008B5024B1B68DB68019308BD1802030048
:10462C0008B5024B1B685B69019308BD18020300B7
:10463C0008B5024B1B68DB6D019308BD1802030023
:10464C0008B5024B1B685B68019308BD2C02030084
:10465C0008B5024B1B689B68019308BD2C02030034
:10466C0008B5024B1B68DB68019308BD2C020300E4
:10467C0008B5024B1B681B69019308BD2C02030093
:10468C0008B5024B1B681B6B019308BD2C02030081
:10469C0008B5024B1B681B6A019308BD2802030076
:1046AC0008B5024B1B685B6A019308BD2802030026
:1046BC0008B5024B1B689B6A019308BD28020300D6
:1046CC0008B5024B1B68DB6A019308BD2802030086
:1046DC0008B5024B1B681B6B019308BD2802030035
:1046EC0008B5024B1B685B6B019308BD28020300E5
:1046FC0008B5024B1B681B6C019308BD2802030014
:10470C0008B5024B1B685B69019308BD640203008A
:10471C0008B5024B1B689B68019308BD6802030037
:10472C0008B5024B1B68DB68019308BD68020300E7
:10473C0008B5024B1B681B68019308BD30020300CF
:10474C0008B5024B1B685B68019308BD300203007F
:10475C0008B5024B1B689B68019308BD300203002F
:10476C0008B5024B1B68DB68019308BD30020300DF
:10477C0008B5024B1B681B69019308BD300203008E
:10478C0008B5024B1B685B69019308BD300203003E
:10479C0008B5024B1B68DB69019308BD30020300AE
:1047AC0008B5024B1B681B6A019308BD300203005D
:1047BC0008B5024B1B685B6A019308BD300203000D
:1047CC0008B5024B1B681B6C019308BD300203003B
:1047DC0008B5024B1B685B6C019308BD30020300EB
:1047EC0008B5024B1B68DB68019308BD3C02030053
:1047FC0008B5024B1B681B69019308BD3C02030002
:10480C0008B5024B1B685B69019308BD3C020300B1
:10481C0008B5024B1B689B69019308BD3C02030061
:10482C0008B5024B1B68DB69019308BD3C02030011
:10483C0008B5024B1B681B6A019308BD3C020300C0
:10484C0008B5024B1B689B6A019308BD3C02030030
:10485C0008B5024B1B681B6C019308BD3C0203009E
:10486C0008B5024B1B681B68019308BD4C02030082
:10487C0008B5024B1B685B68019308BD4C02030032
:10488C0008B5024B1B681B69019308BD4C02030061
:10489C0008B5024B1B685B69019308BD4C02030011
:1048AC0008B5024B1B689B69019308BD4C020300C1
:1048BC0008B5024B1B68DB69019308BD4C02030071
:1048CC0008B5024B1B681B6A019308BD4C02030020
:1048DC0008B5024B1B689B6A019308BD4C02030090
:1048EC0008B5024B1B685B68019308BD20020300EE
:1048FC0008B5034B1B68D3F88830019308BD000042
:10490C002002030008B5034B1B68D3F894300193C5
:10491C0008BD00002002030008B5024B1B689B6811
:10492C00019308BD4402030008B5024B1B68DB6B06
:10493C00019308BD4402030008B5024B1B685B6879
:10494C00019308BD4002030008B5024B1B689B682D
:10495C00019308BD4002030008B5024B1B68DB68DD
:10496C00019308BD4002030008B5024B1B681B698C
:10497C00019308BD4002030008B5024B1B685B693C
:10498C00019308BD4002030008B5024B1B689B69EC
:10499C00019308BD4002030008B5024B1B68DB699C
:1049AC00019308BD4002030008B5024B1B681B6A4B
:1049BC00019308BD4002030008B5024B1B681B6B3A
:1049CC00019308BD4002030008B5024B1B685B6BEA
:1049DC00019308BD4002030008B5024B1B681B6C19
:1049EC00019308BD4002030008B5024B1B685B6CC9
:1049FC00019308BD4002030008B5024B1B681B68FD
:104A0C00019308BD1C02030008B5024B1B685B68D0
:104A1C00019308BD1C02030008B5024B1B685B6ABE
:104A2C00019308BD1C02030008B5024B1B681B6CEC
:104A3C00019308BD1C02030008B5024B1B685B6C9C
:104A4C00019308BD1C020300024800230360FFF71A
:104A5C00CFBD00BF9CE60320002240681146FFF743
:104A6C0083BF002240681146FFF79EBF00224068BA
:104A7C001146FFF7A9BF40680022FFF79DBF4068B1
:104A8C00002281F00101FFF787BF002340681A461E
:104A9C001946FFF779BF002340681A461946FFF7FD
:104AAC006BBF002240681146FFF74EBF40680022E2
:104ABC000221FFF751BF002340681A46FFF73CBFA5
:104ACC00084B10B5282422461846002100F0CEFDD4
:104ADC00054B04804FF0FF32426004225A60034AB7
:104AEC001A6010BDA8E60320A0E6032030580B0086
:104AFC00002240681146FFF757BF0022406811465C
:104B0C00FFF762BF40680022FFF756BF40680022E3
:104B1C0081F00101FFF740BF002340681A46194697
:104B2C00FFF732BF002340681A461946FFF724BF2F
:104B3C00002240681146FFF717BF0022406811465B
:104B4C00FFF702BF406800220221FFF705BF0023D8
:104B5C0040681A46FFF7F0BE024B03225A60024A25
:104B6C001A607047D0E603206C580B007047F8B5FC
:104B7C00064615460C468F18BC4206D0336814F80E
:104B8C00011B9B6830469847F6E72846F8BD007C29
:104B9C000022FFF77DBD007C0021FFF781BD007C6A
:104BAC000021FFF785BD007C0021FFF789BD007C4B
:104BBC000021FFF78DBD10B514210446FFF765FAEF
:104BCC00204610BD38B5044615464FF47A730022C2
:104BDC00C4E90123094B2174084623602946FFF7D9
:104BEC0087FDBF3008D16B69DB0705D56868FFF717
:104BFC000BFFE868FFF708FF204638BDA8580B00EC
:104C0C00704710B518210446FFF73FFA204610BD37
:104C1C00F0B5037D062B8DB00E4600F104074FF066
:104C2C00000412D000F1080515F8011D0A223046C7
:104C3C0000F04FF9AF42044419D0002CF4D02E21CF
:104C4C00304600F037F90444EEE72F236A46394624
:104C5C000A208DF80040FFF753FD684600F03CFD3C
:104C6C0033680246DB68694630469847044620465E
:104C7C000DB0F0BD10B5054B0446112240F8043BB5
:104C8C00002100F0F3FC204610BD00BFD0580B00F3
:104C9C000346074A10B543F8042B01F1100251F8F2
:104CAC00044B43F8044B9142F9D10A781A7010BDA9
:104CBC00D0580B0010B59DF8084044EA032343EA92
:104CCC00024242EA016104234160037510BD0000F9
:104CDC0007B5064B0360CB7800938B784A7809783C
:104CEC00FFF7E8FF03B05DF804FB00BFD0580B00E2
:104CFC00014B024A1A607047D8E60320DC580B00BF
:104D0C00002340681A46FFF717BE406800220221B4
:104D1C00FFF722BE002240681146FFF715BE0022A5
:104D2C0040681146FFF720BE002340681A4619461A
:104D3C00FFF722BE002340681A461946FFF724BE2F
:104D4C0040680021FFF748BE40680021FFF74CBEC9
:104D5C004068002281F00101FFF71EBE406800226E
:104D6C00FFF72ABE002240681146FFF72DBE002235
:104D7C0040681146FFF718BE2DE9F04395B0144674
:104D8C000D460746FFF776FF00211C220DA8009167
:104D9C0000F06CFC40230C9320466B460CAA0021BF
:104DAC00FFF7BEFC044600284BD10246012168687F
:104DBC00FFF7DAFD0221804622466868FFF7D4FD32
:104DCC00009E81462146002E3BD0002939D17368C4
:104DDC00022B03D00A2B11D0F669F4E7B8F1000FBF
:104DEC00FAD0716906A8043107ADFFF771FF0FCD3A
:104DFC003C1D0FC42B6823704146EDE7B9F1000F41
:104E0C00EAD07469102201A800F030FC06238DF85A
:104E1C00143001AD04F108031834186859682A4697
:104E2C0003C20833A3421546F7D101A906A807AD62
:104E3C00FFF72EFF0FCD3C1D0FC42B682370494686
:104E4C00CAE70098FFF764FC384615B0BDE8F0835C
:104E5C00024B034A1A6000225A607047DCE60320BA
:104E6C00E8580B00F8B506460D468F180024BD42D5
:104E7C000CD0336815F8011B9B6830469847031E0D
:104E8C0001DB1C44F3E7002C08BF1C462046F8BD90
:104E9C0013B50446084659B1019100F01DFC236876
:104EAC000199DB680246204602B0BDE81040184765
:104EBC0002B010BD03689B68184738B50D21054634
:104ECC00FFF7F8FF0A2104462846FFF7F3FF2044BA
:104EDC0038BD30B58BB00023012A8DF8243098BF33
:104EEC000A2209AC0D46B1FBF2F101FB125303F09F
:104EFC00FF03092B94BF30333733DBB2AA4204F8DB
:104F0C00013DEFD92146FFF7C3FF0BB030BD2DE9B2
:104F1C00F04186B000AF05460E46381D14211446EC
:104F2C003B60FFF779FD13280ED8391D2846FFF793
:104F3C00AFFF04461EB12846FFF7BFFF04442046CE
:104F4C001837BD46BDE8F08100F1080323F00703D4
:104F5C00E846ADEB030D2246411C3B686846FFF763
:104F6C005BFD69462846FFF793FF0446C546E1E71B
:104F7C00014B00229A607047E4E603200021FFF702
:104F8C0027BC0021FFF71CBC10B504460846217055
:104F9C00FFF7FEFB00236360204610BD13B50446EB
:104FAC000078FFF7EEFF58B9207801904FF6FF71AB
:104FBC00FFF7BEFB019802B0BDE81040FFF7DEBF63
:104FCC0002B010BD13B504460078FFF7DAFF48B9FC
:104FDC0020780190FFF7B4FB019802B0BDE81040B7
:104FEC00FFF7CCBF02B010BD13B504460078019199
:104FFC00FFF7C7FF019948B920780190FFF7A8FB8C
:10500C00019802B0BDE81040FFF7B8BF02B010BD68
:10501C0013B5044600780191FFF7B3FF019948B925
:10502C0020780190FFF79CFB019802B0BDE810407E
:10503C00FFF7A4BF02B010BD400830B518600024C3
:10504C0018688842E5B206D90134082C02D0400811
:10505C001860F5E70725024B5B5D137030BD00BF90
:10506C001C590B002DE9F04188B000230446007850
:10507C0002930E461746FFF784FF054600BB94F8D3
:10508C0000800146142203A800F0F0FA0B232A46F4
:10509C0003A94046ADF80C30FFF78AFB04988DF855
:1050AC00075002AB0DF1070207FB06F1FFF7C4FF37
:1050BC0020789DF80710FFF75BFB2078FFF75EFF69
:1050CC00029808B0BDE8F08138B5044600780D466A
:1050DC00FFF757FF0346D0B9616899B10C4A12F833
:1050EC00010B854202D00133082BF8D10133DBB21E
:1050FC000122D9402046FFF7B5FF2078BDE83840A3
:10510C00FFF73CBF20782946FFF732FBF5E738BDA7
:10511C001C590B0008B50078FFF732FBC0B208BD74
:10512C00054B02221A60054B054A9A600020C3E920
:10513C000000FFF7D5BB00BF00E70320F4E6032017
:10514C000000FFFF024B1A68024B1A60704700BF49
:10515C00D4E5032004E7032070474174704708B579
:10516C00007CFFF76DFB20EAE07008BD08B5007C01
:10517C00FFF73EFB20EAE07008BD08B5007CFFF7A6
:10518C0047FB40EAE07008BD08B5007CFFF738FB30
:10519C0040EAE07008BD007CFFF742BB37B5457CA8
:1051AC0004462DB1207C03B0BDE83040FFF718BB9E
:1051BC00007C0191FFF744FB00280199F2DC2846A2
:1051CC0003B030BD10B514210446FEF75EFF204637
:1051DC0010BD000010B54FF47A7304460846114612
:1051EC000022C4E90123044B23600123207463745F
:1051FC00FFF72EFB204610BD48590B004174704739
:10520C007047704708B50021007CFFF749FB40EA66
:10521C00E07008BD08B50121007CFFF741FB40EAB6
:10522C00E07008BD08B5007CFFF732FB20EAE070A7
:10523C0008BD08B5007CFFF723FB20EAE07008BD31
:10524C0013B50446007C0191FFF722FB002801995D
:10525C0001DC607C20B1207CFFF72AFB20EAE070A7
:10526C0002B010BD007CFFF72BBB10B51421044617
:10527C00FEF70BFF204610BD10B54FF47A730446B1
:10528C0008460021C4E90113044B23600123207458
:10529C0063741146FFF7E4FA204610BD78590B00F1
:1052AC00007C0022FFF7E4BA007CFFF711BB10B5BD
:1052BC0014220446002100F0D9F9204610BD00004C
:1052CC0010B50F4C88B003A8FFF7F1FF2178BFF39E
:1052DC005B8F11F001010FD120460191FEF7D7FE33
:1052EC00019948B103AA0748FFF7C6FF2046FEF70D
:1052FC00D3FE054800F0A6F9024808B010BD00BF67
:10530C0008E703200CE703200D520B00014B18603B
:10531C00704700BFD8E5032008B50B4B43B1FFF72E
:10532C00CFFF03681B699847002801DDAFF30080AD
:10533C00064B43B100F060F903681B6998470028DD
:10534C0001DDAFF3008008BD00000000000000008C
:10535C0008B5FFF7E1FFFFF763F9014B186008BDD3
:10536C0028E703200548064A064908B5121A00F03A
:10537C006FF9054B054A1A6008BD00BF00F4032005
:10538C0004F40320645A0B0000F403201E1C279A1B
:10539C0007B5002300931A466FF07701FFF7B2FAB6
:1053AC0003B05DF804FB000007B543880A2B08D056
:1053BC00502B0BD1094B1B684BB103B05DF804EBC0
:1053CC001847FFF7E5FF03B05DF804FB00230093DB
:1053DC001A466FF07701FFF795FAF4E724E70320FC
:1053EC0010B512480021FFF727FB114B1A68114B1F
:1053FC009A42114B0CBF012200221A7001D0FFF708
:10540C00B1FFFFF7FDF8044600F038F90B4B13B170
:10541C002046AFF3008000210848FFF785FABDE86D
:10542C00104007480021FFF763BA00BF19530B0067
:10543C0000F403201E1C279A20E703200000000024
:10544C00B5530B00232813B502D9002002B010BDB0
:10545C00A0F10B03022B1AD8174C2178BFF35B8FEA
:10546C0011F001010BD120460191FEF710FE0199BC
:10547C0028B11248FFF788FD2046FEF70DFE0F4BB2
:10548C001878FFF78DF90028DFD10120DEE701281D
:10549C0009D800F071F80021007CFFF721F980F0A9
:1054AC000100C0B2D2E709380128EED800F0A4F808
:1054BC00007CFFF7BDF9F2E790E6032094E60320A9
:1054CC00232838B504460D460AD8FF2908D0FFF723
:1054DC00B9FF28B129462046BDE83840FFF7B8B8D7
:1054EC0038BD38B504460D46FFF7BAF8FF2810D082
:1054FC00062804D84D2323FA00F0C30709D420460C
:10550C00FFF7A0FF28B129462046BDE83840FFF739
:10551C00AFB838BD0D2810B504469CBF0E34A4B2EC
:10552C002046FFF78FFF50B103212046FFF788F884
:10553C00032804D12046BDE81040FFF7A1B8002095
:10554C0010BD704738B50A4B036001230446436114
:10555C000849202000F074F8202560600549A560FA
:10556C00284600F06DF8C4E90305204638BD00BF9D
:10557C0018000100A0590B0030B50E4D2978BFF36F
:10558C005B8F11F0010487B011D12846FEF77FFD27
:10559C0068B16846FFF7D6FF6A4621460648FFF712
:1055AC0011FB2846FEF778FD044800F04BF8024842
:1055BC0007B030BD2CE7032030E703204F550B001C
:1055CC007047000038B5044614252A46002100F027
:1055DC004DF825804025074925812846258200F075
:1055EC002FF804496060284600F02AF8E060204655
:1055FC0038BD00BFA0590B0030B50E4D2978BFF354
:10560C005B8F11F0010487B011D12846FEF73FFDE6
:10561C0068B101A8FFF7D6FF01AA21460648FFF79B
:10562C00D9FD2846FEF738FD044800F00BF8024877
:10563C0007B030BD44E7032048E70320CD550B00ED
:10564C00FEF721BD002301461A46184600F04CB85F
:10565C000A44914200F1FF3300D1704710B511F8A4
:10566C00014B03F8014F9142F9D110BD024403469E
:10567C00934200D1704703F8011BF9E738B5104B82
:10568C001D68AB6B0446B3B91820FFF7B5F9024699
:10569C00A86320B90B4B0C484221FFF7C5F90B4905
:1056AC000B4BC0E900130B4B83600B238381002150
:1056BC000120C2E90401AB6B00221C615A6138BDA8
:1056CC00D8E50320A1590B00B8590B000E33CDAB14
:1056DC0034126DE6ECDE0500034613F8012B002AAC
:1056EC00FBD1181A013870472DE9F843DFF8B88060
:1056FC000646D8F800001F460D46914600F056F8B5
:10570C00254B1C6834B9254C1C60254B13B11B6808
:10571C00C4F8883063681F2B07DDD8F8000000F050
:10572C0047F84FF0FF30BDE8F8834EB3D4F888004B
:10573C0088B91C4B23B9D8F8000000F038F8F0E712
:10574C004FF48470FFF758F90028F4D00023C0E917
:10575C004033C4F88800636840F8239001229A40D3
:10576C0000EB8301D0F800311343C0F80031022E56
:10577C00C1F8807002BFD0F804311343C0F8043173
:10578C006368D8F800005A1C0233626044F8235056
:10579C0000F00EF80020C6E7E8E703205CE70320E2
:1057AC0000000000054A0B003CE6032070477047E0
:1057BC00704700001D400B0059400B0081400B004E
:1057CC0085400B000000000042616E6431203D20DA
:1057DC0025690A0042616E6432203D2025690A0069
:1057EC0042616E6433203D2025690A0042616E647B
:1057FC0034203D2025690A0042616E6435203D202D
:10580C0025690A0042616E6436203D2025690A0034
:10581C0042616E6437203D2025690A0000000000BB
:10582C0000000000C34A0B00B94A0B00AF4A0B0042
:10583C00654A0B00A34A0B00974A0B004D4D0B0019
:10584C00554D0B008B4A0B00834A0B00794A0B0019
:10585C006F4A0B00854D0B0000000000000000009B
:10586C005B4B0B00514B0B00474B0B003D4B0B00A4
:10587C00314B0B00254B0B004D4D0B00554D0B00C8
:10588C00194B0B00114B0B00074B0B00FD4A0B0087
:10589C00854D0B000000000000000000794B0B0050
:1058AC00C34B0B009B4B0B007B4B0B00A34B0B0018
:1058BC00AB4B0B00B34B0B00BB4B0B0000000000C1
:1058CC00000000001D4C0B000D4C0B000F4C0B008E
:1058DC006170700000000000000000000D4D0B0016
:1058EC00174D0B00214D0B002B4D0B00354D0B00B4
:1058FC00414D0B004D4D0B00554D0B005D4D0B00FC
:10590C00694D0B00714D0B007B4D0B00854D0B0051
:10591C00000810182028303825592D256D2D2564A8
:10592C005425483A254D3A2553257A006173637402
:10593C00696D6500000000000000000065510B005F
:10594C00D1510B00A9510B00714E0B0079510B007A
:10595C0095510B0087510B00A3510B0067510B00A5
:10596C006B510B0000000000000000000F520B00F8
:10597C0077520B004D520B00714E0B003F520B0037
:10598C0011520B0021520B0071520B0031520B00C3
:10599C0009520B00005245454E54206D616C6C6FE2
:1059AC006320737563636565646564002F746D7043
:1059BC002F6A656E6B696E732D4743432D31302D05
:1059CC00706970656C696E652D34385F32303230B9
:1059DC00313132345F313630363138303633392F5D
:1059EC007372632F6E65776C69622F6E65776C6965
:1059FC00622F6C6962632F7374646C69622F7261BD
:105A0C006E642E6300000000A1430B00554A0B008E
:105A1C00CD4A0B00654B0B00FD4C0B005D4E0B0093
:105A2C007D4F0B002D510B0051510B00000000005D
:045A3C000000000066
:105A4000040000001400000003000000474E550051
:105A5000944EC89BF2421F92E236A39A74533A7650
:045A600024668F31F8
:045A6400000000003E
:105A680038590B00DCE503200000000000000000AE
:105A7800000000000000000000000000000000001E
:105A8800000000000000000000000000000000000E
:105A980000000000000000000000000000000000FE
:105AA80000000000000000000000000000000000EE
:105AB80000000000000000000000000000000000DE
:0C5AC8000000000000000000ECE70320DC
:105AD400FFFFFFFF00000102030405060708090A8F
:105AE4000B0C0D0E0F101112131415161718191A8A
:085AF4001B1C1D1E1F202800D1
:045AFC007856341292
:04000003B000401CED
:00000001FF
