:02000002B0004C
:1040000000400B001C590B00000006000D000502CB
:084010000401A50F00000000EF
:0440180000560B0043
:10401C0009480A49884208B505D0094A824202D0AB
:10402C00121A01F035FA0748074A0021121A01F05A
:10403C003DFA014808BD00BF14E6032088580B0068
:10404C0080E6032080E60320EDE7032070B5074EE1
:10405C00074C01F0FBF8A41BA4080025AC4200D1CE
:10406C0070BD56F8043B98470135F7E730580B0004
:10407C0054580B0000F014B808B500F0AFF8BDE8C8
:10408C00084001F09BB800F035BC00F03BBC007858
:10409C00B0FA80F0400970470123037070470000AC
:1040AC0008B5044800F043FABDE80840014800F0A8
:1040BC00ABB900BF80E603202DE9F041094E044660
:1040CC000D4690464F1EA74206DDA1B24246304631
:1040DC0000F040F90134F6E7024800F095F9284663
:1040EC00BDE8F08180E60320FF2A98BF5243F0B46C
:1040FC0094BF160AFF26C6F3470531B92B462A464C
:10410C002946F0BC234800F01AB9C0B22B24B0FBEE
:10411C00F4F704FB170404EB4404FF294FEA4404AE
:10412C000B46E4B228BFFF2303FB04FCC4F1FF04DD
:10413C0003FB04F04FEA1C2C000AC3F1FF01CCF185
:10414C00FF0CC0F1FF00714306FB0CFC7043C1F384
:10415C004721CCF3472CC0F34720042F16D8DFE8B7
:10416C0007F003070B0E110003460A462946C8E761
:10417C000A462B466146C4E72B460246C1E7634616
:10418C002A46BEE70B462A460146BAE70B4662466C
:10419C00ECE700BF80E603202DE9F041DFF8388022
:1041AC0005460E46174600240B4800F0C6F8A04200
:1041BC000CD93A46314605EB8400FFF795FFA1B2C6
:1041CC000246404600F0C6F80134EDE7BDE8F04188
:1041DC00014800F019B900BF80E603202DE9F8432F
:1041EC00384FDFF8E4800026FF243868C4F1FF0163
:1041FC00072E64D8DFE806F00463636363075F612E
:10420C000A46FF2101E0FF222146FFF7C5FF404689
:10421C003D6800F092F80235053C95FBF0F303FB8A
:10422C001055631D3D60E0D10136082EDCD1264FC0
:10423C00A224264E002556F8042BA2210020FFF7BD
:10424C003BFF384600F0E0F801354FF4FA7000F00F
:10425C0071FB0A2DEFD1013CEBD1DFF874801A4FC2
:10426C00A2241B4E002556F8042BA2210020FFF798
:10427C0023FF384600F0C8F801354FF4FA7000F00F
:10428C0059FB042DEFD1013CEBD10F4E474625468F
:10429C0004F10409A9B257F8042B304600F05AF87F
:1042AC000135304600F0B0F8A945F3D10534A52C02
:1042BC00ECD1BDE8F883FF22A7E72246A1E7FF2255
:1042CC001146A2E78CE6032080E6032014560B006F
:1042DC0038560B0002480F230E22A22100F0F3B82F
:1042EC0080E603202DE9F843002304460360406870
:1042FC000E4608B100F006FB06F11F0806EB46055A
:10430C00C8F347181FFA85F918FA85F5ADB2284697
:10431C0000F0F0FA0746606068B14A462680658076
:10432C00802101F0C3F8424607EB09000021BDE8EB
:10433C00F84301F0BBB8BDE8F8830088704742F041
:10434C00800243EA024341F0800143EA012343F037
:10435C008000704710B503888B420ED9446801EB7E
:10436C004101130C63F07F0363546018130A63F06C
:10437C007F0362F07F024370827010BD38B5054632
:10438C0090F90900012180B200F0D0FF95F90800E6
:10439C00012180B200F0CAFF95F90900002180B21A
:1043AC0000F0D5FF2C881F346411E40074B195F92A
:1043BC000800012180B200F0CAFF95F90800002125
:1043CC0080B2013C00F0C3FFA4B2EFE738BD00009F
:1043DC0013B50B4C2178BFF35B8F11F001010BD19E
:1043EC0020460191FFF753FE019928B1054800F0D2
:1043FC0009FD2046FFF750FE024802B010BD00BF79
:10440C0090E6032094E603202DE9F74390F9083059
:10441C0045684688013304462E440AD1B5422AD059
:10442C0015F8011B0191FFF7D3FF019900F0B0FDC6
:10443C00F4E7AE421FD015F8019B4FF00808802717
:10444C0094F9090019EA070118BF012180B200F0A4
:10445C007EFF94F90800012180B200F078FF94F9F6
:10446C000800002180B200F072FFB8F101084FEA99
:10447C005707E5D1DDE703B0BDE8F08370B5837A6B
:10448C0004460E4615463BB190F9083001330CD169
:10449C00FFF79EFF00F0D4FCA37A667225728BB1F5
:1044AC002046BDE87040FFF769BF90F90900002174
:1044BC0080B200F03BFF94F90800002180B200F0BC
:1044CC0035FFE9E770BD70B51E460023044615465E
:1044DC004360837206724272FFF704FF2046324635
:1044EC002946FFF7CBFF204670BD10B50446FFF7F9
:1044FC006FFF00F091FCFFF76BFF012100F0B2FCA5
:10450C00FFF766FF002100F0C1FCFFF761FF0121FE
:10451C0000F018FD24881F3464093CB1FFF758FFE4
:10452C00013C002100F034FDA4B2F6E710BD90F977
:10453C000830013310B5044604D1FFF7D6FF012330
:10454C00A37210BDFFF71AFFF9E7000008B5024B84
:10455C001B685B6C019308BD4802030008B5024B55
:10456C001B685B68019308BD1802030008B5024B79
:10457C001B685B69019308BD1802030008B5024B68
:10458C001B689B68019308BD2C02030008B5024B05
:10459C001B68DB68019308BD2C02030008B5024BB5
:1045AC001B681B69019308BD2C02030008B5024B64
:1045BC001B681B6A019308BD2802030008B5024B57
:1045CC001B685B6A019308BD2802030008B5024B07
:1045DC001B689B6A019308BD2802030008B5024BB7
:1045EC001B68DB6A019308BD2802030008B5024B67
:1045FC001B681B6B019308BD2802030008B5024B16
:10460C001B685B6B019308BD2802030008B5024BC5
:10461C001B681B6C019308BD2802030008B5024BF4
:10462C001B685B69019308BD6402030008B5024B6B
:10463C001B689B68019308BD6802030008B5024B18
:10464C001B68DB68019308BD6802030008B5024BC8
:10465C001B681B68019308BD3002030008B5024BB0
:10466C001B685B68019308BD3002030008B5024B60
:10467C001B689B68019308BD3002030008B5024B10
:10468C001B68DB68019308BD3002030008B5024BC0
:10469C001B681B69019308BD3002030008B5024B6F
:1046AC001B685B69019308BD3002030008B5024B1F
:1046BC001B68DB69019308BD3002030008B5024B8F
:1046CC001B681B6A019308BD3002030008B5024B3E
:1046DC001B685B6A019308BD3002030008B5024BEE
:1046EC001B681B6C019308BD3002030008B5024B1C
:1046FC001B685B6C019308BD3002030008B5024BCC
:10470C001B68DB68019308BD3C02030008B5024B33
:10471C001B681B69019308BD3C02030008B5024BE2
:10472C001B685B69019308BD3C02030008B5024B92
:10473C001B689B69019308BD3C02030008B5024B42
:10474C001B68DB69019308BD3C02030008B5024BF2
:10475C001B681B6A019308BD3C02030008B5024BA1
:10476C001B689B6A019308BD3C02030008B5024B11
:10477C001B681B6C019308BD3C02030008B5024B7F
:10478C001B681B68019308BD4C02030008B5024B63
:10479C001B681B69019308BD4C02030008B5024B52
:1047AC001B685B69019308BD4C02030008B5024B02
:1047BC001B689B69019308BD4C02030008B5024BB2
:1047CC001B68DB69019308BD4C02030008B5024B62
:1047DC001B681B6A019308BD4C02030008B5024B11
:1047EC001B685B68019308BD2002030008B5024BEF
:1047FC001B685B69019308BD2002030008B5034BDD
:10480C001B68D3F88830019308BD00002002030018
:10481C0008B5034B1B68D3F89430019308BD000016
:10482C002002030008B5024B1B68DB6B019308BD2B
:10483C004402030008B5024B1B685B68019308BD7A
:10484C004002030008B5024B1B689B68019308BD2E
:10485C004002030008B5024B1B68DB68019308BDDE
:10486C004002030008B5024B1B681B69019308BD8D
:10487C004002030008B5024B1B685B69019308BD3D
:10488C004002030008B5024B1B689B69019308BDED
:10489C004002030008B5024B1B68DB69019308BD9D
:1048AC004002030008B5024B1B681B6A019308BD4C
:1048BC004002030008B5024B1B681B6B019308BD3B
:1048CC004002030008B5024B1B685B6B019308BDEB
:1048DC004002030008B5024B1B681B6C019308BD1A
:1048EC004002030008B5024B1B685B6C019308BDCA
:1048FC004002030008B5024B1B681B68019308BDFE
:10490C001C02030008B5024B1B685B68019308BDD1
:10491C001C02030008B5024B1B681B6C019308BDFD
:10492C001C02030008B5024B1B685B6C019308BDAD
:10493C001C0203000021FFF759BF000002480023AE
:10494C000360FFF703BE00BF9CE603200022406813
:10495C001146FFF787BF002240681146FFF7A2BF40
:10496C00002240681146FFF7ADBF40680022FFF7F8
:10497C00A1BF4068002281F00101FFF78BBF00232B
:10498C0040681A461946FFF77DBF002340681A4657
:10499C001946FFF76FBF002240681146FFF752BF60
:1049AC00406800220221FFF755BF002340681A46D9
:1049BC00FFF740BF084B10B52824224618460021AB
:1049CC0000F074FD054B04804FF0FF32426004226E
:1049DC005A60034A1A6010BDA8E60320A0E6032023
:1049EC004C560B00002240681146FFF75BBF0022BB
:1049FC0040681146FFF766BF40680022FFF75ABFB8
:104A0C004068002281F00101FFF744BF0023406899
:104A1C001A461946FFF736BF002340681A46194656
:104A2C00FFF728BF002240681146FFF71BBF00228A
:104A3C0040681146FFF706BF406800220221FFF7CD
:104A4C0009BF002340681A46FFF7F4BE024B03224D
:104A5C005A60024A1A607047D0E6032088560B0051
:104A6C007047F8B5064615460C468F18BC4206D062
:104A7C00336814F8011B9B6830469847F6E72846C4
:104A8C00F8BD007C0022FFF791BD007C0021FFF7F0
:104A9C0095BD007C0021FFF799BD007C0021FFF73C
:104AAC009DBD007C0021FFF7A1BD10B5142104466B
:104ABC00FFF7EBFA204610BD38B5044615464FF407
:104ACC007A730022C4E90123094B21740846236040
:104ADC002946FFF79BFDBF3008D16B69DB0705D575
:104AEC006868FFF70FFFE868FFF70CFF204638BD3A
:104AFC00C4560B00704710B518210446FFF7C5FAD1
:104B0C00204610BDF0B5037D062B8DB00E4600F18E
:104B1C0004074FF0000412D000F1080515F8011D30
:104B2C000A22304600F043F9AF42044419D0002C5D
:104B3C00F4D02E21304600F037F90444EEE72F2351
:104B4C006A4639460A208DF80040FFF767FD684633
:104B5C0000F0E2FC33680246DB6869463046984751
:104B6C00044620460DB0F0BD10B5054B044611228D
:104B7C0040F8043B002100F099FC204610BD00BF1A
:104B8C00EC560B000346074A10B543F8042B01F111
:104B9C00100251F8044B43F8044B9142F9D10A78B6
:104BAC001A7010BDEC560B0010B59DF8084044EA85
:104BBC00032343EA024242EA016104234160037584
:104BCC0010BD000007B5064B0360CB7800938B78C3
:104BDC004A780978FFF7E8FF03B05DF804FB00BFE3
:104BEC00EC560B00014B024A1A607047D8E60320C2
:104BFC00F8560B00002340681A46FFF71BBE4068AE
:104C0C0000220221FFF726BE002240681146FFF762
:104C1C0019BE002240681146FFF724BE00234068ED
:104C2C001A461946FFF726BE002340681A46194655
:104C3C00FFF728BE40680021FFF74CBE40680021FA
:104C4C00FFF750BE4068002281F00101FFF722BE41
:104C5C0040680022FFF72EBE002240681146FFF785
:104C6C0031BE002240681146FFF71CBE2DE9F0430F
:104C7C0095B014460D460746FFF776FF00211C221F
:104C8C000DA8009100F012FC40230C9320466B46BB
:104C9C000CAA0021FFF7D2FC044600284BD1024697
:104CAC0001216868FFF7DEFD022180462246686814
:104CBC00FFF7D8FD009E81462146002E3BD00029EF
:104CCC0039D17368022B03D00A2B11D0F669F4E7A3
:104CDC00B8F1000FFAD0716906A8043107ADFFF7DF
:104CEC0071FF0FCD3C1D0FC42B6823704146EDE7BF
:104CFC00B9F1000FEAD07469102201A800F0D6FBBC
:104D0C0006238DF8143001AD04F10803183418682B
:104D1C0059682A4603C20833A3421546F7D101A9A4
:104D2C0006A807ADFFF72EFF0FCD3C1D0FC42B6857
:104D3C0023704946CAE70098FFF778FC384615B04F
:104D4C00BDE8F083024B034A1A6000225A60704798
:104D5C00DCE6032004570B00F8B506460D468F1809
:104D6C000024BD420CD0336815F8011B9B683046FB
:104D7C009847031E01DB1C44F3E7002C08BF1C46BC
:104D8C002046F8BD13B50446084659B1019100F010
:104D9C00C3FB23680199DB680246204602B0BDE8DC
:104DAC001040184702B010BD03689B68184730B517
:104DBC008BB00023012A8DF8243098BF0A2209AC4D
:104DCC000D46B1FBF2F101FB125303F0FF03092B6B
:104DDC0094BF30333733DBB2AA4204F8013DEFD92C
:104DEC002146FFF7CFFF0BB030BD0000014B002276
:104DFC009A607047E4E603200021FFF777BC00219E
:104E0C00FFF76CBC10B5044608462170FFF74EFC4A
:104E1C0000236360204610BD13B504460078FFF7ED
:104E2C00EEFF58B9207801904FF6FF71FFF70EFC9A
:104E3C00019802B0BDE81040FFF7DEBF02B010BD14
:104E4C0013B504460078FFF7DAFF48B920780190D3
:104E5C00FFF704FC019802B0BDE81040FFF7CCBF8F
:104E6C0002B010BD13B5044600780191FFF7C7FFDF
:104E7C00019948B920780190FFF7F8FB019802B02E
:104E8C00BDE81040FFF7B8BF02B010BD13B5044623
:104E9C0000780191FFF7B3FF019948B92078019090
:104EAC00FFF7ECFB019802B0BDE81040FFF7A4BF80
:104EBC0002B010BD400830B5186000241868884254
:104ECC00E5B206D90134082C02D040081860F5E789
:104EDC000725024B5B5D137030BD00BF38570B00CC
:104EEC002DE9F04188B000230446007802930E4669
:104EFC001746FFF784FF054600BB94F80080014677
:104F0C00142203A800F0D2FA0B232A4603A9404628
:104F1C00ADF80C30FFF7DAFB04988DF8075002ABB4
:104F2C000DF1070207FB06F1FFF7C4FF20789DF88F
:104F3C000710FFF7ABFB2078FFF75EFF029808B075
:104F4C00BDE8F08138B5044600780D46FFF757FFF1
:104F5C000346D0B9616899B10C4A12F8010B85422D
:104F6C0002D00133082BF8D10133DBB20122D94036
:104F7C002046FFF7B5FF2078BDE83840FFF73CBF6F
:104F8C0020782946FFF782FBF5E738BD38570B0030
:104F9C0008B50078FFF782FBC0B208BD054B0222B2
:104FAC001A60054B054A9A600020C3E90000FFF720
:104FBC0015BC00BF00E70320F4E603200000FFFF50
:104FCC00024B1A68024B1A60704700BF14E60320AC
:104FDC0004E7032070474174704708B5007CFFF765
:104FEC00BDFB20EAE07008BD08B5007CFFF78EFB26
:104FFC0020EAE07008BD08B5007CFFF797FB40EA9B
:10500C00E07008BD08B5007CFFF788FB40EAE07053
:10501C0008BD007CFFF792BB37B5457C04462DB12B
:10502C00207C03B0BDE83040FFF768BB007C0191E9
:10503C00FFF794FB00280199F2DC284603B030BD41
:10504C0010B514210446FFF720F8204610BD0000CF
:10505C0010B54FF47A730446084611460022C4E991
:10506C000123044B2360012320746374FFF77EFB40
:10507C00204610BD64570B00417470477047704751
:10508C0008B50021007CFFF791FB40EAE07008BDF9
:10509C0008B50121007CFFF789FB40EAE07008BDF0
:1050AC0008B5007CFFF77AFB20EAE07008BD08B574
:1050BC00007CFFF76BFB20EAE07008BD13B50446DB
:1050CC00007C0191FFF76AFB0028019901DC607CF0
:1050DC0020B1207CFFF772FB20EAE07002B010BD1B
:1050EC00007CFFF773BB10B514210446FEF7CDFF0F
:1050FC00204610BD10B54FF47A73044608460021C3
:10510C00C4E90113044B236001232074637411461A
:10511C00FFF734FB204610BD94570B0010B514223A
:10512C000446002100F0C2F9204610BD10B50F4C0A
:10513C0088B003A8FFF7F2FF2178BFF35B8F11F063
:10514C0001010FD120460191FEF7A1FF019948B151
:10515C0003AA0748FFF7CEFF2046FEF79DFF054840
:10516C0000F090F9024808B010BD00BF08E703201A
:10517C000CE7032089500B00014B1860704700BFEF
:10518C0018E6032008B50B4B43B1FFF7CFFF0368BC
:10519C001B699847002801DDAFF30080064B43B133
:1051AC0000F04AF903681B699847002801DDAFF34A
:1051BC00008008BD000000000000000008B5FFF7EB
:1051CC00E1FFFFF7D3F9014B186008BD28E7032076
:1051DC000548064A064908B5121A00F059F9054B5C
:1051EC00054A1A6008BD00BF00F4032004F4032034
:1051FC0084580B0000F403201E1C279A07B50023CB
:10520C0000931A466FF07701FFF702FB03B05DF8CD
:10521C0004FB000007B543880A2B08D0502B0BD198
:10522C00094B1B684BB103B05DF804EB1847FFF753
:10523C00E5FF03B05DF804FB002300931A466FF002
:10524C007701FFF7E5FAF4E724E7032010B51248DD
:10525C000021FFF767FB114B1A68114B9A42114B57
:10526C000CBF012200221A7001D0FFF7B1FFFFF72B
:10527C0075F9044600F022F90B4B13B12046AFF33D
:10528C00008000210848FFF7CDFABDE81040074820
:10529C000021FFF7B3BA00BF85510B0000F40320C7
:1052AC001E1C279A20E703200000000021520B004F
:1052BC00232813B502D9002002B010BDA0F10B03B6
:1052CC00022B1AD8174C2178BFF35B8F11F0010118
:1052DC000BD120460191FEF7DAFE019928B1124854
:1052EC00FFF790FD2046FEF7D7FE0F4B1878FFF71F
:1052FC00E5F90028DFD10120DEE7012809D800F00C
:10530C005BF80021007CFFF779F980F00100C0B256
:10531C00D2E709380128EED800F08EF8007CFFF7B0
:10532C0015FAF2E790E6032094E60320232838B51B
:10533C0004460D460AD8FF2908D0FFF7B9FF28B15B
:10534C0029462046BDE83840FFF718B938BD38B5B6
:10535C0004460D46FFF71AF9FF2810D0062804D88A
:10536C004D2323FA00F0C30709D42046FFF7A0FF12
:10537C0028B129462046BDE83840FFF70FB938BDA3
:10538C007047000038B50A4B0360012304464361A3
:10539C000849202000F074F8202560600549A560BC
:1053AC00284600F06DF8C4E90305204638BD00BF5F
:1053BC0018000100BC570B0030B50E4D2978BFF317
:1053CC005B8F11F0010487B011D12846FEF75FFE08
:1053DC0068B16846FFF7D6FF6A4621460648FFF7D4
:1053EC006BFB2846FEF758FE044800F04BF80248C9
:1053FC0007B030BD2CE7032030E703208D530B00A2
:10540C007047000038B5044614252A46002100F0E8
:10541C004DF825804025074925812846258200F036
:10542C002FF804496060284600F02AF8E060204616
:10543C0038BD00BFBC570B0030B50E4D2978BFF3FB
:10544C005B8F11F0010487B011D12846FEF71FFEC7
:10545C0068B101A8FFF7D6FF01AA21460648FFF75D
:10546C00F7FD2846FEF718FE044800F00BF802483A
:10547C0007B030BD44E7032048E703200D540B0070
:10548C00FEF701BE002301461A46184600F04CB840
:10549C000A44914200F1FF3300D1704710B511F866
:1054AC00014B03F8014F9142F9D110BD0244034660
:1054BC00934200D1704703F8011BF9E738B5104B44
:1054CC001D68AB6B0446B3B91820FFF713FA0246FC
:1054DC00A86320B90B4B0C484221FFF71BFA0B4970
:1054EC000B4BC0E900130B4B83600B238381002112
:1054FC000120C2E90401AB6B00221C615A6138BD6A
:10550C0018E60320BD570B00D4570B000E33CDAB60
:10551C0034126DE6ECDE0500034613F8012B002A6D
:10552C00FBD1181A013870472DE9F843DFF8B88021
:10553C000646D8F800001F460D46914600F056F876
:10554C00254B1C6834B9254C1C60254B13B11B68CA
:10555C00C4F8883063681F2B07DDD8F8000000F012
:10556C0047F84FF0FF30BDE8F8834EB3D4F888000D
:10557C0088B91C4B23B9D8F8000000F038F8F0E7D4
:10558C004FF48470FFF7B6F90028F4D00023C0E97B
:10559C004033C4F88800636840F8239001229A4095
:1055AC0000EB8301D0F800311343C0F80031022E18
:1055BC00C1F8807002BFD0F804311343C0F8043135
:1055CC006368D8F800005A1C0233626044F8235018
:1055DC0000F00EF80020C6E7E8E703205CE70320A4
:1055EC000000000001490B007CE603207047704767
:1055FC00704700001D400B0059400B0081400B0010
:10560C0085400B000000000000FF0000FFFF0000C1
:10561C0000FF330000FFFF000000FF00FF00FF0051
:10562C007700FF00FF000000FF22000000FF0000D9
:10563C000000FF00FF000000000000000000000060
:10564C00B7490B00AD490B00A3490B0059490B009E
:10565C0097490B008B490B00414C0B00494C0B003C
:10566C007F490B0077490B006D490B0063490B0018
:10567C00794C0B0000000000000000004F4A0B00AA
:10568C00454A0B003B4A0B00314A0B00254A0B00E4
:10569C00194A0B00414C0B00494C0B000D4A0B00F6
:1056AC00054A0B00FB490B00F1490B00794C0B0030
:1056BC0000000000000000006D4A0B00B74A0B0010
:1056CC008F4A0B006F4A0B00974A0B009F4A0B0046
:1056DC00A74A0B00AF4A0B000000000000000000BE
:1056EC00114B0B00014B0B00034B0B006170700056
:1056FC000000000000000000014C0B000B4C0B00E4
:10570C00154C0B001F4C0B00294C0B00354C0B009F
:10571C00414C0B00494C0B00514C0B005D4C0B00E9
:10572C00654C0B006F4C0B00794C0B0000081018EB
:10573C002028303825592D256D2D25645425483ABF
:10574C00254D3A2553257A0061736374696D6500A4
:10575C000000000000000000E14F0B004D500B005A
:10576C0025500B00654D0B00F54F0B0011500B0035
:10577C0003500B001F500B00E34F0B00E74F0B00C7
:10578C0000000000000000008B500B00F3500B00D9
:10579C00C9500B00654D0B00BB500B008D500B001E
:1057AC009D500B00ED500B00AD500B0085500B00C5
:1057BC00005245454E54206D616C6C6F63207375BF
:1057CC0063636565646564002F746D702F6A656E24
:1057DC006B696E732D4743432D31302D70697065A5
:1057EC006C696E652D34385F323032303131323481
:1057FC005F313630363138303633392F7372632F90
:10580C006E65776C69622F6E65776C69622F6C6957
:10581C0062632F7374646C69622F72616E642E63A1
:10582C0000000000E1420B0049490B00C1490B008C
:10583C00594A0B00F14B0B00514D0B00F94D0B006D
:10584C00A94F0B00CD4F0B00000000000000000022
:04585C000000000048
:10586000040000001400000003000000474E550033
:10587000E07076526EF822842819376A5992198D91
:0458800065EB6A0C5E
:045884000000000020
:1058880054570B001CE60320000000000000000035
:105898000000000000000000000000000000000000
:1058A80000000000000000000000000000000000F0
:1058B80000000000000000000000000000000000E0
:1058C80000000000000000000000000000000000D0
:1058D80000000000000000000000000000000000C0
:0C58E8000000000000000000ECE70320BE
:1058F400FFFFFFFF00000102030405060708090A71
:105904000B0C0D0E0F101112131415161718191A6B
:085914001B1C1D1E1F202800B2
:04591C007856341273
:04000003B000401CED
:00000001FF
