:02000002B0004C
:1040000000400B009C530B00000006000D00050251
:0840100004010410000000008F
:04401800AC500B009D
:10401C0009480A49884208B505D0094A824202D0AB
:10402C00121A00F08BFF0748074A0021121A00F001
:10403C0093FF014808BD00BF2CE6032008530B007A
:10404C0098E6032098E60320EDE7032070B5074EB1
:10405C00074C00F0B9FEA41BA4080025AC4200D10B
:10406C0070BD56F8043B98470135F7E7B4520B0086
:10407C00D4520B0000F021B808B500F02BF8BDE8C5
:10408C00084000F059BE00F041BA00F047BA007881
:10409C00B0FA80F0400970470123037070470EB4EA
:1040AC0003B503AB002153F8042B019300F0F9FC8A
:1040BC0002B05DF804EB03B0704708B500F0F4FDF6
:1040CC004FF4E13100F0E4FD00F0CCFEBDE8084017
:1040DC0000F020BB10B50D4C6221204600F03CF8DE
:1040EC002046622100F087F86221204600F071F82A
:1040FC006221204600F089F8054C208000F0D4FDA8
:10410C0022880449FFF7CBFF10BD00BF98E60320BF
:10411C009AE60320C0500B0037B50D469DF81810D9
:10412C0001931446009100F09DFE009900F028FBCD
:10413C0000F098FE036829469B68984700F092FEB1
:10414C000368019ADB682146984700F08BFE03B0A8
:10415C00BDE8304000F01BBB1FB504238DF80F30B9
:10416C00009101230DF10F020021FFF7D5FF05B0DF
:10417C005DF804FBF8B59DF8187015461C460E4604
:10418C0000F070FE394600F0FBFA00F06BFE03689D
:10419C0031469B68984700F065FE002100F0F3FA69
:1041AC0000F060FE2246394600F0E3FA00F05AFEB9
:1041BC0003681B69984784420ADC2C44A54207D04B
:1041CC0000F050FE03685B69984705F8010BF5E7B2
:1041DC00F8BD1FB500238DF80F30012300910DF1B0
:1041EC000F021946FFF7C6FF9DF80F0000F0010003
:1041FC0005B05DF804FB38B504460D46294620464B
:10420C00FFF7E7FF0028F9D138BD1FB50223009155
:10421C000DF10E021021FFF7ADFFBDF80E0005B039
:10422C005DF804FB08B5024B1B685B6C019308BD81
:10423C004802030008B5024B1B685B68019308BD7C
:10424C001802030008B5024B1B685B69019308BD9B
:10425C001802030008B5024B1B68DB68019308BD0C
:10426C002802030008B5024B1B689B69019308BD2B
:10427C002802030008B5024B1B68DB69019308BDDB
:10428C002802030008B5024B1B681B6A019308BD8A
:10429C002802030008B5024B1B685B6A019308BD3A
:1042AC002802030008B5024B1B689B6A019308BDEA
:1042BC002802030008B5024B1B68DB6A019308BD9A
:1042CC002802030008B5024B1B681B6B019308BD49
:1042DC002802030008B5024B1B681B6C019308BD38
:1042EC002802030008B5024B1B681B6D019308BD27
:1042FC002802030008B5024B1B685B69019308BDDB
:10430C006402030008B5024B1B689B68019308BD4F
:10431C006802030008B5024B1B68DB68019308BDFB
:10432C006802030008B5024B1B68DB68019308BDEB
:10433C003C02030008B5024B1B681B69019308BDC6
:10434C003C02030008B5024B1B685B69019308BD76
:10435C003C02030008B5024B1B689B69019308BD26
:10436C003C02030008B5024B1B68DB69019308BDD6
:10437C003C02030008B5024B1B689B6A019308BD05
:10438C003C02030008B5024B1B681B6C019308BD73
:10439C003C02030008B5024B1B681B68019308BD67
:1043AC004C02030008B5024B1B685B68019308BD07
:1043BC004C02030008B5024B1B681B69019308BD36
:1043CC004C02030008B5024B1B685B69019308BDE6
:1043DC004C02030008B5024B1B689B69019308BD96
:1043EC004C02030008B5024B1B68DB69019308BD46
:1043FC004C02030008B5024B1B681B6A019308BDF5
:10440C004C02030008B5024B1B685B68019308BDA6
:10441C002002030008B5034B1B68D3F888300193C6
:10442C0008BD00002002030008B5034B1B68D3F83D
:10443C009430019308BD00002002030008B5024B24
:10444C001B68DB6B019308BD4402030008B5024BEB
:10445C001B685B68019308BD4002030008B5024B62
:10446C001B689B68019308BD4002030008B5024B12
:10447C001B68DB68019308BD4002030008B5024BC2
:10448C001B681B69019308BD4002030008B5024B71
:10449C001B685B69019308BD4002030008B5024B21
:1044AC001B689B69019308BD4002030008B5024BD1
:1044BC001B68DB69019308BD4002030008B5024B81
:1044CC001B681B6A019308BD4002030008B5024B30
:1044DC001B681B6B019308BD4002030008B5024B1F
:1044EC001B685B6B019308BD4002030008B5024BCF
:1044FC001B681B6C019308BD4002030008B5024BFE
:10450C001B685B6C019308BD4002030008B5024BAD
:10451C001B681B68019308BD1C02030008B5024B05
:10452C001B685B68019308BD1C02030008B5024BB5
:10453C001B685B6A019308BD1C02030008B5024BA3
:10454C001B681B6C019308BD1C02030008B5024BD1
:10455C001B685B6C019308BD1C020300024800231E
:10456C000360FFF75FBE00BF9CE60320002240689B
:10457C001146FFF783BF002240681146FFF79EBF2C
:10458C00002240681146FFF7A9BF40680022FFF7E0
:10459C009DBF4068002281F00101FFF787BF002317
:1045AC0040681A461946FFF779BF002340681A463F
:1045BC001946FFF76BBF002240681146FFF74EBF4C
:1045CC00406800220221FFF751BF002340681A46C1
:1045DC00FFF73CBF084B10B5282422461846002193
:1045EC0000F0BAFC054B04804FF0FF32426004220D
:1045FC005A60034A1A6010BDA8E60320A0E6032007
:10460C00D8500B00002240681146FFF757BF00221C
:10461C0040681146FFF762BF40680022FFF756BFA3
:10462C004068002281F00101FFF740BF0023406881
:10463C001A461946FFF732BF002340681A4619463E
:10464C00FFF724BF002240681146FFF717BF002276
:10465C0040681146FFF702BF406800220221FFF7B5
:10466C0005BF002340681A46FFF7F0BE024B032239
:10467C005A60024A1A607047D0E6032014510B00AE
:10468C007047F8B5064615460C468F18BC4206D046
:10469C00336814F8011B9B6830469847F6E72846A8
:1046AC00F8BD007C0022FFF7EDBD007C0021FFF778
:1046BC00F1BD007C0021FFF7F5BD007C0021FFF768
:1046CC00F9BD007C0021FFF7FDBD10B51421044697
:1046DC00FFF7DBFC204610BD38B5044615464FF4F9
:1046EC007A730022C4E90123094B21740846236024
:1046FC002946FFF7EFFDBF3008D16B69DB0705D505
:10470C006868FFF70BFFE868FFF708FF204638BD25
:10471C0050510B000023007C1A461946FFF79ABD36
:10472C007FB500221423CDE90122ADF804300B78BB
:10473C008DF808304B680393CB680493007C0B7A9C
:10474C00059301A9FFF7CEFD07B05DF804FB1FB57B
:10475C00003B8DF800104FF06401039118BF01234A
:10476C00694601928DF80830FFF7DAFF05B05DF865
:10477C0004FB0123FFF7EBBF007C0022FFF772BDA7
:10478C00C9B2FFF7F9BF007C0022FFF773BD01210E
:10479C00FFF7F9BF704710B518210446FFF775FCF9
:1047AC00204610BDF0B5037D062B8DB00E4600F1F2
:1047BC0004074FF0000412D000F1080515F8011D94
:1047CC000A22304600F04FF9AF42044419D0002CB5
:1047DC00F4D02E21304600F037F90444EEE72F23B5
:1047EC006A4639460A208DF80040FFF783FD68467B
:1047FC0000F0E8FB33680246DB68694630469847B0
:10480C00044620460DB0F0BD10B5054B04461122F0
:10481C0040F8043B002100F09FFB204610BD00BF78
:10482C0078510B000346074A10B543F8042B01F1ED
:10483C00100251F8044B43F8044B9142F9D10A7819
:10484C001A7010BD78510B0010B59DF8084044EA61
:10485C00032343EA024242EA0161042341600375E7
:10486C0010BD000007B5064B0360CB7800938B7826
:10487C004A780978FFF7E8FF03B05DF804FB00BF46
:10488C0078510B00014B024A1A607047D8E603209E
:10489C0084510B00002340681A46FFF7D7BD4068CF
:1048AC0000220221FFF7E2BD002240681146FFF70B
:1048BC00D5BD002240681146FFF7E0BD00234068DB
:1048CC001A461946FFF7E2BD002340681A461946FE
:1048DC00FFF7E4BD40680021FFF708BE40680021E7
:1048EC00FFF70CBE4068002281F00101FFF7DEBD2E
:1048FC0040680022FFF7EABD002240681146FFF72E
:10490C00EDBD002240681146FFF7D8BD2DE9F043FC
:10491C0095B014460D460746FFF776FF00211C2282
:10492C000DA8009100F018FB40230C9320466B4619
:10493C000CAA0021FFF7EEFC044600284BD10246DE
:10494C0001216868FFF79AFD0221804622466868BB
:10495C00FFF794FD009E81462146002E3BD0002996
:10496C0039D17368022B03D00A2B11D0F669F4E706
:10497C00B8F1000FFAD0716906A8043107ADFFF742
:10498C0071FF0FCD3C1D0FC42B6823704146EDE722
:10499C00B9F1000FEAD07469102201A800F0DCFA1A
:1049AC0006238DF8143001AD04F10803183418688F
:1049BC0059682A4603C20833A3421546F7D101A908
:1049CC0006A807ADFFF72EFF0FCD3C1D0FC42B68BB
:1049DC0023704946CAE70098FFF794FC384615B097
:1049EC00BDE8F083024B034A1A6000225A607047FC
:1049FC00DCE6032090510B00F8B506460D468F18E7
:104A0C000024BD420CD0336815F8011B9B6830465E
:104A1C009847031E01DB1C44F3E7002C08BF1C461F
:104A2C002046F8BD13B50446084659B1019100F073
:104A3C00C9FA23680199DB680246204602B0BDE83A
:104A4C001040184702B010BD03689B68184738B572
:104A5C000D210546FFF7F8FF0A2104462846FFF70B
:104A6C00F3FF204438BD30B58BB00023012A8DF8FC
:104A7C00243098BF0A2209AC0D46B1FBF2F101FBC0
:104A8C00125303F0FF03092B94BF30333733DBB2DF
:104A9C00AA4204F8013DEFD92146FFF7C3FF0BB042
:104AAC0030BD2DE9F04186B000AF05460E46381DED
:104ABC00142114463B60FFF739FD13280ED8391D1D
:104ACC002846FFF7AFFF04461EB12846FFF7BFFF8D
:104ADC00044420461837BD46BDE8F08100F10803B8
:104AEC0023F00703E846ADEB030D2246411C3B685F
:104AFC006846FFF71BFD69462846FFF793FF0446FF
:104B0C00C546E1E7014B00229A607047E4E60320BA
:104B1C00054B02221A60054B054A9A600020C3E936
:104B2C000000FFF76FBC00BF00E70320F4E6032092
:104B3C000000FFFF024B1A68024B1A60704700BF5F
:104B4C002CE6032004E7032070474174704708B536
:104B5C00007CFFF70FFC20EAE07008BD08B5007C74
:104B6C00FFF7E8FB20EAE07008BD08B5007CFFF712
:104B7C00F1FB40EAE07008BD08B5007CFFF7E2FBF2
:104B8C0040EAE07008BD007CFFF7ECBB37B5457C14
:104B9C0004462DB1207C03B0BDE83040FFF7C2BB0A
:104BAC00007C0191FFF7E6FB00280199F2DC284616
:104BBC0003B030BD10B514210446FFF766FA204649
:104BCC0010BD000010B54FF47A7304460846114628
:104BDC000022C4E90123044B236001232074637475
:104BEC00FFF7D0FB204610BDE8510B004174704715
:104BFC007047704708B50021007CFFF7EBFB40EADB
:104C0C00E07008BD08B50121007CFFF7E3FB40EA2A
:104C1C00E07008BD08B5007CFFF7D4FB20EAE0701B
:104C2C0008BD08B5007CFFF7C5FB20EAE07008BDA5
:104C3C0013B50446007C0191FFF7C4FB00280199D1
:104C4C0001DC607C20B1207CFFF7CCFB20EAE0701B
:104C5C0002B010BD007CFFF7CDBB10B5142104468B
:104C6C00FFF713FA204610BD10B54FF47A730446C3
:104C7C0008460021C4E90113044B2360012320746E
:104C8C0063741146FFF786FB204610BD18520B00CB
:104C9C00007C0022FFF786BB10B5142204460021CD
:104CAC0000F05AF9204610BD10B50F4C88B003A87F
:104CBC00FFF7F2FF2178BFF35B8F11F001010FD1E9
:104CCC0020460191FFF7E3F9019948B103AA07487F
:104CDC00FFF7CAFF2046FFF7DFF9054800F028F977
:104CEC00024808B010BD00BF08E703200CE7032002
:104CFC00FD4B0B00014B1860704700BF30E60320E2
:104D0C0008B50B4B43B1FFF7CFFF03681B699847FE
:104D1C00002801DDAFF30080064B43B100F0E2F850
:104D2C0003681B699847002801DDAFF3008008BDBC
:104D3C00000000000000000008B5FFF7E1FFFFF7DE
:104D4C0081FA014B186008BD28E703200548064A84
:104D5C00064908B5121A00F0F1F8054B054A1A601D
:104D6C0008BD00BF00F4032004F4032004530B001F
:104D7C0000F403201E1C279A07B5002300931A4643
:104D8C006FF07701FFF750FB03B05DF804FB0000F8
:104D9C0007B543880A2B08D0502B0BD1094B1B6845
:104DAC004BB103B05DF804EB1847FFF7E5FF03B018
:104DBC005DF804FB002300931A466FF07701FFF7B0
:104DCC0033FBF4E724E7032010B512480021FFF76A
:104DDC00BDFB114B1A68114B9A42114B0CBF0122AF
:104DEC0000221A7001D0FFF7B1FFFFF723FA044637
:104DFC0000F0BAF80B4B13B12046AFF30080002142
:104E0C000848FFF71BFBBDE8104007480021FFF7DF
:104E1C0001BB00BF014D0B0000F403201E1C279AA0
:104E2C0020E70320000000009D4D0B0070470000A0
:104E3C0038B50A4B0360012304464361084920201E
:104E4C0000F074F8202560600549A560284600F044
:104E5C006DF8C4E90305204638BD00BF18000100F9
:104E6C0040520B0030B50E4D2978BFF35B8F11F01B
:104E7C00010487B011D12846FFF709F968B16846DB
:104E8C00FFF7D6FF6A4621460648FFF725FC284661
:104E9C00FFF702F9044800F04BF8024807B030BDA8
:104EAC002CE7032030E70320394E0B00704700003D
:104EBC0038B5044614252A46002100F04DF825800B
:104ECC004025074925812846258200F02FF8044902
:104EDC006060284600F02AF8E060204638BD00BF2C
:104EEC0040520B0030B50E4D2978BFF35B8F11F09B
:104EFC00010487B011D12846FFF7C9F868B101A8A1
:104F0C00FFF7D6FF01AA21460648FFF75BFE2846AD
:104F1C00FFF7C2F8044800F00BF8024807B030BDA8
:104F2C0044E7032048E70320B94E0B00FFF7ABB86A
:104F3C00002301461A46184600F04CB80A44914228
:104F4C0000F1FF3300D1704710B511F8014B03F895
:104F5C00014F9142F9D110BD02440346934200D156
:104F6C00704703F8011BF9E738B5104B1D68AB6BA4
:104F7C000446B3B91820FFF7C9FA0246A86320B952
:104F8C000B4B0C484221FFF7D9FA0B490B4BC0E9EC
:104F9C0000130B4B83600B23838100210120C2E99A
:104FAC000401AB6B00221C615A6138BD30E6032052
:104FBC0041520B0058520B000E33CDAB34126DE640
:104FCC00ECDE0500034613F8012B002AFBD1181A5E
:104FDC00013870472DE9F843DFF8B8800646D8F859
:104FEC0000001F460D46914600F056F8254B1C68F4
:104FFC0034B9254C1C60254B13B11B68C4F88830A0
:10500C0063681F2B07DDD8F8000000F047F84FF05D
:10501C00FF30BDE8F8834EB3D4F8880088B91C4B38
:10502C0023B9D8F8000000F038F8F0E74FF484709A
:10503C00FFF76CFA0028F4D00023C0E94033C4F821
:10504C008800636840F8239001229A4000EB8301AA
:10505C00D0F800311343C0F80031022EC1F8807033
:10506C0002BFD0F804311343C0F804316368D8F898
:10507C0000005A1C0233626044F8235000F00EF812
:10508C000020C6E7E8E703205CE7032000000000EF
:10509C0019450B0094E603207047704770470000D9
:1050AC001D400B0059400B0081400B0085400B004C
:1050BC000000000044697374616E6365203D202517
:1050CC00750A00000000000000000000D7450B002E
:1050DC00CD450B00C3450B0079450B00B7450B00C4
:1050EC00AB450B00E1480B00E9480B009F450B005A
:1050FC0097450B008D450B0083450B0019490B00A0
:10510C0000000000000000006F460B0065460B001D
:10511C005B460B0051460B0045460B0039460B0015
:10512C00E1480B00E9480B002D460B0025460B000F
:10513C001B460B0011460B0019490B000000000028
:10514C00000000008D460B00D7460B00AF460B004D
:10515C008F460B00B7460B00BF460B00C7460B0033
:10516C00CF460B000000000000000000B1470B0010
:10517C00A1470B00A3470B006170700000000000FA
:10518C0000000000A1480B00AB480B00B5480B0019
:10519C00BF480B00C9480B00D5480B00E1480B0079
:1051AC00E9480B00F1480B00FD480B0005490B00CA
:1051BC000F490B0019490B0025592D256D2D256420
:1051CC005425483A254D3A2553257A00617363746A
:1051DC00696D65000000000000000000554B0B00DD
:1051EC00C14B0B00994B0B00054A0B00694B0B0094
:1051FC00854B0B00774B0B00934B0B00574B0B0065
:10520C005B4B0B000000000000000000FF4B0B008C
:10521C00674C0B003D4C0B00054A0B002F4C0B0050
:10522C00014C0B00114C0B00614C0B00214C0B0082
:10523C00F94B0B00005245454E54206D616C6C6F60
:10524C006320737563636565646564002F746D70AA
:10525C002F6A656E6B696E732D4743432D31302D6C
:10526C00706970656C696E652D34385F3230323020
:10527C00313132345F313630363138303633392FC4
:10528C007372632F6E65776C69622F6E65776C69CC
:10529C00622F6C6962632F7374646C69622F726124
:1052AC006E642E630000000069450B00E1450B00A5
:1052BC0079460B0091480B00F1490B00114B0B0088
:1052CC001D4B0B00414B0B000000000000000000C8
:0452DC0000000000CE
:1052E000040000001400000003000000474E5500B9
:1052F0000E500A2DC03CA9D04306C5F712641F3BCF
:0453000068D36CB052
:0453040000000000A5
:10530800D8510B0034E60320000000000000000024
:105318000000000000000000000000000000000085
:105328000000000000000000000000000000000075
:105338000000000000000000000000000000000065
:105348000000000000000000000000000000000055
:105358000000000000000000000000000000000045
:0C5368000000000000000000ECE7032043
:10537400FFFFFFFF00000102030405060708090AF6
:105384000B0C0D0E0F101112131415161718191AF1
:085394001B1C1D1E1F20280038
:04539C0078563412F9
:04000003B000401CED
:00000001FF
