:02000002B0004C
:1040000000400B005C550B00000006000D0005028F
:0840100004010410000000008F
:044018004C520B00FB
:10401C0009480A49884208B505D0094A824202D0AB
:10402C00121A01F05BF80748074A0021121A01F036
:10403C0063F8014808BD00BFECE50320C8540B0031
:10404C0058E6032058E60320EDE7032070B5074E31
:10405C00074C00F089FFA41BA4080025AC4200D13A
:10406C0070BD56F8043B98470135F7E774540B00C4
:10407C0098540B0000F022B808B500F035F8BDE8F4
:10408C00084000F029BF00F0FFBA00F005BB007833
:10409C00B0FA80F0400970470123037070470EB4EA
:1040AC0003B503AB002153F8042B019300F0C9FDB9
:1040BC0002B05DF804EB03B07047000010B500F0DF
:1040CC00C3FE4FF4165100F0B3FE00F09BFF00F05E
:1040DC00E7FBBDE81040034862230122002100F0F9
:1040EC00A9B800BF58E603201FB50F486223002271
:1040FC00032100F02BF862240121CDE900140B4BB5
:10410C0009481B680A4600F0ADF822460121064812
:10411C0000F018F9039000F097FE039A0449FFF79A
:10412C00BEFF04B010BD00BF58E603205CE60320C0
:10413C0060520B00014800F007B800BF58E603209E
:10414C000368C9B29B6818477047000037B514461E
:10415C0001930D4600F056FF019900F0D7FB00F0DB
:10416C0051FF2946FFF7ECFF00F04CFF2146FFF70B
:10417C00E7FF00F047FF00F0D0FB20B100F064FE39
:10418C00044900F036FD012003B0BDE8304000F0DA
:10419C00A3BA00BF78520B0007B51346052946D8C1
:1041AC00DFE801F003181B2427360193802202213B
:1041BC000090FFF7CBFF019B082200980421FFF72A
:1041CC00C5FF019B002200981C2103B05DF804EB95
:1041DC00FFF7BCBF01931D22E9E780220221019366
:1041EC000090FFF7B3FF019B0022E6E70193FF224B
:1041FC00DDE78022022101930090FFF7A7FF019BCE
:10420C00009808220421FFF7A1FF019B8022DAE726
:10421C008022022101930090FFF798FF019B0098E8
:10422C0008220421FFF792FF019BB022CBE703B0D9
:10423C005DF804FBF8B517460D461E46044600F023
:10424C00E1FE00F02DFB27B100F0DCFE044900F08C
:10425C0023FB324629462046BDE8F840FFF79CBFB9
:10426C00801A06002DE9F8431E469DF820309DF873
:10427C0024500F461446002B58D100F0C3FE29469B
:10428C0000F044FB00F0BEFE3946FFF759FF00F08A
:10429C00B9FE00F042FB20B100F0D6FD274900F03A
:1042AC00A8FC00F0AFFE2246294600F028FB00F0E7
:1042BC00A9FE03681B699847A0423CDB0025A54278
:1042CC0039DA00F09FFE03685B6998477055013539
:1042DC00F5E70028D1D000F095FE294600F016FB3A
:1042EC0000F090FE0121FFF72BFF00F08BFE00F099
:1042FC0014FB20B100F0A8FD494600F07AFC00F058
:10430C0081FE0122294600F0FAFA00F07BFE0368D8
:10431C005B699847B8F1010800F00100D9D100F0B1
:10432C0093FDBDE8F843064900F063BCDFF80C9040
:10433C0042F21078CFE7BDE8F88300BF78520B004B
:10434C007F520B0030B5134685B005461446A1B11B
:10435C0004220021FFF7FAFE01230093284603AB49
:10436C00019402228F21FFF77DFF9DF80C009DF830
:10437C000D3003EB002005B030BD0322EAE700004E
:10438C0008B5024B1B685B6C019308BD4802030027
:10439C0008B5024B1B685B68019308BD180203004B
:1043AC0008B5024B1B685B69019308BD180203003A
:1043BC0008B5024B1B681B68019308BD280203005B
:1043CC0008B5024B1B68DB68019308BD280203008B
:1043DC0008B5024B1B689B69019308BD28020300BA
:1043EC0008B5024B1B68DB69019308BD280203006A
:1043FC0008B5024B1B681B6A019308BD2802030019
:10440C0008B5024B1B685B6A019308BD28020300C8
:10441C0008B5024B1B689B6A019308BD2802030078
:10442C0008B5024B1B68DB6A019308BD2802030028
:10443C0008B5024B1B681B6B019308BD28020300D7
:10444C0008B5024B1B681B6C019308BD28020300C6
:10445C0008B5024B1B681B6D019308BD28020300B5
:10446C0008B5024B1B685B69019308BD640203002D
:10447C0008B5024B1B689B68019308BD68020300DA
:10448C0008B5024B1B68DB68019308BD680203008A
:10449C0008B5024B1B68DB68019308BD3C020300A6
:1044AC0008B5024B1B681B69019308BD3C02030055
:1044BC0008B5024B1B685B69019308BD3C02030005
:1044CC0008B5024B1B689B69019308BD3C020300B5
:1044DC0008B5024B1B68DB69019308BD3C02030065
:1044EC0008B5024B1B689B6A019308BD3C02030094
:1044FC0008B5024B1B681B6C019308BD3C02030002
:10450C0008B5024B1B681B68019308BD4C020300E5
:10451C0008B5024B1B685B68019308BD4C02030095
:10452C0008B5024B1B681B69019308BD4C020300C4
:10453C0008B5024B1B685B69019308BD4C02030074
:10454C0008B5024B1B689B69019308BD4C02030024
:10455C0008B5024B1B68DB69019308BD4C020300D4
:10456C0008B5024B1B681B6A019308BD4C02030083
:10457C0008B5024B1B685B68019308BD2002030061
:10458C0008B5024B1B685B69019308BD2002030050
:10459C0008B5034B1B68D3F88830019308BD0000A5
:1045AC002002030008B5034B1B68D3F89430019329
:1045BC0008BD00002002030008B5024B1B68DB6B32
:1045CC00019308BD4402030008B5024B1B685B68ED
:1045DC00019308BD4002030008B5024B1B689B68A1
:1045EC00019308BD4002030008B5024B1B68DB6851
:1045FC00019308BD4002030008B5024B1B681B6900
:10460C00019308BD4002030008B5024B1B685B69AF
:10461C00019308BD4002030008B5024B1B689B695F
:10462C00019308BD4002030008B5024B1B68DB690F
:10463C00019308BD4002030008B5024B1B681B6ABE
:10464C00019308BD4002030008B5024B1B681B6BAD
:10465C00019308BD4002030008B5024B1B685B6B5D
:10466C00019308BD4002030008B5024B1B681B6C8C
:10467C00019308BD4002030008B5024B1B685B6C3C
:10468C00019308BD4002030008B5024B1B681B6870
:10469C00019308BD1C02030008B5024B1B685B6844
:1046AC00019308BD1C02030008B5024B1B685B6A32
:1046BC00019308BD1C02030008B5024B1B681B6C60
:1046CC00019308BD1C02030008B5024B1B685B6C10
:1046DC00019308BD1C0203000021FFF751BF00002D
:1046EC00024800230360FFF74BBE00BF9CE603208B
:1046FC00002240681146FFF77FBF00224068114638
:10470C00FFF79ABF002240681146FFF7A5BF40682B
:10471C000022FFF799BF4068002281F00101FFF7EA
:10472C0083BF002340681A461946FFF775BF002364
:10473C0040681A461946FFF767BF002240681146C9
:10474C00FFF74ABF406800220221FFF74DBF00234C
:10475C0040681A46FFF738BF084B10B5282422468C
:10476C001846002100F0C8FC054B04804FF0FF32C6
:10477C00426004225A60034A1A6010BDA8E6032066
:10478C00A0E6032098520B00002240681146FFF768
:10479C0053BF002240681146FFF75EBF40680022FD
:1047AC00FFF752BF4068002281F00101FFF73CBFC8
:1047BC00002340681A461946FFF72EBF00234068B5
:1047CC001A461946FFF720BF002240681146FFF732
:1047DC0013BF002240681146FFF7FEBE406800225E
:1047EC000221FFF701BF002340681A46FFF7ECBE19
:1047FC00024B03225A60024A1A607047D0E603202B
:10480C00D4520B007047F8B5064615460C468F1867
:10481C00BC4206D0336814F8011B9B68304698479D
:10482C00F6E72846F8BD007C0022FFF7E1BD007CCE
:10483C000021FFF7E5BD007C0021FFF7E9BD007CFE
:10484C000021FFF7EDBD007C0021FFF7F1BD10B595
:10485C0014210446FFF719FC204610BD38B5044658
:10486C0015464FF47A730022C4E90123094B2174D5
:10487C00084623602946FFF7E3FDBF3008D16B697A
:10488C00DB0705D56868FFF707FFE868FFF704FF4B
:10489C00204638BD10530B00007C0022FFF788BD6A
:1048AC000023007C1A461946FFF78ABD7FB500220B
:1048BC001423CDE90122ADF804300B788DF80830C3
:1048CC004B680393CB680493007C0B7A059301A986
:1048DC00FFF7BEFD07B05DF804FB1FB5003B8DF87C
:1048EC0000104FF06401039118BF01236946019237
:1048FC008DF80830FFF7DAFF05B05DF804FB0123F3
:10490C00FFF7EBBF007C0022FFF762BDC9B2FFF7D7
:10491C00F9BF007C0022FFF763BD0121FFF7F9BF4F
:10492C00704710B518210446FFF7AFFB204610BDA9
:10493C00F0B5037D062B8DB00E4600F104074FF049
:10494C00000412D000F1080515F8011D0A223046AA
:10495C0000F059F9AF42044419D0002CF4D02E21A8
:10496C00304600F037F90444EEE72F236A46394607
:10497C000A208DF80040FFF773FD684600F0F2FB4B
:10498C0033680246DB686946304698470446204641
:10499C000DB0F0BD10B5054B0446112240F8043B98
:1049AC00002100F0A9FB204610BD00BF38530B00BE
:1049BC000346074A10B543F8042B01F1100251F8D5
:1049CC00044B43F8044B9142F9D10A781A7010BD8C
:1049DC0038530B0010B59DF8084044EA032343EA12
:1049EC00024242EA016104234160037510BD0000DC
:1049FC0007B5064B0360CB7800938B784A7809781F
:104A0C00FFF7E8FF03B05DF804FB00BF38530B0061
:104A1C00014B024A1A607047D8E6032044530B003E
:104A2C00002340681A46FFF7CFBD406800220221E0
:104A3C00FFF7DABD002240681146FFF7CDBD00221A
:104A4C0040681146FFF7D8BD002340681A46194646
:104A5C00FFF7DABD002340681A461946FFF7DCBDA4
:104A6C0040680021FFF700BE40680021FFF704BE3C
:104A7C004068002281F00101FFF7D6BD406800229A
:104A8C00FFF7E2BD002240681146FFF7E5BD0022AA
:104A9C0040681146FFF7D0BD2DE9F04395B01446A0
:104AAC000D460746FFF776FF00211C220DA800914A
:104ABC0000F022FB40230C9320466B460CAA0021ED
:104ACC00FFF7DEFC044600284BD102460121686842
:104ADC00FFF792FD0221804622466868FFF78CFDA5
:104AEC00009E81462146002E3BD0002939D17368A7
:104AFC00022B03D00A2B11D0F669F4E7B8F1000FA2
:104B0C00FAD0716906A8043107ADFFF771FF0FCD1C
:104B1C003C1D0FC42B6823704146EDE7B9F1000F23
:104B2C00EAD07469102201A800F0E6FA06238DF889
:104B3C00143001AD04F108031834186859682A467A
:104B4C0003C20833A3421546F7D101A906A807AD45
:104B5C00FFF72EFF0FCD3C1D0FC42B682370494669
:104B6C00CAE70098FFF784FC384615B0BDE8F0831F
:104B7C00024B034A1A6000225A607047DCE603209D
:104B8C0050530B00F8B506460D468F180024BD4255
:104B9C000CD0336815F8011B9B6830469847031EF0
:104BAC0001DB1C44F3E7002C08BF1C462046F8BD73
:104BBC0013B50446084659B1019100F0D3FA2368A5
:104BCC000199DB680246204602B0BDE81040184748
:104BDC0002B010BD03689B68184738B50D21054617
:104BEC00FFF7F8FF0A2104462846FFF7F3FF20449D
:104BFC0038BD38B50546FFF7DBFF04462846FFF7FE
:104C0C00ECFF204438BD30B58BB00023012A8DF861
:104C1C00243098BF0A2209AC0D46B1FBF2F101FB1E
:104C2C00125303F0FF03092B94BF30333733DBB23D
:104C3C00AA4204F8013DEFD92146FFF7B9FF0BB0AA
:104C4C0030BD2DE9F04186B000AF05460E46381D4B
:104C5C00142114463B60FFF727FD13280ED8391D8D
:104C6C002846FFF7A5FF04461EB12846FFF7B5FFFF
:104C7C00044420461837BD46BDE8F08100F1080316
:104C8C0023F00703E846ADEB030D2246411C3B68BD
:104C9C006846FFF709FD69462846FFF789FF044679
:104CAC00C546E1E7014B00229A607047E4E6032019
:104CBC00054B02221A60054B054A9A600020C3E995
:104CCC000000FFF755BC00BF00E70320F4E603200B
:104CDC000000FFFF024B1A68024B1A60704700BFBE
:104CEC00ECE5032004E7032070474174704708B5D6
:104CFC00007CFFF7F5FB20EAE07008BD08B5007CEE
:104D0C00FFF7CEFB20EAE07008BD08B5007CFFF78A
:104D1C00D7FB40EAE07008BD08B5007CFFF7C8FB84
:104D2C0040EAE07008BD007CFFF7D2BB37B5457C8C
:104D3C0004462DB1207C03B0BDE83040FFF7A8BB82
:104D4C00007C0191FFF7CCFB00280199F2DC28468E
:104D5C0003B030BD10B514210446FFF796F9204678
:104D6C0010BD000010B54FF47A7304460846114686
:104D7C000022C4E90123044B2360012320746374D3
:104D8C00FFF7B6FB204610BDA8530B0041747047CB
:104D9C007047704708B50021007CFFF7D1FB40EA53
:104DAC00E07008BD08B50121007CFFF7C9FB40EAA3
:104DBC00E07008BD08B5007CFFF7BAFB20EAE07094
:104DCC0008BD08B5007CFFF7ABFB20EAE07008BD1E
:104DDC0013B50446007C0191FFF7AAFB002801994A
:104DEC0001DC607C20B1207CFFF7B2FB20EAE07094
:104DFC0002B010BD007CFFF7B3BB10B51421044604
:104E0C00FFF743F9204610BD10B54FF47A730446F2
:104E1C0008460021C4E90113044B236001232074CC
:104E2C0063741146FFF76CFB204610BDD8530B0082
:104E3C00007C0022FFF76CBB10B514220446002145
:104E4C0000F05AF9204610BD10B50F4C88B003A8DD
:104E5C00FFF7F2FF2178BFF35B8F11F001010FD147
:104E6C0020460191FFF713F9019948B103AA0748AD
:104E7C00FFF7CAFF2046FFF70FF9054800F028F9A5
:104E8C00024808B010BD00BF08E703200CE7032060
:104E9C009D4D0B00014B1860704700BFF0E50320DF
:104EAC0008B50B4B43B1FFF7CFFF03681B6998475D
:104EBC00002801DDAFF30080064B43B100F0E2F8AF
:104ECC0003681B699847002801DDAFF3008008BD1B
:104EDC00000000000000000008B5FFF7E1FFFFF73D
:104EEC005FFA014B186008BD28E703200548064A05
:104EFC00064908B5121A00F0F1F8054B054A1A607C
:104F0C0008BD00BF00F4032004F40320C4540B00BC
:104F1C0000F403201E1C279A07B5002300931A46A1
:104F2C006FF07701FFF73EFB03B05DF804FB000068
:104F3C0007B543880A2B08D0502B0BD1094B1B68A3
:104F4C004BB103B05DF804EB1847FFF7E5FF03B076
:104F5C005DF804FB002300931A466FF07701FFF70E
:104F6C0021FBF4E724E7032010B512480021FFF7DA
:104F7C00ABFB114B1A68114B9A42114B0CBF01221F
:104F8C0000221A7001D0FFF7B1FFFFF701FA0446B7
:104F9C0000F0BAF80B4B13B12046AFF300800021A0
:104FAC000848FFF709FBBDE8104007480021FFF750
:104FBC00EFBA00BFA14E0B0000F403201E1C279A71
:104FCC0020E70320000000003D4F0B00704700005D
:104FDC0038B50A4B0360012304464361084920207D
:104FEC0000F074F8202560600549A560284600F0A3
:104FFC006DF8C4E90305204638BD00BF1800010058
:10500C0000540B0030B50E4D2978BFF35B8F11F0B7
:10501C00010487B011D12846FFF739F868B168460A
:10502C00FFF7D6FF6A4621460648FFF717FC2846CD
:10503C00FFF732F8044800F04BF8024807B030BDD7
:10504C002CE7032030E70320D94F0B0070470000FA
:10505C0038B5044614252A46002100F04DF8258069
:10506C004025074925812846258200F02FF8044960
:10507C006060284600F02AF8E060204638BD00BF8A
:10508C0000540B0030B50E4D2978BFF35B8F11F037
:10509C00010487B011D12846FEF7F9FF68B101A8C9
:1050AC00FFF7D6FF01AA21460648FFF75BFE28460C
:1050BC00FEF7F2FF044800F00BF8024807B030BDD1
:1050CC0044E7032048E7032059500B00FEF7DBBFF1
:1050DC00002301461A46184600F04CB80A44914287
:1050EC0000F1FF3300D1704710B511F8014B03F8F4
:1050FC00014F9142F9D110BD02440346934200D1B5
:10510C00704703F8011BF9E738B5104B1D68AB6B02
:10511C000446B3B91820FFF7B7FA0246A86320B9C2
:10512C000B4B0C484221FFF7C7FA0B490B4BC0E95C
:10513C0000130B4B83600B23838100210120C2E9F8
:10514C000401AB6B00221C615A6138BDF0E50320F1
:10515C0001540B0018540B000E33CDAB34126DE61A
:10516C00ECDE0500034613F8012B002AFBD1181ABC
:10517C00013870472DE9F843DFF8B8800646D8F8B7
:10518C0000001F460D46914600F056F8254B1C6852
:10519C0034B9254C1C60254B13B11B68C4F88830FE
:1051AC0063681F2B07DDD8F8000000F047F84FF0BC
:1051BC00FF30BDE8F8834EB3D4F8880088B91C4B97
:1051CC0023B9D8F8000000F038F8F0E74FF48470F9
:1051DC00FFF75AFA0028F4D00023C0E94033C4F892
:1051EC008800636840F8239001229A4000EB830109
:1051FC00D0F800311343C0F80031022EC1F8807092
:10520C0002BFD0F804311343C0F804316368D8F8F6
:10521C0000005A1C0233626044F8235000F00EF870
:10522C000020C6E7E8E703205CE70320000000004D
:10523C0095460B0054E603207047704770470000FA
:10524C001D400B0059400B0081400B0085400B00AA
:10525C000000000044697374616E6365204D6561E4
:10526C007375726564203D2025690A003E206E61CD
:10527C00636B003E2072656164206661696C6564D5
:10528C000000000000000000000000005B470B0065
:10529C0051470B0047470B00FD460B003B470B00EB
:1052AC002F470B006D4A0B00754A0B0023470B0070
:1052BC001B470B0011470B0007470B00A54A0B00BF
:1052CC000000000000000000F3470B00E9470B0052
:1052DC00DF470B00D5470B00C9470B00BD470B0040
:1052EC006D4A0B00754A0B00B1470B00A9470B0028
:1052FC009F470B0095470B00A54A0B0000000000D0
:10530C000000000011480B005B480B0033480B00F9
:10531C0013480B003B480B0043480B004B480B0059
:10532C0053480B0000000000000000003D490B003A
:10533C002D490B002F490B0061707000000000001C
:10534C00000000002D4A0B00374A0B00414A0B00AD
:10535C004B4A0B00554A0B00614A0B006D4A0B007F
:10536C00754A0B007D4A0B00894A0B00914A0B00D1
:10537C009B4A0B00A54A0B0025592D256D2D256444
:10538C005425483A254D3A2553257A0061736374A8
:10539C00696D65000000000000000000F54C0B007A
:1053AC00614D0B00394D0B00914B0B00094D0B005F
:1053BC00254D0B00174D0B00334D0B00F74C0B001C
:1053CC00FB4C0B0000000000000000009F4D0B0088
:1053DC00074E0B00DD4D0B00914B0B00CF4D0B001E
:1053EC00A14D0B00B14D0B00014E0B00C14D0B003C
:1053FC00994D0B00005245454E54206D616C6C6FFD
:10540C006320737563636565646564002F746D70E8
:10541C002F6A656E6B696E732D4743432D31302DAA
:10542C00706970656C696E652D34385F323032305E
:10543C00313132345F313630363138303633392F02
:10544C007372632F6E65776C69622F6E65776C690A
:10545C00622F6C6962632F7374646C69622F726162
:10546C006E642E630000000041410B00ED460B0002
:10547C0065470B00FD470B001D4A0B007D4B0B00D5
:10548C00B14C0B00BD4C0B00E14C0B0000000000BC
:04549C00000000000C
:1054A000040000001400000003000000474E5500F7
:1054B00077DC2315623DE0C060D4576D560E09BEFF
:0454C000AA1BE71A22
:0454C40000000000E4
:1054C80098530B00F4E503200000000000000000E2
:1054D80000000000000000000000000000000000C4
:1054E80000000000000000000000000000000000B4
:1054F80000000000000000000000000000000000A4
:105508000000000000000000000000000000000093
:105518000000000000000000000000000000000083
:0C5528000000000000000000ECE7032081
:10553400FFFFFFFF00000102030405060708090A34
:105544000B0C0D0E0F101112131415161718191A2F
:085554001B1C1D1E1F20280076
:04555C007856341237
:04000003B000401CED
:00000001FF
