:02000002B0004C
:1040000000400B007C530B00000006000D00050271
:0840100004010410000000008F
:0440180084500B00C5
:10401C0009480A49884208B505D0094A824202D0AB
:10402C00121A00F077FF0748074A0021121A00F015
:10403C007FFF014808BD00BF2CE60320E8520B00AF
:10404C0098E6032098E60320EDE7032070B5074EB1
:10405C00074C00F0A5FEA41BA4080025AC4200D11F
:10406C0070BD56F8043B98470135F7E794520B00A6
:10407C00B4520B0000F022B808B500F02FF8BDE8E0
:10408C00084000F045BE00F033BA00F039BA0078B1
:10409C00B0FA80F0400970470123037070470EB4EA
:1040AC0003B503AB002153F8042B019300F0E5FC9E
:1040BC0002B05DF804EB03B07047000008B500F0E7
:1040CC00DFFD4FF4165100F0CFFDBDE8084002486B
:1040DC00622100F03BB800BF98E6032007B5094801
:1040EC00622100F082F86221064800F088F8019005
:1040FC0000F0C6FD019A0449FFF7D1FF03B05DF84B
:10410C0004FB00BF98E6032098500B0037B50D4612
:10411C009DF8181001931446009100F08FFE009941
:10412C0000F01AFB00F08AFE036829469B6898474A
:10413C0000F084FE0368019ADB682146984700F082
:10414C007DFE03B0BDE8304000F00DBB1FB504236D
:10415C008DF80F30009101230DF10F020021FFF7B4
:10416C00D5FF05B05DF804FBF8B59DF81870154641
:10417C001C460E4600F062FE394600F0EDFA00F0E7
:10418C005DFE036831469B68984700F057FE00219E
:10419C0000F0E5FA00F052FE2246394600F0D5FA5E
:1041AC0000F04CFE03681B69984784420ADC2C44DF
:1041BC00A54207D000F042FE03685B69984705F8FA
:1041CC00010BF5E7F8BD1FB500238DF80F30012367
:1041DC0000910DF10F021946FFF7C6FF9DF80F0075
:1041EC0000F0010005B05DF804FB38B504460D463F
:1041FC0029462046FFF7E7FF0028F9D138BD1FB547
:10420C00022300910DF10E021021FFF7ADFFBDF856
:10421C000E0005B05DF804FB08B5024B1B685B6C27
:10422C00019308BD4802030008B5024B1B685B688C
:10423C00019308BD1802030008B5024B1B685B69AB
:10424C00019308BD1802030008B5024B1B689B695B
:10425C00019308BD2802030008B5024B1B68DB69FB
:10426C00019308BD2802030008B5024B1B681B6AAA
:10427C00019308BD2802030008B5024B1B685B6A5A
:10428C00019308BD2802030008B5024B1B689B6A0A
:10429C00019308BD2802030008B5024B1B68DB6ABA
:1042AC00019308BD2802030008B5024B1B681B6B69
:1042BC00019308BD2802030008B5024B1B681B6C58
:1042CC00019308BD2802030008B5024B1B681B6D47
:1042DC00019308BD2802030008B5024B1B685B69FB
:1042EC00019308BD6402030008B5024B1B689B6870
:1042FC00019308BD6802030008B5024B1B68DB681C
:10430C00019308BD6802030008B5024B1B68DB680B
:10431C00019308BD3C02030008B5024B1B681B69E6
:10432C00019308BD3C02030008B5024B1B685B6996
:10433C00019308BD3C02030008B5024B1B689B6946
:10434C00019308BD3C02030008B5024B1B68DB69F6
:10435C00019308BD3C02030008B5024B1B689B6A25
:10436C00019308BD3C02030008B5024B1B681B6C93
:10437C00019308BD3C02030008B5024B1B681B6887
:10438C00019308BD4C02030008B5024B1B685B6827
:10439C00019308BD4C02030008B5024B1B681B6956
:1043AC00019308BD4C02030008B5024B1B685B6906
:1043BC00019308BD4C02030008B5024B1B689B69B6
:1043CC00019308BD4C02030008B5024B1B68DB6966
:1043DC00019308BD4C02030008B5024B1B681B6A15
:1043EC00019308BD4C02030008B5024B1B685B68C7
:1043FC00019308BD2002030008B5034B1B68D3F8DA
:10440C008830019308BD00002002030008B5034B5F
:10441C001B68D3F89430019308BD00002002030000
:10442C0008B5024B1B68DB6B019308BD440203000B
:10443C0008B5024B1B685B68019308BD4002030082
:10444C0008B5024B1B689B68019308BD4002030032
:10445C0008B5024B1B68DB68019308BD40020300E2
:10446C0008B5024B1B681B69019308BD4002030091
:10447C0008B5024B1B685B69019308BD4002030041
:10448C0008B5024B1B689B69019308BD40020300F1
:10449C0008B5024B1B68DB69019308BD40020300A1
:1044AC0008B5024B1B681B6A019308BD4002030050
:1044BC0008B5024B1B681B6B019308BD400203003F
:1044CC0008B5024B1B685B6B019308BD40020300EF
:1044DC0008B5024B1B681B6C019308BD400203001E
:1044EC0008B5024B1B685B6C019308BD40020300CE
:1044FC0008B5024B1B681B68019308BD1C02030026
:10450C0008B5024B1B685B68019308BD1C020300D5
:10451C0008B5024B1B685B6A019308BD1C020300C3
:10452C0008B5024B1B681B6C019308BD1C020300F1
:10453C0008B5024B1B685B6C019308BD1C020300A1
:10454C00024800230360FFF767BE00BF9CE6032010
:10455C00002240681146FFF783BF002240681146D5
:10456C00FFF79EBF002240681146FFF7A9BF4068C5
:10457C000022FFF79DBF4068002281F00101FFF788
:10458C0087BF002340681A461946FFF779BF0023FE
:10459C0040681A461946FFF76BBF00224068114667
:1045AC00FFF74EBF406800220221FFF751BF0023E6
:1045BC0040681A46FFF73CBF084B10B5282422462A
:1045CC001846002100F0B4FC054B04804FF0FF327C
:1045DC00426004225A60034A1A6010BDA8E6032008
:1045EC00A0E60320B8500B00002240681146FFF7EC
:1045FC0057BF002240681146FFF762BF4068002297
:10460C00FFF756BF4068002281F00101FFF740BF61
:10461C00002340681A461946FFF732BF0023406852
:10462C001A461946FFF724BF002240681146FFF7CF
:10463C0017BF002240681146FFF702BF40680022F6
:10464C000221FFF705BF002340681A46FFF7F0BEB2
:10465C00024B03225A60024A1A607047D0E60320CC
:10466C00F4500B007047F8B5064615460C468F18EB
:10467C00BC4206D0336814F8011B9B68304698473F
:10468C00F6E72846F8BD007C0022FFF7EDBD007C64
:10469C000021FFF7F1BD007C0021FFF7F5BD007C88
:1046AC000021FFF7F9BD007C0021FFF7FDBD10B51F
:1046BC0014210446FFF7E9FC204610BD38B504462A
:1046CC0015464FF47A730022C4E90123094B217477
:1046DC00084623602946FFF7EFFDBF3008D16B6910
:1046EC00DB0705D56868FFF70BFFE868FFF708FFE5
:1046FC00204638BD30510B007FB500221423CDE984
:10470C000122ADF804300B788DF808304B68039318
:10471C00CB680493007C0B7A059301A9FFF7D4FDB9
:10472C0007B05DF804FB1FB5003B8DF800104FF08F
:10473C006401039118BF0123694601928DF808307A
:10474C00FFF7DAFF05B05DF804FB0123FFF7EBBFC1
:10475C00007C0022FFF778BDC9B2FFF7F9BF007CDF
:10476C000022FFF779BD0121FFF7F9BF704710B5A3
:10477C0018210446FFF789FC204610BDF0B5037DD7
:10478C00062B8DB00E4600F104074FF0000412D03A
:10479C0000F1080515F8011D0A22304600F04FF90A
:1047AC00AF42044419D0002CF4D02E21304600F036
:1047BC0037F90444EEE72F236A4639460A208DF870
:1047CC000040FFF789FD684600F0E8FB33680246BD
:1047DC00DB68694630469847044620460DB0F0BD6C
:1047EC0010B5054B0446112240F8043B002100F0A3
:1047FC009FFB204610BD00BF58510B000346074AD3
:10480C0010B543F8042B01F1100251F8044B43F896
:10481C00044B9142F9D10A781A7010BD58510B0013
:10482C0010B59DF8084044EA032343EA024242EAE9
:10483C00016104234160037510BD000007B5064BF0
:10484C000360CB7800938B784A780978FFF7E8FF00
:10485C0003B05DF804FB00BF58510B00014B024A3A
:10486C001A607047D8E6032064510B00002340689F
:10487C001A46FFF7DDBD406800220221FFF7E8BDB4
:10488C00002240681146FFF7DBBD0022406811464C
:10489C00FFF7E6BD002340681A461946FFF7E8BD4E
:1048AC00002340681A461946FFF7EABD406800210C
:1048BC00FFF70EBE40680021FFF712BE40680022D1
:1048CC0081F00101FFF7E4BD40680022FFF7F0BD65
:1048DC00002240681146FFF7F3BD002240681146E4
:1048EC00FFF7DEBD2DE9F04395B014460D460746A3
:1048FC00FFF776FF00211C220DA8009100F018FB99
:10490C0040230C9320466B460CAA0021FFF7F4FCC5
:10491C00044600284BD1024601216868FFF7A0FD30
:10492C000221804622466868FFF79AFD009E814668
:10493C002146002E3BD0002939D17368022B03D0BD
:10494C000A2B11D0F669F4E7B8F1000FFAD07169AF
:10495C0006A8043107ADFFF771FF0FCD3C1D0FC446
:10496C002B6823704146EDE7B9F1000FEAD074696A
:10497C00102201A800F0DCFA06238DF8143001ADEA
:10498C0004F108031834186859682A4603C208331E
:10499C00A3421546F7D101A906A807ADFFF72EFFD4
:1049AC000FCD3C1D0FC42B6823704946CAE70098F5
:1049BC00FFF79AFC384615B0BDE8F083024B034A6A
:1049CC001A6000225A607047DCE6032070510B001D
:1049DC00F8B506460D468F180024BD420CD033683E
:1049EC0015F8011B9B6830469847031E01DB1C44DD
:1049FC00F3E7002C08BF1C462046F8BD13B504464F
:104A0C00084659B1019100F0C9FA23680199DB6895
:104A1C000246204602B0BDE81040184702B010BD57
:104A2C0003689B68184738B50D210546FFF7F8FF5A
:104A3C000A2104462846FFF7F3FF204438BD30B561
:104A4C008BB00023012A8DF8243098BF0A2209ACC0
:104A5C000D46B1FBF2F101FB125303F0FF03092BDE
:104A6C0094BF30333733DBB2AA4204F8013DEFD99F
:104A7C002146FFF7C3FF0BB030BD2DE9F04186B0E6
:104A8C0000AF05460E46381D142114463B60FFF757
:104A9C003FFD13280ED8391D2846FFF7AFFF0446FB
:104AAC001EB12846FFF7BFFF044420461837BD4609
:104ABC00BDE8F08100F1080323F00703E846ADEBF5
:104ACC00030D2246411C3B686846FFF721FD6946F1
:104ADC002846FFF793FF0446C546E1E7014B002249
:104AEC009A607047E4E60320054B02221A60054BDE
:104AFC00054A9A600020C3E90000FFF775BC00BFAF
:104B0C0000E70320F4E603200000FFFF024B1A68C5
:104B1C00024B1A60704700BF2CE6032004E7032009
:104B2C0070474174704708B5007CFFF715FC20EA0C
:104B3C00E07008BD08B5007CFFF7EEFB20EAE070E2
:104B4C0008BD08B5007CFFF7F7FB40EAE07008BD34
:104B5C0008B5007CFFF7E8FB40EAE07008BD007C7C
:104B6C00FFF7F2BB37B5457C04462DB1207C03B072
:104B7C00BDE83040FFF7C8BB007C0191FFF7ECFBB0
:104B8C0000280199F2DC284603B030BD10B5142181
:104B9C000446FFF77AFA204610BD000010B54FF41A
:104BAC007A730446084611460022C4E90123044BDB
:104BBC002360012320746374FFF7D6FB204610BDDD
:104BCC00C8510B00417470477047704708B50021FD
:104BDC00007CFFF7F1FB40EAE07008BD08B501214D
:104BEC00007CFFF7E9FB40EAE07008BD08B5007CEB
:104BFC00FFF7DAFB20EAE07008BD08B5007CFFF790
:104C0C00CBFB20EAE07008BD13B50446007C019193
:104C1C00FFF7CAFB0028019901DC607C20B1207CE5
:104C2C00FFF7D2FB20EAE07002B010BD007CFFF76A
:104C3C00D3BB10B514210446FFF727FA204610BD4C
:104C4C0010B54FF47A73044608460021C4E90113E9
:104C5C00044B23600123207463741146FFF78CFB13
:104C6C00204610BDF8510B00007C0022FFF78CBBD6
:104C7C0010B514220446002100F05AF9204610BD4C
:104C8C0010B50F4C88B003A8FFF7F2FF2178BFF3E3
:104C9C005B8F11F001010FD120460191FFF7F7F95D
:104CAC00019948B103AA0748FFF7CAFF2046FFF74E
:104CBC00F3F9054800F028F9024808B010BD00BF10
:104CCC0008E703200CE70320D54B0B00014B1860C1
:104CDC00704700BF30E6032008B50B4B43B1FFF71C
:104CEC00CFFF03681B699847002801DDAFF30080F4
:104CFC00064B43B100F0E2F803681B6998470028A3
:104D0C0001DDAFF3008008BD0000000000000000D2
:104D1C0008B5FFF7E1FFFFF78FFA014B186008BDEC
:104D2C0028E703200548064A064908B5121A00F080
:104D3C00F1F8054B054A1A6008BD00BF00F40320CA
:104D4C0004F40320E4520B0000F403201E1C279AE9
:104D5C0007B5002300931A466FF07701FFF756FB57
:104D6C0003B05DF804FB000007B543880A2B08D09C
:104D7C00502B0BD1094B1B684BB103B05DF804EB06
:104D8C001847FFF7E5FF03B05DF804FB0023009321
:104D9C001A466FF07701FFF739FBF4E724E703209D
:104DAC0010B512480021FFF7C3FB114B1A68114BC9
:104DBC009A42114B0CBF012200221A7001D0FFF74E
:104DCC00B1FFFFF731FA044600F0BAF80B4B13B100
:104DDC002046AFF3008000210848FFF721FBBDE817
:104DEC00104007480021FFF707BB00BFD94C0B0050
:104DFC0000F403201E1C279A20E70320000000006B
:104E0C00754D0B007047000038B50A4B0360012349
:104E1C00044643610849202000F074F820256060A6
:104E2C000549A560284600F06DF8C4E90305204645
:104E3C0038BD00BF1800010020520B0030B50E4DDC
:104E4C002978BFF35B8F11F0010487B011D128468C
:104E5C00FFF71DF968B16846FFF7D6FF6A46214691
:104E6C000648FFF72BFC2846FFF716F9044800F01C
:104E7C004BF8024807B030BD2CE7032030E7032085
:104E8C00114E0B007047000038B5044614252A4615
:104E9C00002100F04DF82580402507492581284642
:104EAC00258200F02FF804496060284600F02AF8AB
:104EBC00E060204638BD00BF20520B0030B50E4DCF
:104ECC002978BFF35B8F11F0010487B011D128460C
:104EDC00FFF7DDF868B101A8FFF7D6FF01AA21465C
:104EEC000648FFF75BFE2846FFF7D6F8044800F0AB
:104EFC000BF8024807B030BD44E7032048E7032015
:104F0C00914E0B00FFF7BFB8002301461A46184616
:104F1C0000F04CB80A44914200F1FF3300D17047C5
:104F2C0010B511F8014B03F8014F9142F9D110BDA6
:104F3C0002440346934200D1704703F8011BF9E782
:104F4C0038B5104B1D68AB6B0446B3B91820FFF78E
:104F5C00CFFA0246A86320B90B4B0C484221FFF74D
:104F6C00DFFA0B490B4BC0E900130B4B83600B238F
:104F7C00838100210120C2E90401AB6B00221C617A
:104F8C005A6138BD30E6032021520B0038520B0019
:104F9C000E33CDAB34126DE6ECDE0500034613F890
:104FAC00012B002AFBD1181A013870472DE9F84360
:104FBC00DFF8B8800646D8F800001F460D4691462B
:104FCC0000F056F8254B1C6834B9254C1C60254B59
:104FDC0013B11B68C4F8883063681F2B07DDD8F841
:104FEC00000000F047F84FF0FF30BDE8F8834EB3F7
:104FFC00D4F8880088B91C4B23B9D8F8000000F00D
:10500C0038F8F0E74FF48470FFF772FA0028F4D008
:10501C000023C0E94033C4F88800636840F823904B
:10502C0001229A4000EB8301D0F800311343C0F801
:10503C000031022EC1F8807002BFD0F80431134346
:10504C00C0F804316368D8F800005A1C023362605F
:10505C0044F8235000F00EF80020C6E7E8E70320E0
:10506C005CE7032000000000FD440B0094E60320E5
:10507C0070477047704700001D400B0059400B00F3
:10508C0081400B0085400B000000000044697374E4
:10509C00616E6365204D65617375726564203D209A
:1050AC0025690A000000000000000000BB450B0051
:1050BC00B1450B00A7450B005D450B009B450B0054
:1050CC008F450B00B9480B00C1480B0083450B0002
:1050DC007B450B0071450B0067450B00F1480B003D
:1050EC00000000000000000053460B0049460B0076
:1050FC003F460B0035460B0029460B001D460B00A6
:10510C00B9480B00C1480B0011460B0009460B00B7
:10511C00FF450B00F5450B00F1480B0000000000AB
:10512C000000000071460B00BB460B0093460B00C1
:10513C0073460B009B460B00A3460B00AB460B00C3
:10514C00B3460B00000000000000000089470B0074
:10515C0079470B007B470B0061707000000000006A
:10516C000000000079480B0083480B008D480B00B1
:10517C0097480B00A1480B00AD480B00B9480B0039
:10518C00C1480B00C9480B00D5480B00DD480B008B
:10519C00E7480B00F1480B0025592D256D2D256492
:1051AC005425483A254D3A2553257A00617363748A
:1051BC00696D650000000000000000002D4B0B0025
:1051CC00994B0B00714B0B00DD490B00414B0B0055
:1051DC005D4B0B004F4B0B006B4B0B002F4B0B0025
:1051EC00334B0B000000000000000000D74B0B00FD
:1051FC003F4C0B00154C0B00DD490B00074C0B0012
:10520C00D94B0B00E94B0B00394C0B00F94B0B0045
:10521C00D14B0B00005245454E54206D616C6C6FA8
:10522C006320737563636565646564002F746D70CA
:10523C002F6A656E6B696E732D4743432D31302D8C
:10524C00706970656C696E652D34385F3230323040
:10525C00313132345F313630363138303633392FE4
:10526C007372632F6E65776C69622F6E65776C69EC
:10527C00622F6C6962632F7374646C69622F726144
:10528C006E642E63000000004D450B00C5450B00FD
:10529C005D460B0069480B00C9490B00E94A0B003D
:1052AC00F54A0B00194B0B00000000000000000039
:0452BC0000000000EE
:1052C000040000001400000003000000474E5500D9
:1052D000441012A0E7F19A684C5AE51C146D8FF93E
:0452E000F99C52FDE6
:0452E40000000000C6
:1052E800B8510B0034E60320000000000000000065
:1052F80000000000000000000000000000000000A6
:105308000000000000000000000000000000000095
:105318000000000000000000000000000000000085
:105328000000000000000000000000000000000075
:105338000000000000000000000000000000000065
:0C5348000000000000000000ECE7032063
:10535400FFFFFFFF00000102030405060708090A16
:105364000B0C0D0E0F101112131415161718191A11
:085374001B1C1D1E1F20280058
:04537C007856341219
:04000003B000401CED
:00000001FF
