:02000002B0004C
:1040000000400B001C540B00000006000D000502D0
:0840100004010410000000008F
:0440180034510B0014
:10401C0009480A49884208B505D0094A824202D0AB
:10402C00121A00F0CFFF0748074A0021121A00F0BD
:10403C00D7FF014808BD00BF1CE6032088530B00C6
:10404C0088E6032088E60320EDE7032070B5074ED1
:10405C00074C00F0FDFEA41BA4080025AC4200D1C7
:10406C0070BD56F8043B98470135F7E73C530B00FD
:10407C0060530B0000F021B808B500F047F8BDE81C
:10408C00084000F09DBE00F081BA00F087BA0078BD
:10409C00B0FA80F0400970470123037070470EB4EA
:1040AC0003B503AB002153F8042B019300F039FD49
:1040BC0002B05DF804EB03B0704738B500F038FE81
:1040CC004FF4E13100F024FE002000F0EBF842F256
:1040DC0010750446002000F0E5F8001B61F10001AA
:1040EC00A84271F1000307D200F022FE00F014FE8A
:1040FC0010B900F0DBF9EDE700F01AFE00F00CFE51
:10410C0000F0F4FEBDE8384000F044BB10B50D4C97
:10411C006221204600F048F82046622100F093F816
:10412C006221204600F07DF86221204600F095F8CF
:10413C00054C208000F0FCFD22880449FFF7AFFFFE
:10414C0010BD00BF88E6032098E6032048510B0001
:10415C00044B0022C3E90022A2F580329A600220AF
:10416C0000F088B98CE6032037B50D469DF8181081
:10417C0001931446009100F0B9FE009900F040FB49
:10418C0000F0B4FE036829469B68984700F0AEFE29
:10419C000368019ADB682146984700F0A7FE03B03C
:1041AC00BDE8304000F033BB1FB504238DF80F3051
:1041BC00009101230DF10F020021FFF7D5FF05B08F
:1041CC005DF804FBF8B59DF8187015461C460E46B4
:1041DC0000F08CFE394600F013FB00F087FE0368FC
:1041EC0031469B68984700F081FE002100F00BFBE4
:1041FC0000F07CFE2246394600F0FBFA00F076FE19
:10420C0003681B69984784420ADC2C44A54207D0FA
:10421C0000F06CFE03685B69984705F8010BF5E745
:10422C00F8BD1FB500238DF80F30012300910DF15F
:10423C000F021946FFF7C6FF9DF80F0000F00100B2
:10424C0005B05DF804FB38B504460D4629462046FA
:10425C00FFF7E7FF0028F9D138BD1FB50223009105
:10426C000DF10E021021FFF7ADFFBDF80E0005B0E9
:10427C005DF804FB08B5024B1B685B6C019308BD31
:10428C004802030008B5024B1B685B68019308BD2C
:10429C001802030008B5024B1B685B69019308BD4B
:1042AC001802030008B5024B1B68DB6D019308BDB7
:1042BC001802030008B5024B1B68DB68019308BDAC
:1042CC002802030008B5024B1B689B69019308BDCB
:1042DC002802030008B5024B1B68DB69019308BD7B
:1042EC002802030008B5024B1B681B6A019308BD2A
:1042FC002802030008B5024B1B685B6A019308BDDA
:10430C002802030008B5024B1B689B6A019308BD89
:10431C002802030008B5024B1B68DB6A019308BD39
:10432C002802030008B5024B1B681B6B019308BDE8
:10433C002802030008B5024B1B681B6C019308BDD7
:10434C002802030008B5024B1B681B6D019308BDC6
:10435C002802030008B5024B1B685B69019308BD7A
:10436C006402030008B5024B1B689B68019308BDEF
:10437C006802030008B5024B1B68DB68019308BD9B
:10438C006802030008B5024B1B68DB68019308BD8B
:10439C003C02030008B5024B1B681B69019308BD66
:1043AC003C02030008B5024B1B685B69019308BD16
:1043BC003C02030008B5024B1B689B69019308BDC6
:1043CC003C02030008B5024B1B68DB69019308BD76
:1043DC003C02030008B5024B1B689B6A019308BDA5
:1043EC003C02030008B5024B1B681B6C019308BD13
:1043FC003C02030008B5024B1B681B68019308BD07
:10440C004C02030008B5024B1B685B68019308BDA6
:10441C004C02030008B5024B1B681B69019308BDD5
:10442C004C02030008B5024B1B685B69019308BD85
:10443C004C02030008B5024B1B689B69019308BD35
:10444C004C02030008B5024B1B68DB69019308BDE5
:10445C004C02030008B5024B1B681B6A019308BD94
:10446C004C02030008B5024B1B689B6A019308BD04
:10447C004C02030008B5024B1B685B68019308BD36
:10448C002002030008B5034B1B68D3F88830019356
:10449C0008BD00002002030008B5034B1B68D3F8CD
:1044AC009430019308BD00002002030008B5024BB4
:1044BC001B689B68019308BD4402030008B5024BBE
:1044CC001B68DB6B019308BD4402030008B5024B6B
:1044DC001B685B68019308BD4002030008B5024BE2
:1044EC001B689B68019308BD4002030008B5024B92
:1044FC001B68DB68019308BD4002030008B5024B42
:10450C001B681B69019308BD4002030008B5024BF0
:10451C001B685B69019308BD4002030008B5024BA0
:10452C001B689B69019308BD4002030008B5024B50
:10453C001B68DB69019308BD4002030008B5024B00
:10454C001B681B6A019308BD4002030008B5024BAF
:10455C001B681B6B019308BD4002030008B5024B9E
:10456C001B685B6B019308BD4002030008B5024B4E
:10457C001B681B6C019308BD4002030008B5024B7D
:10458C001B685B6C019308BD4002030008B5024B2D
:10459C001B681B68019308BD1C02030008B5024B85
:1045AC001B685B68019308BD1C02030008B5024B35
:1045BC001B685B6A019308BD1C02030008B5024B23
:1045CC001B681B6C019308BD1C02030008B5024B51
:1045DC001B685B6C019308BD1C020300024800239E
:1045EC000360FFF747BE00BF9CE603200022406833
:1045FC001146FFF783BF002240681146FFF79EBFAC
:10460C00002240681146FFF7A9BF40680022FFF75F
:10461C009DBF4068002281F00101FFF787BF002396
:10462C0040681A461946FFF779BF002340681A46BE
:10463C001946FFF76BBF002240681146FFF74EBFCB
:10464C00406800220221FFF751BF002340681A4640
:10465C00FFF73CBF084B10B5282422461846002112
:10466C0000F0BEFC054B04804FF0FF324260042288
:10467C005A60034A1A6010BDA8E60320A0E6032086
:10468C0060510B00002240681146FFF757BF002213
:10469C0040681146FFF762BF40680022FFF756BF23
:1046AC004068002281F00101FFF740BF0023406801
:1046BC001A461946FFF732BF002340681A461946BE
:1046CC00FFF724BF002240681146FFF717BF0022F6
:1046DC0040681146FFF702BF406800220221FFF735
:1046EC0005BF002340681A46FFF7F0BE024B0322B9
:1046FC005A60024A1A607047D0E603209C510B00A6
:10470C007047F8B5064615460C468F18BC4206D0C5
:10471C00336814F8011B9B6830469847F6E7284627
:10472C00F8BD007C0022FFF7DDBD007C0021FFF707
:10473C00E1BD007C0021FFF7E5BD007C0021FFF707
:10474C00E9BD007C0021FFF7EDBD10B51421044636
:10475C00FFF79BFC204610BD38B5044615464FF4B8
:10476C007A730022C4E90123094B217408462360A3
:10477C002946FFF7DFFDBF3008D16B69DB0705D594
:10478C006868FFF70BFFE868FFF708FF204638BDA5
:10479C00D8510B000023007C1A461946FFF78ABD3E
:1047AC007FB500221423CDE90122ADF804300B783B
:1047BC008DF808304B680393CB680493007C0B7A1C
:1047CC00059301A9FFF7BEFD07B05DF804FB1FB50B
:1047DC00003B8DF800104FF06401039118BF0123CA
:1047EC00694601928DF80830FFF7DAFF05B05DF8E5
:1047FC0004FB0123FFF7EBBF007C0022FFF762BD37
:10480C00C9B2FFF7F9BF007C0022FFF763BD01219D
:10481C00FFF7F9BF704710B518210446FFF735FCB8
:10482C00204610BDF0B5037D062B8DB00E4600F171
:10483C0004074FF0000412D000F1080515F8011D13
:10484C000A22304600F04FF9AF42044419D0002C34
:10485C00F4D02E21304600F037F90444EEE72F2334
:10486C006A4639460A208DF80040FFF773FD68460A
:10487C0000F0ECFB33680246DB686946304698472B
:10488C00044620460DB0F0BD10B5054B0446112270
:10489C0040F8043B002100F0A3FB204610BD00BFF4
:1048AC0000520B000346074A10B543F8042B01F1E4
:1048BC00100251F8044B43F8044B9142F9D10A7899
:1048CC001A7010BD00520B0010B59DF8084044EA58
:1048DC00032343EA024242EA016104234160037567
:1048EC0010BD000007B5064B0360CB7800938B78A6
:1048FC004A780978FFF7E8FF03B05DF804FB00BFC6
:10490C0000520B00014B024A1A607047D8E6032094
:10491C000C520B00002340681A46FFF7D7BD4068C5
:10492C0000220221FFF7E2BD002240681146FFF78A
:10493C00D5BD002240681146FFF7E0BD002340685A
:10494C001A461946FFF7E2BD002340681A4619467D
:10495C00FFF7E4BD40680021FFF708BE4068002166
:10496C00FFF70CBE4068002281F00101FFF7DEBDAD
:10497C0040680022FFF7EABD002240681146FFF7AD
:10498C00EDBD002240681146FFF7D8BD2DE9F0437C
:10499C0095B014460D460746FFF776FF00211C2202
:1049AC000DA8009100F01CFB40230C9320466B4695
:1049BC000CAA0021FFF7DEFC044600284BD102466E
:1049CC0001216868FFF79AFD02218046224668683B
:1049DC00FFF794FD009E81462146002E3BD0002916
:1049EC0039D17368022B03D00A2B11D0F669F4E786
:1049FC00B8F1000FFAD0716906A8043107ADFFF7C2
:104A0C0071FF0FCD3C1D0FC42B6823704146EDE7A1
:104A1C00B9F1000FEAD07469102201A800F0E0FA95
:104A2C0006238DF8143001AD04F10803183418680E
:104A3C0059682A4603C20833A3421546F7D101A987
:104A4C0006A807ADFFF72EFF0FCD3C1D0FC42B683A
:104A5C0023704946CAE70098FFF784FC384615B026
:104A6C00BDE8F083024B034A1A6000225A6070477B
:104A7C00DCE6032018520B00F8B506460D468F18DD
:104A8C000024BD420CD0336815F8011B9B683046DE
:104A9C009847031E01DB1C44F3E7002C08BF1C469F
:104AAC002046F8BD13B50446084659B1019100F0F3
:104ABC00CDFA23680199DB680246204602B0BDE8B6
:104ACC001040184702B010BD03689B68184738B5F2
:104ADC000D210546FFF7F8FF0A2104462846FFF78B
:104AEC00F3FF204438BD30B58BB00023012A8DF87C
:104AFC00243098BF0A2209AC0D46B1FBF2F101FB40
:104B0C00125303F0FF03092B94BF30333733DBB25E
:104B1C00AA4204F8013DEFD92146FFF7C3FF0BB0C1
:104B2C0030BD2DE9F04186B000AF05460E46381D6C
:104B3C00142114463B60FFF739FD13280ED8391D9C
:104B4C002846FFF7AFFF04461EB12846FFF7BFFF0C
:104B5C00044420461837BD46BDE8F08100F1080337
:104B6C0023F00703E846ADEB030D2246411C3B68DE
:104B7C006846FFF71BFD69462846FFF793FF04467E
:104B8C00C546E1E7014B00229A607047E4E603203A
:104B9C00054B02221A60054B054A9A600020C3E9B6
:104BAC000000FFF767BC00BF00E70320F4E603201A
:104BBC000000FFFF024B1A68024B1A60704700BFDF
:104BCC001CE6032004E7032070474174704708B5C6
:104BDC00007CFFF7FFFB20EAE07008BD08B5007C05
:104BEC00FFF7D8FB20EAE07008BD08B5007CFFF7A2
:104BFC00E1FB40EAE07008BD08B5007CFFF7D2FB92
:104C0C0040EAE07008BD007CFFF7DCBB37B5457CA3
:104C1C0004462DB1207C03B0BDE83040FFF7B2BB99
:104C2C00007C0191FFF7D6FB00280199F2DC2846A5
:104C3C0003B030BD10B514210446FFF726FA204608
:104C4C0010BD000010B54FF47A73044608461146A7
:104C5C000022C4E90123044B2360012320746374F4
:104C6C00FFF7C0FB204610BD70520B00417470471B
:104C7C007047704708B50021007CFFF7DBFB40EA6A
:104C8C00E07008BD08B50121007CFFF7D3FB40EABA
:104C9C00E07008BD08B5007CFFF7C4FB20EAE070AB
:104CAC0008BD08B5007CFFF7B5FB20EAE07008BD35
:104CBC0013B50446007C0191FFF7B4FB0028019961
:104CCC0001DC607C20B1207CFFF7BCFB20EAE070AB
:104CDC0002B010BD007CFFF7BDBB10B5142104461B
:104CEC00FFF7D3F9204610BD10B54FF47A73044684
:104CFC0008460021C4E90113044B236001232074EE
:104D0C0063741146FFF776FB204610BDA0520B00D2
:104D1C00007C0022FFF776BB007CFFF7A3BB10B52D
:104D2C0014220446002100F05BF9204610BD00005F
:104D3C0010B50F4C88B003A8FFF7F1FF2178BFF333
:104D4C005B8F11F001010FD120460191FFF79FF904
:104D5C00019948B103AA0748FFF7C6FF2046FFF7A1
:104D6C009BF9054800F028F9024808B010BD00BFB7
:104D7C0008E703200CE703207D4C0B00014B186067
:104D8C00704700BF20E6032008B50B4B43B1FFF77B
:104D9C00CFFF03681B699847002801DDAFF3008043
:104DAC00064B43B100F0E2F803681B6998470028F2
:104DBC0001DDAFF3008008BD000000000000000022
:104DCC0008B5FFF7E1FFFFF765FA014B186008BD66
:104DDC0028E703200548064A064908B5121A00F0D0
:104DEC00F1F8054B054A1A6008BD00BF00F403201A
:104DFC0004F4032084530B0000F403201E1C279A98
:104E0C0007B5002300931A466FF07701FFF744FBB8
:104E1C0003B05DF804FB000007B543880A2B08D0EB
:104E2C00502B0BD1094B1B684BB103B05DF804EB55
:104E3C001847FFF7E5FF03B05DF804FB0023009370
:104E4C001A466FF07701FFF727FBF4E724E70320FE
:104E5C0010B512480021FFF7B9FB114B1A68114B22
:104E6C009A42114B0CBF012200221A7001D0FFF79D
:104E7C00B1FFFFF707FA044600F0BAF80B4B13B179
:104E8C002046AFF3008000210848FFF717FBBDE870
:104E9C00104007480021FFF7F5BA00BF894D0B0001
:104EAC0000F403201E1C279A20E7032000000000BA
:104EBC00254E0B007047000038B50A4B03600123E8
:104ECC00044643610849202000F074F820256060F6
:104EDC000549A560284600F06DF8C4E90305204695
:104EEC0038BD00BF18000100C8520B0030B50E4D84
:104EFC002978BFF35B8F11F0010487B011D12846DC
:104F0C00FFF7C5F868B16846FFF7D6FF6A46214639
:104F1C000648FFF721FC2846FFF7BEF8044800F0CE
:104F2C004BF8024807B030BD2CE7032030E70320D4
:104F3C00C14E0B007047000038B5044614252A46B4
:104F4C00002100F04DF82580402507492581284691
:104F5C00258200F02FF804496060284600F02AF8FA
:104F6C00E060204638BD00BFC8520B0030B50E4D76
:104F7C002978BFF35B8F11F0010487B011D128465B
:104F8C00FFF785F868B101A8FFF7D6FF01AA214603
:104F9C000648FFF757FE2846FFF77EF8044800F056
:104FAC000BF8024807B030BD44E7032048E7032064
:104FBC00414F0B00FFF767B8002301461A4618460D
:104FCC0000F04CB80A44914200F1FF3300D1704715
:104FDC0010B511F8014B03F8014F9142F9D110BDF6
:104FEC0002440346934200D1704703F8011BF9E7D2
:104FFC0038B5104B1D68AB6B0446B3B91820FFF7DE
:10500C00C5FA0246A86320B90B4B0C484221FFF7A6
:10501C00D5FA0B490B4BC0E900130B4B83600B23E8
:10502C00838100210120C2E90401AB6B00221C61C9
:10503C005A6138BD20E60320C9520B00E0520B0028
:10504C000E33CDAB34126DE6ECDE0500034613F8DF
:10505C00012B002AFBD1181A013870472DE9F843AF
:10506C00DFF8B8800646D8F800001F460D4691467A
:10507C0000F056F8254B1C6834B9254C1C60254BA8
:10508C0013B11B68C4F8883063681F2B07DDD8F890
:10509C00000000F047F84FF0FF30BDE8F8834EB346
:1050AC00D4F8880088B91C4B23B9D8F8000000F05C
:1050BC0038F8F0E74FF48470FFF768FA0028F4D062
:1050CC000023C0E94033C4F88800636840F823909B
:1050DC0001229A4000EB8301D0F800311343C0F851
:1050EC000031022EC1F8807002BFD0F80431134396
:1050FC00C0F804316368D8F800005A1C02336260AF
:10510C0044F8235000F00EF80020C6E7E8E703202F
:10511C005CE703200000000099450B0084E60320A7
:10512C0070477047704700001D400B0059400B0042
:10513C0081400B0085400B00000000004469737433
:10514C00616E6365203D2025750A0000000000009B
:10515C000000000057460B004D460B0043460B0069
:10516C00F9450B0037460B002B460B0061490B0031
:10517C0069490B001F460B0017460B000D460B0030
:10518C0003460B0099490B000000000000000000D2
:10519C00EF460B00E5460B00DB460B00D1460B003F
:1051AC00C5460B00B9460B0061490B0069490B0061
:1051BC00AD460B00A5460B009B460B0091460B0021
:1051CC0099490B0000000000000000000D470B0087
:1051DC0057470B002F470B000F470B0037470B00AF
:1051EC003F470B0047470B004F470B0000000000E8
:1051FC000000000031480B0021480B0023480B0035
:10520C0061707000000000000000000021490B00DC
:10521C002B490B0035490B003F490B0049490B004A
:10522C0055490B0061490B0069490B0071490B0092
:10523C007D490B0085490B008F490B0099490B00E8
:10524C0025592D256D2D25645425483A254D3A2593
:10525C0053257A0061736374696D6500000000006A
:10526C0000000000D54B0B00414C0B00194C0B00FF
:10527C00854A0B00E94B0B00054C0B00F74B0B0060
:10528C00134C0B00D74B0B00DB4B0B00000000004A
:10529C00000000007F4C0B00E74C0B00BD4C0B00DA
:1052AC00854A0B00AF4C0B00814C0B00914C0B0052
:1052BC00E14C0B00A14C0B00794C0B000052454506
:1052CC004E54206D616C6C6F632073756363656500
:1052DC00646564002F746D702F6A656E6B696E73F4
:1052EC002D4743432D31302D706970656C696E65A7
:1052FC002D34385F32303230313132345F31363028
:10530C00363138303633392F7372632F6E65776CC4
:10531C0069622F6E65776C69622F6C6962632F739B
:10532C0074646C69622F72616E642E6300000000FD
:10533C005D410B00E9450B0061460B00F9460B0083
:10534C0011490B00714A0B00914B0B009D4B0B004C
:04535C00C14B0B0036
:10536000040000001400000003000000474E550038
:1053700012563EE720A7E7F8F603DF0BB9F5D7D9B9
:04538000CBBA9BA762
:045384000000000025
:1053880060520B0024E6032000000000000000002B
:105398000000000000000000000000000000000005
:1053A80000000000000000000000000000000000F5
:1053B80000000000000000000000000000000000E5
:1053C80000000000000000000000000000000000D5
:1053D80000000000000000000000000000000000C5
:0C53E8000000000000000000ECE70320C3
:1053F400FFFFFFFF00000102030405060708090A76
:105404000B0C0D0E0F101112131415161718191A70
:085414001B1C1D1E1F202800B7
:04541C007856341278
:04000003B000401CED
:00000001FF
