:02000002B0004C
:1040000000400B00BC540B00000006000D00050230
:0840100004010410000000008F
:04401800C8510B0080
:10401C0009480A49884208B505D0094A824202D0AB
:10402C00121A01F019F80748074A0021121A01F078
:10403C0021F8014808BD00BF24E6032028540B00DA
:10404C0090E6032090E60320EDE7032070B5074EC1
:10405C00074C00F047FFA41BA4080025AC4200D17C
:10406C0070BD56F8043B98470135F7E7D8530B0061
:10407C00FC530B0000F014B808B500F023F8BDE8B1
:10408C00084000F0E7BE00F0F5BA00F0FBBA00788B
:10409C00B0FA80F0400970470123037070470000AC
:1040AC0010B500F08FFE4FF4165100F07FFEBDE806
:1040BC001040034862230122002100F0B1B800BF78
:1040CC0090E6032037B562220121134800F030F945
:1040DC006223044600221048042100F02DF801222E
:1040EC006223CDE900230D4B0B481B68114600F0F1
:1040FC00AFF800F067FE002C05460ADA2D2100F01F
:10410C0057FD61420A22284603B0BDE8304000F05A
:10411C0068BD2146F6E700BF90E6032094E6032035
:10412C00014800F007B800BF90E603200368C9B24D
:10413C009B6818477047000037B5144601930D462D
:10414C0000F01EFF019900F0CFFB00F019FF29468B
:10415C00FFF7ECFF00F014FF2146FFF7E7FF00F03C
:10416C000FFF00F0C8FB20B100F02CFE044900F05A
:10417C002EFD012003B0BDE8304000F09BBA00BF1B
:10418C00DC510B0007B51346052946D8DFE801F0D2
:10419C0003181B2427360193802202210090FFF77D
:1041AC00CBFF019B082200980421FFF7C5FF019B60
:1041BC00002200981C2103B05DF804EBFFF7BCBF94
:1041CC0001931D22E9E78022022101930090FFF761
:1041DC00B3FF019B0022E6E70193FF22DDE780227B
:1041EC00022101930090FFF7A7FF019B0098082282
:1041FC000421FFF7A1FF019B8022DAE78022022134
:10420C0001930090FFF798FF019B0098082204216E
:10421C00FFF792FF019BB022CBE703B05DF804FBE4
:10422C00F8B517460D461E46044600F0A9FE00F0F0
:10423C0025FB27B100F0A4FE044900F01BFB32461D
:10424C0029462046BDE8F840FFF79CBF801A0600BF
:10425C002DE9F8431E469DF820309DF824500F465A
:10426C001446002B58D100F08BFE294600F03CFB85
:10427C0000F086FE3946FFF759FF00F081FE00F092
:10428C003AFB20B100F09EFD274900F0A0FC00F0A5
:10429C0077FE2246294600F020FB00F071FE0368F1
:1042AC001B699847A0423CDB0025A54239DA00F097
:1042BC0067FE03685B69984770550135F5E7002880
:1042CC00D1D000F05DFE294600F00EFB00F058FE48
:1042DC000121FFF72BFF00F053FE00F00CFB20B187
:1042EC0000F070FD494600F072FC00F049FE01221E
:1042FC00294600F0F2FA00F043FE03685B69984728
:10430C00B8F1010800F00100D9D100F05BFDBDE867
:10431C00F843064900F05BBCDFF80C9042F21078D1
:10432C00CFE7BDE8F88300BFDC510B00E3510B0075
:10433C0030B5134685B005461446A1B104220021C0
:10434C00FFF7FAFE01230093284603AB01940222E7
:10435C008F21FFF77DFF9DF80C009DF80D3003EBCE
:10436C00002005B030BD0322EAE7000008B5024B7F
:10437C001B685B6C019308BD4802030008B5024B37
:10438C001B685B68019308BD1802030008B5024B5B
:10439C001B685B69019308BD1802030008B5024B4A
:1043AC001B681B68019308BD2802030008B5024B6B
:1043BC001B68DB68019308BD2802030008B5024B9B
:1043CC001B689B69019308BD2802030008B5024BCA
:1043DC001B68DB69019308BD2802030008B5024B7A
:1043EC001B681B6A019308BD2802030008B5024B29
:1043FC001B685B6A019308BD2802030008B5024BD9
:10440C001B689B6A019308BD2802030008B5024B88
:10441C001B68DB6A019308BD2802030008B5024B38
:10442C001B681B6B019308BD2802030008B5024BE7
:10443C001B681B6C019308BD2802030008B5024BD6
:10444C001B681B6D019308BD2802030008B5024BC5
:10445C001B685B69019308BD6402030008B5024B3D
:10446C001B689B68019308BD6802030008B5024BEA
:10447C001B68DB68019308BD6802030008B5024B9A
:10448C001B68DB68019308BD3C02030008B5024BB6
:10449C001B681B69019308BD3C02030008B5024B65
:1044AC001B685B69019308BD3C02030008B5024B15
:1044BC001B689B69019308BD3C02030008B5024BC5
:1044CC001B68DB69019308BD3C02030008B5024B75
:1044DC001B689B6A019308BD3C02030008B5024BA4
:1044EC001B681B6C019308BD3C02030008B5024B12
:1044FC001B681B68019308BD4C02030008B5024BF6
:10450C001B685B68019308BD4C02030008B5024BA5
:10451C001B681B69019308BD4C02030008B5024BD4
:10452C001B685B69019308BD4C02030008B5024B84
:10453C001B689B69019308BD4C02030008B5024B34
:10454C001B68DB69019308BD4C02030008B5024BE4
:10455C001B681B6A019308BD4C02030008B5024B93
:10456C001B685B68019308BD2002030008B5024B71
:10457C001B685B69019308BD2002030008B5034B5F
:10458C001B68D3F88830019308BD0000200203009B
:10459C0008B5034B1B68D3F89430019308BD000099
:1045AC002002030008B5024B1B68DB6B019308BDAE
:1045BC004402030008B5024B1B685B68019308BDFD
:1045CC004002030008B5024B1B689B68019308BDB1
:1045DC004002030008B5024B1B68DB68019308BD61
:1045EC004002030008B5024B1B681B69019308BD10
:1045FC004002030008B5024B1B685B69019308BDC0
:10460C004002030008B5024B1B689B69019308BD6F
:10461C004002030008B5024B1B68DB69019308BD1F
:10462C004002030008B5024B1B681B6A019308BDCE
:10463C004002030008B5024B1B681B6B019308BDBD
:10464C004002030008B5024B1B685B6B019308BD6D
:10465C004002030008B5024B1B681B6C019308BD9C
:10466C004002030008B5024B1B685B6C019308BD4C
:10467C004002030008B5024B1B681B68019308BD80
:10468C001C02030008B5024B1B685B68019308BD54
:10469C001C02030008B5024B1B681B6C019308BD80
:1046AC001C02030008B5024B1B685B6C019308BD30
:1046BC001C0203000021FFF759BF00000248002331
:1046CC000360FFF753BE00BF9CE603200022406846
:1046DC001146FFF787BF002240681146FFF7A2BFC3
:1046EC00002240681146FFF7ADBF40680022FFF77B
:1046FC00A1BF4068002281F00101FFF78BBF0023AE
:10470C0040681A461946FFF77DBF002340681A46D9
:10471C001946FFF76FBF002240681146FFF752BFE2
:10472C00406800220221FFF755BF002340681A465B
:10473C00FFF740BF084B10B528242246184600212D
:10474C0000F098FC054B04804FF0FF3242600422CD
:10475C005A60034A1A6010BDA8E60320A0E60320A5
:10476C00FC510B00002240681146FFF75BBF002292
:10477C0040681146FFF766BF40680022FFF75ABF3A
:10478C004068002281F00101FFF744BF002340681C
:10479C001A461946FFF736BF002340681A461946D9
:1047AC00FFF728BF002240681146FFF71BBF00220D
:1047BC0040681146FFF706BF406800220221FFF750
:1047CC0009BF002340681A46FFF7F4BE024B0322D0
:1047DC005A60024A1A607047D0E6032038520B0028
:1047EC007047F8B5064615460C468F18BC4206D0E5
:1047FC00336814F8011B9B6830469847F6E7284647
:10480C00F8BD007C0022FFF7E9BD007C0021FFF71A
:10481C00EDBD007C0021FFF7F1BD007C0021FFF70E
:10482C00F5BD007C0021FFF7F9BD10B5142104463D
:10483C00FFF72BFC204610BD38B5044615464FF447
:10484C007A730022C4E90123094B217408462360C2
:10485C002946FFF7EBFDBF3008D16B69DB0705D5A7
:10486C006868FFF70FFFE868FFF70CFF204638BDBC
:10487C0074520B00007C0022FFF790BD0023007CDB
:10488C001A461946FFF792BD7FB500221423CDE9D5
:10489C000122ADF804300B788DF808304B68039387
:1048AC00CB680493007C0B7A059301A9FFF7C6FD36
:1048BC0007B05DF804FB1FB5003B8DF800104FF0FE
:1048CC006401039118BF0123694601928DF80830E9
:1048DC00FFF7DAFF05B05DF804FB0123FFF7EBBF30
:1048EC00007C0022FFF76ABDC9B2FFF7F9BF007C5C
:1048FC000022FFF76BBD0121FFF7F9BF704710B520
:10490C0018210446FFF7C1FB204610BDF0B5037D0E
:10491C00062B8DB00E4600F104074FF0000412D0A8
:10492C0000F1080515F8011D0A22304600F059F96E
:10493C00AF42044419D0002CF4D02E21304600F0A4
:10494C0037F90444EEE72F236A4639460A208DF8DE
:10495C000040FFF77BFD684600F0C2FB336802465F
:10496C00DB68694630469847044620460DB0F0BDDA
:10497C0010B5054B0446112240F8043B002100F011
:10498C0079FB204610BD00BF9C520B000346074A22
:10499C0010B543F8042B01F1100251F8044B43F805
:1049AC00044B9142F9D10A781A7010BD9C520B003D
:1049BC0010B59DF8084044EA032343EA024242EA58
:1049CC00016104234160037510BD000007B5064B5F
:1049DC000360CB7800938B784A780978FFF7E8FF6F
:1049EC0003B05DF804FB00BF9C520B00014B024A64
:1049FC001A607047D8E60320A8520B0000234068C9
:104A0C001A46FFF7D7BD406800220221FFF7E2BD2E
:104A1C00002240681146FFF7D5BD002240681146C0
:104A2C00FFF7E0BD002340681A461946FFF7E2BDC8
:104A3C00002340681A461946FFF7E4BD4068002180
:104A4C00FFF708BE40680021FFF70CBE406800224B
:104A5C0081F00101FFF7DEBD40680022FFF7EABDDF
:104A6C00002240681146FFF7EDBD00224068114658
:104A7C00FFF7D8BD2DE9F04395B014460D46074617
:104A8C00FFF776FF00211C220DA8009100F0F2FA2E
:104A9C0040230C9320466B460CAA0021FFF7E6FC42
:104AAC00044600284BD1024601216868FFF79AFDA5
:104ABC000221804622466868FFF794FD009E8146DD
:104ACC002146002E3BD0002939D17368022B03D02C
:104ADC000A2B11D0F669F4E7B8F1000FFAD071691E
:104AEC0006A8043107ADFFF771FF0FCD3C1D0FC4B5
:104AFC002B6823704146EDE7B9F1000FEAD07469D9
:104B0C00102201A800F0B6FA06238DF8143001AD7E
:104B1C0004F108031834186859682A4603C208338C
:104B2C00A3421546F7D101A906A807ADFFF72EFF42
:104B3C000FCD3C1D0FC42B6823704946CAE7009863
:104B4C00FFF78CFC384615B0BDE8F083024B034AE6
:104B5C001A6000225A607047DCE60320B4520B0046
:104B6C00F8B506460D468F180024BD420CD03368AC
:104B7C0015F8011B9B6830469847031E01DB1C444B
:104B8C00F3E7002C08BF1C462046F8BD13B50446BD
:104B9C00084659B1019100F0A3FA23680199DB682A
:104BAC000246204602B0BDE81040184702B010BDC6
:104BBC0003689B68184738B50D210546FFF7F8FFC9
:104BCC000A2104462846FFF7F3FF204438BD38B5C8
:104BDC000546FFF7DBFF04462846FFF7ECFF2044B1
:104BEC0038BD30B58BB00023012A8DF8243098BF26
:104BFC000A2209AC0D46B1FBF2F101FB125303F092
:104C0C00FF03092B94BF30333733DBB2AA4204F8CD
:104C1C00013DEFD92146FFF7B9FF0BB030BD0000C5
:104C2C00014B00229A607047E4E60320054B0222F8
:104C3C001A60054B054A9A600020C3E90000FFF793
:104C4C008DBC00BF00E70320F4E603200000FFFF4B
:104C5C00024B1A68024B1A60704700BF24E603200F
:104C6C0004E7032070474174704708B5007CFFF7D8
:104C7C002DFC20EAE07008BD08B5007CFFF706FCAF
:104C8C0020EAE07008BD08B5007CFFF70FFC40EA95
:104C9C00E07008BD08B5007CFFF700FC40EAE0704E
:104CAC0008BD007CFFF70ABC37B5457C04462DB126
:104CBC00207C03B0BDE83040FFF7E0BB007C0191E5
:104CCC00FFF704FC00280199F2DC284603B030BD44
:104CDC0010B514210446FFF7D8F9204610BD00008A
:104CEC0010B54FF47A730446084611460022C4E905
:104CFC000123044B2360012320746374FFF7EEFB44
:104D0C00204610BD0C530B00417470477047704720
:104D1C0008B50021007CFFF709FC40EAE07008BDF3
:104D2C0008B50121007CFFF701FC40EAE07008BDEA
:104D3C0008B5007CFFF7F2FB20EAE07008BD08B56F
:104D4C00007CFFF7E3FB20EAE07008BD13B50446D6
:104D5C00007C0191FFF7E2FB0028019901DC607CEB
:104D6C0020B1207CFFF7EAFB20EAE07002B010BD16
:104D7C00007CFFF7EBBB10B514210446FFF785F957
:104D8C00204610BD10B54FF47A7304460846002136
:104D9C00C4E90113044B236001232074637411468E
:104DAC00FFF7A4FB204610BD3C530B00007C0022F7
:104DBC00FFF7A4BB10B514220446002100F05AF9E9
:104DCC00204610BD10B50F4C88B003A8FFF7F2FFBA
:104DDC002178BFF35B8F11F001010FD120460191B7
:104DEC00FFF755F9019948B103AA0748FFF7CAFF25
:104DFC002046FFF751F9054800F028F9024808B0A1
:104E0C0010BD00BF08E703200CE70320194D0B0071
:104E1C00014B1860704700BF28E6032008B50B4B08
:104E2C0043B1FFF7CFFF03681B699847002801DDEA
:104E3C00AFF30080064B43B100F0E2F803681B6946
:104E4C009847002801DDAFF3008008BD000000008A
:104E5C000000000008B5FFF7E1FFFFF797FA014BE0
:104E6C00186008BD28E703200548064A064908B51E
:104E7C00121A00F0F1F8054B054A1A6008BD00BF84
:104E8C0000F4032004F4032024540B0000F403204A
:104E9C001E1C279A07B5002300931A466FF0770162
:104EAC00FFF776FB03B05DF804FB000007B5438801
:104EBC000A2B08D0502B0BD1094B1B684BB103B0FC
:104ECC005DF804EB1847FFF7E5FF03B05DF804FB52
:104EDC00002300931A466FF07701FFF759FBF4E7B4
:104EEC0024E7032010B512480021FFF7DBFB114B20
:104EFC001A68114B9A42114B0CBF012200221A70F6
:104F0C0001D0FFF7B1FFFFF739FA044600F0BAF809
:104F1C000B4B13B12046AFF3008000210848FFF77C
:104F2C0041FBBDE8104007480021FFF727BB00BF3D
:104F3C001D4E0B0000F403201E1C279A20E70320B3
:104F4C0000000000B94E0B007047000038B50A4B4A
:104F5C0003600123044643610849202000F074F8E3
:104F6C00202560600549A560284600F06DF8C4E96D
:104F7C000305204638BD00BF1800010064530B0028
:104F8C0030B50E4D2978BFF35B8F11F0010487B05B
:104F9C0011D12846FFF77BF868B16846FFF7D6FFBA
:104FAC006A4621460648FFF747FC2846FFF774F887
:104FBC00044800F04BF8024807B030BD2CE7032042
:104FCC0030E70320554F0B007047000038B50446FE
:104FDC0014252A46002100F04DF82580402507496C
:104FEC0025812846258200F02FF804496060284668
:104FFC0000F02AF8E060204638BD00BF64530B0077
:10500C0030B50E4D2978BFF35B8F11F0010487B0DA
:10501C0011D12846FFF73BF868B101A8FFF7D6FF7E
:10502C0001AA21460648FFF75BFE2846FFF734F835
:10503C00044800F00BF8024807B030BD44E70320E9
:10504C0048E70320D54F0B00FFF71DB8002301469E
:10505C001A46184600F04CB80A44914200F1FF334E
:10506C0000D1704710B511F8014B03F8014F914274
:10507C00F9D110BD02440346934200D1704703F8A6
:10508C00011BF9E738B5104B1D68AB6B0446B3B97F
:10509C001820FFF7EFFA0246A86320B90B4B0C4817
:1050AC004221FFF7F7FA0B490B4BC0E900130B4BEE
:1050BC0083600B23838100210120C2E90401AB6BC7
:1050CC0000221C615A6138BD28E6032065530B0091
:1050DC007C530B000E33CDAB34126DE6ECDE0500C9
:1050EC00034613F8012B002AFBD1181A013870471C
:1050FC002DE9F843DFF8B8800646D8F800001F46C3
:10510C000D46914600F056F8254B1C6834B9254CD9
:10511C001C60254B13B11B68C4F8883063681F2BC7
:10512C0007DDD8F8000000F047F84FF0FF30BDE87D
:10513C00F8834EB3D4F8880088B91C4B23B9D8F83F
:10514C00000000F038F8F0E74FF48470FFF792FAA3
:10515C000028F4D00023C0E94033C4F88800636809
:10516C0040F8239001229A4000EB8301D0F80031E3
:10517C001343C0F80031022EC1F8807002BFD0F882
:10518C0004311343C0F804316368D8F800005A1C8A
:10519C000233626044F8235000F00EF80020C6E79A
:1051AC00E8E703205CE703200000000081460B00C9
:1051BC008CE6032070477047704700001D400B00C1
:1051CC0059400B0081400B0085400B000000000093
:1051DC003E206E61636B003E2072656164206661E7
:1051EC00696C656400000000000000000000000015
:1051FC0037470B002D470B0023470B00D9460B00FC
:10520C0017470B000B470B00494A0B00514A0B0088
:10521C00FF460B00F7460B00ED460B00E3460B0078
:10522C00814A0B000000000000000000CF470B007B
:10523C00C5470B00BB470B00B1470B00A5470B0044
:10524C0099470B00494A0B00514A0B008D470B0044
:10525C0085470B007B470B0071470B00814A0B0005
:10526C000000000000000000ED470B0037480B0069
:10527C000F480B00EF470B0017480B001F480B00A3
:10528C0027480B002F480B00000000000000000016
:10529C0019490B0009490B000B490B006170700098
:1052AC000000000000000000094A0B00134A0B002C
:1052BC001D4A0B00274A0B00314A0B003D4A0B00DC
:1052CC00494A0B00514A0B00594A0B00654A0B0026
:1052DC006D4A0B00774A0B00814A0B0025592D258E
:1052EC006D2D25645425483A254D3A2553257A00D1
:1052FC0061736374696D65000000000000000000BC
:10530C00714C0B00DD4C0B00B54C0B006D4B0B00C6
:10531C00854C0B00A14C0B00934C0B00AF4C0B00BD
:10532C00734C0B00774C0B000000000000000000D9
:10533C001B4D0B00834D0B00594D0B006D4B0B009F
:10534C004B4D0B001D4D0B002D4D0B007D4D0B00DF
:10535C003D4D0B00154D0B00005245454E54206D34
:10536C00616C6C6F63207375636365656465640061
:10537C002F746D702F6A656E6B696E732D47434386
:10538C002D31302D706970656C696E652D34385F08
:10539C0032303230313132345F31363036313830B0
:1053AC003633392F7372632F6E65776C69622F6E8B
:1053BC0065776C69622F6C6962632F7374646C69B6
:1053CC00622F72616E642E63000000002D410B0091
:1053DC00C9460B0041470B00D9470B00F9490B009C
:1053EC00594B0B002D4C0B00394C0B005D4C0B003A
:0453FC0000000000AD
:10540000040000001400000003000000474E550097
:10541000F1116A33CB278B36B3293A977F2019874E
:045420000CCBD79248
:045424000000000084
:10542800FC520B002CE603200000000000000000E6
:105438000000000000000000000000000000000064
:105448000000000000000000000000000000000054
:105458000000000000000000000000000000000044
:105468000000000000000000000000000000000034
:105478000000000000000000000000000000000024
:0C5488000000000000000000ECE7032022
:10549400FFFFFFFF00000102030405060708090AD5
:1054A4000B0C0D0E0F101112131415161718191AD0
:0854B4001B1C1D1E1F20280017
:0454BC0078563412D8
:04000003B000401CED
:00000001FF
