:02000002B0004C
:1040000000400B002C530B00000006000D000502C1
:0840100004010410000000008F
:0440180034500B0015
:10401C0009480A49884208B505D0094A824202D0AB
:10402C00121A00F04FFF0748074A0021121A00F03D
:10403C0057FF014808BD00BF0CE6032098520B0047
:10404C0078E6032078E60320EDE7032070B5074EF1
:10405C00074C00F07DFEA41BA4080025AC4200D147
:10406C0070BD56F8043B98470135F7E744520B00F6
:10407C0064520B0000F021B808B500F027F8BDE839
:10408C00084000F01DBE00F00BBA00F011BA007829
:10409C00B0FA80F0400970470123037070470EB4EA
:1040AC0003B503AB002153F8042B019300F0BDFCC6
:1040BC0002B05DF804EB03B0704708B500F0B8FD32
:1040CC00BDE808404FF4165100F0A6BD37B5134CAF
:1040DC0013482268622500950823042100F024F877
:1040EC0022680F4800950823012100F03DF8226852
:1040FC000B4800950823102100F036F82268084878
:10410C0000950823112100F02FF800F091FD0549CE
:10411C000022FFF7C4FF03B030BD00BF7CE60320D4
:10412C0078E6032048500B0037B50D469DF8181063
:10413C0001931446009100F059FE009900F0E4FA46
:10414C0000F054FE036829469B68984700F04EFE29
:10415C000368019ADB682146984700F047FE03B0DC
:10416C00BDE8304000F0D7BAF8B59DF81870154688
:10417C001C460E4600F03AFE394600F0C5FA00F037
:10418C0035FE036831469B68984700F02FFE0021EE
:10419C0000F0BDFA00F02AFE2246394600F0ADFAD6
:1041AC0000F024FE03681B69984784420ADC2C4407
:1041BC00A54207D000F01AFE03685B69984705F822
:1041CC00010BF5E7F8BD000008B5024B1B685B6CF2
:1041DC00019308BD4802030008B5024B1B685B68DD
:1041EC00019308BD1802030008B5024B1B685B69FC
:1041FC00019308BD1802030008B5024B1B689B69AC
:10420C00019308BD2802030008B5024B1B68DB694B
:10421C00019308BD2802030008B5024B1B681B6AFA
:10422C00019308BD2802030008B5024B1B685B6AAA
:10423C00019308BD2802030008B5024B1B689B6A5A
:10424C00019308BD2802030008B5024B1B68DB6A0A
:10425C00019308BD2802030008B5024B1B681B6BB9
:10426C00019308BD2802030008B5024B1B681B6CA8
:10427C00019308BD2802030008B5024B1B681B6D97
:10428C00019308BD2802030008B5024B1B685B694B
:10429C00019308BD6402030008B5024B1B689B68C0
:1042AC00019308BD6802030008B5024B1B68DB686C
:1042BC00019308BD6802030008B5024B1B68DB685C
:1042CC00019308BD3C02030008B5024B1B681B6937
:1042DC00019308BD3C02030008B5024B1B685B69E7
:1042EC00019308BD3C02030008B5024B1B689B6997
:1042FC00019308BD3C02030008B5024B1B68DB6947
:10430C00019308BD3C02030008B5024B1B689B6A75
:10431C00019308BD3C02030008B5024B1B681B6CE3
:10432C00019308BD3C02030008B5024B1B681B68D7
:10433C00019308BD4C02030008B5024B1B685B6877
:10434C00019308BD4C02030008B5024B1B681B69A6
:10435C00019308BD4C02030008B5024B1B685B6956
:10436C00019308BD4C02030008B5024B1B689B6906
:10437C00019308BD4C02030008B5024B1B68DB69B6
:10438C00019308BD4C02030008B5024B1B681B6A65
:10439C00019308BD4C02030008B5024B1B685B6817
:1043AC00019308BD2002030008B5034B1B68D3F82A
:1043BC008830019308BD00002002030008B5034BB0
:1043CC001B68D3F89430019308BD00002002030051
:1043DC0008B5024B1B68DB6B019308BD440203005C
:1043EC0008B5024B1B685B68019308BD40020300D3
:1043FC0008B5024B1B689B68019308BD4002030083
:10440C0008B5024B1B68DB68019308BD4002030032
:10441C0008B5024B1B681B69019308BD40020300E1
:10442C0008B5024B1B685B69019308BD4002030091
:10443C0008B5024B1B689B69019308BD4002030041
:10444C0008B5024B1B68DB69019308BD40020300F1
:10445C0008B5024B1B681B6A019308BD40020300A0
:10446C0008B5024B1B681B6B019308BD400203008F
:10447C0008B5024B1B685B6B019308BD400203003F
:10448C0008B5024B1B681B6C019308BD400203006E
:10449C0008B5024B1B685B6C019308BD400203001E
:1044AC0008B5024B1B681B68019308BD1C02030076
:1044BC0008B5024B1B685B68019308BD1C02030026
:1044CC0008B5024B1B685B6A019308BD1C02030014
:1044DC0008B5024B1B681B6C019308BD1C02030042
:1044EC0008B5024B1B685B6C019308BD1C020300F2
:1044FC00024800230360FFF767BE00BF9CE6032061
:10450C00002240681146FFF783BF00224068114625
:10451C00FFF79EBF002240681146FFF7A9BF406815
:10452C000022FFF79DBF4068002281F00101FFF7D8
:10453C0087BF002340681A461946FFF779BF00234E
:10454C0040681A461946FFF76BBF002240681146B7
:10455C00FFF74EBF406800220221FFF751BF002336
:10456C0040681A46FFF73CBF084B10B5282422467A
:10457C001846002100F0B4FC054B04804FF0FF32CC
:10458C00426004225A60034A1A6010BDA8E6032058
:10459C00A0E6032068500B00002240681146FFF78C
:1045AC0057BF002240681146FFF762BF40680022E7
:1045BC00FFF756BF4068002281F00101FFF740BFB2
:1045CC00002340681A461946FFF732BF00234068A3
:1045DC001A461946FFF724BF002240681146FFF720
:1045EC0017BF002240681146FFF702BF4068002247
:1045FC000221FFF705BF002340681A46FFF7F0BE03
:10460C00024B03225A60024A1A607047D0E603201C
:10461C00A4500B007047F8B5064615460C468F188B
:10462C00BC4206D0336814F8011B9B68304698478F
:10463C00F6E72846F8BD007C0022FFF7EDBD007CB4
:10464C000021FFF7F1BD007C0021FFF7F5BD007CD8
:10465C000021FFF7F9BD007C0021FFF7FDBD10B56F
:10466C0014210446FFF711FD204610BD38B5044651
:10467C0015464FF47A730022C4E90123094B2174C7
:10468C00084623602946FFF7EFFDBF3008D16B6960
:10469C00DB0705D56868FFF70BFFE868FFF708FF35
:1046AC00204638BDE0500B007FB500221423CDE925
:1046BC000122ADF804300B788DF808304B68039369
:1046CC00CB680493007C0B7A059301A9FFF7D4FD0A
:1046DC0007B05DF804FB1FB5003B8DF800104FF0E0
:1046EC006401039118BF0123694601928DF80830CB
:1046FC00FFF7DAFF05B05DF804FB0123FFF7EBBF12
:10470C00007C0022FFF778BDC9B2FFF7F9BF007C2F
:10471C000022FFF779BD0121FFF7F9BF704710B5F3
:10472C0018210446FFF7B1FC204610BDF0B5037DFF
:10473C00062B8DB00E4600F104074FF0000412D08A
:10474C0000F1080515F8011D0A22304600F04FF95A
:10475C00AF42044419D0002CF4D02E21304600F086
:10476C0037F90444EEE72F236A4639460A208DF8C0
:10477C000040FFF789FD684600F0E8FB336802460D
:10478C00DB68694630469847044620460DB0F0BDBC
:10479C0010B5054B0446112240F8043B002100F0F3
:1047AC009FFB204610BD00BF08510B000346074A73
:1047BC0010B543F8042B01F1100251F8044B43F8E7
:1047CC00044B9142F9D10A781A7010BD08510B00B4
:1047DC0010B59DF8084044EA032343EA024242EA3A
:1047EC00016104234160037510BD000007B5064B41
:1047FC000360CB7800938B784A780978FFF7E8FF51
:10480C0003B05DF804FB00BF08510B00014B024ADA
:10481C001A607047D8E6032014510B00002340683F
:10482C001A46FFF7DDBD406800220221FFF7E8BD04
:10483C00002240681146FFF7DBBD0022406811469C
:10484C00FFF7E6BD002340681A461946FFF7E8BD9E
:10485C00002340681A461946FFF7EABD406800215C
:10486C00FFF70EBE40680021FFF712BE4068002221
:10487C0081F00101FFF7E4BD40680022FFF7F0BDB5
:10488C00002240681146FFF7F3BD00224068114634
:10489C00FFF7DEBD2DE9F04395B014460D460746F3
:1048AC00FFF776FF00211C220DA8009100F018FBE9
:1048BC0040230C9320466B460CAA0021FFF7F4FC16
:1048CC00044600284BD1024601216868FFF7A0FD81
:1048DC000221804622466868FFF79AFD009E8146B9
:1048EC002146002E3BD0002939D17368022B03D00E
:1048FC000A2B11D0F669F4E7B8F1000FFAD0716900
:10490C0006A8043107ADFFF771FF0FCD3C1D0FC496
:10491C002B6823704146EDE7B9F1000FEAD07469BA
:10492C00102201A800F0DCFA06238DF8143001AD3A
:10493C0004F108031834186859682A4603C208336E
:10494C00A3421546F7D101A906A807ADFFF72EFF24
:10495C000FCD3C1D0FC42B6823704946CAE7009845
:10496C00FFF79AFC384615B0BDE8F083024B034ABA
:10497C001A6000225A607047DCE6032020510B00BD
:10498C00F8B506460D468F180024BD420CD033688E
:10499C0015F8011B9B6830469847031E01DB1C442D
:1049AC00F3E7002C08BF1C462046F8BD13B504469F
:1049BC00084659B1019100F0C9FA23680199DB68E6
:1049CC000246204602B0BDE81040184702B010BDA8
:1049DC0003689B68184738B50D210546FFF7F8FFAB
:1049EC000A2104462846FFF7F3FF204438BD30B5B2
:1049FC008BB00023012A8DF8243098BF0A2209AC11
:104A0C000D46B1FBF2F101FB125303F0FF03092B2E
:104A1C0094BF30333733DBB2AA4204F8013DEFD9EF
:104A2C002146FFF7C3FF0BB030BD2DE9F04186B036
:104A3C0000AF05460E46381D142114463B60FFF7A7
:104A4C003FFD13280ED8391D2846FFF7AFFF04464B
:104A5C001EB12846FFF7BFFF044420461837BD4659
:104A6C00BDE8F08100F1080323F00703E846ADEB45
:104A7C00030D2246411C3B686846FFF721FD694641
:104A8C002846FFF793FF0446C546E1E7014B002299
:104A9C009A607047E4E60320054B02221A60054B2E
:104AAC00054A9A600020C3E90000FFF775BC00BFFF
:104ABC0000E70320F4E603200000FFFF024B1A6816
:104ACC00024B1A60704700BF0CE6032004E703207A
:104ADC0070474174704708B5007CFFF715FC20EA5D
:104AEC00E07008BD08B5007CFFF7EEFB20EAE07033
:104AFC0008BD08B5007CFFF7F7FB40EAE07008BD85
:104B0C0008B5007CFFF7E8FB40EAE07008BD007CCC
:104B1C00FFF7F2BB37B5457C04462DB1207C03B0C2
:104B2C00BDE83040FFF7C8BB007C0191FFF7ECFB00
:104B3C0000280199F2DC284603B030BD10B51421D1
:104B4C000446FFF7A2FA204610BD000010B54FF442
:104B5C007A730446084611460022C4E90123044B2B
:104B6C002360012320746374FFF7D6FB204610BD2D
:104B7C0078510B00417470477047704708B500219D
:104B8C00007CFFF7F1FB40EAE07008BD08B501219D
:104B9C00007CFFF7E9FB40EAE07008BD08B5007C3B
:104BAC00FFF7DAFB20EAE07008BD08B5007CFFF7E0
:104BBC00CBFB20EAE07008BD13B50446007C0191E4
:104BCC00FFF7CAFB0028019901DC607C20B1207C36
:104BDC00FFF7D2FB20EAE07002B010BD007CFFF7BB
:104BEC00D3BB10B514210446FFF74FFA204610BD75
:104BFC0010B54FF47A73044608460021C4E901133A
:104C0C00044B23600123207463741146FFF78CFB63
:104C1C00204610BDA8510B00007C0022FFF78CBB76
:104C2C0010B514220446002100F05AF9204610BD9C
:104C3C0010B50F4C88B003A8FFF7F2FF2178BFF333
:104C4C005B8F11F001010FD120460191FFF71FFA84
:104C5C00019948B103AA0748FFF7CAFF2046FFF79E
:104C6C001BFA054800F028F9024808B010BD00BF37
:104C7C0008E703200CE70320854B0B00014B186061
:104C8C00704700BF10E6032008B50B4B43B1FFF78C
:104C9C00CFFF03681B699847002801DDAFF3008044
:104CAC00064B43B100F0E2F803681B6998470028F3
:104CBC0001DDAFF3008008BD000000000000000023
:104CCC0008B5FFF7E1FFFFF78FFA014B186008BD3D
:104CDC0028E703200548064A064908B5121A00F0D1
:104CEC00F1F8054B054A1A6008BD00BF00F403201B
:104CFC0004F4032094520B0000F403201E1C279A8A
:104D0C0007B5002300931A466FF07701FFF756FBA7
:104D1C0003B05DF804FB000007B543880A2B08D0EC
:104D2C00502B0BD1094B1B684BB103B05DF804EB56
:104D3C001847FFF7E5FF03B05DF804FB0023009371
:104D4C001A466FF07701FFF739FBF4E724E70320ED
:104D5C0010B512480021FFF7C3FB114B1A68114B19
:104D6C009A42114B0CBF012200221A7001D0FFF79E
:104D7C00B1FFFFF731FA044600F0BAF80B4B13B150
:104D8C002046AFF3008000210848FFF721FBBDE867
:104D9C00104007480021FFF707BB00BF894C0B00F0
:104DAC0000F403201E1C279A20E7032000000000BB
:104DBC00254D0B007047000038B50A4B03600123EA
:104DCC00044643610849202000F074F820256060F7
:104DDC000549A560284600F06DF8C4E90305204696
:104DEC0038BD00BF18000100D0510B0030B50E4D7E
:104DFC002978BFF35B8F11F0010487B011D12846DD
:104E0C00FFF745F968B16846FFF7D6FF6A462146B9
:104E1C000648FFF72BFC2846FFF73EF9044800F044
:104E2C004BF8024807B030BD2CE7032030E70320D5
:104E3C00C14D0B007047000038B5044614252A46B6
:104E4C00002100F04DF82580402507492581284692
:104E5C00258200F02FF804496060284600F02AF8FB
:104E6C00E060204638BD00BFD0510B0030B50E4D70
:104E7C002978BFF35B8F11F0010487B011D128465C
:104E8C00FFF705F968B101A8FFF7D6FF01AA214683
:104E9C000648FFF75BFE2846FFF7FEF8044800F0D3
:104EAC000BF8024807B030BD44E7032048E7032065
:104EBC00414E0B00FFF7E7B8002301461A4618468F
:104ECC0000F04CB80A44914200F1FF3300D1704716
:104EDC0010B511F8014B03F8014F9142F9D110BDF7
:104EEC0002440346934200D1704703F8011BF9E7D3
:104EFC0038B5104B1D68AB6B0446B3B91820FFF7DF
:104F0C00CFFA0246A86320B90B4B0C484221FFF79D
:104F1C00DFFA0B490B4BC0E900130B4B83600B23DF
:104F2C00838100210120C2E90401AB6B00221C61CA
:104F3C005A6138BD10E60320D1510B00E8510B002B
:104F4C000E33CDAB34126DE6ECDE0500034613F8E0
:104F5C00012B002AFBD1181A013870472DE9F843B0
:104F6C00DFF8B8800646D8F800001F460D4691467B
:104F7C0000F056F8254B1C6834B9254C1C60254BA9
:104F8C0013B11B68C4F8883063681F2B07DDD8F891
:104F9C00000000F047F84FF0FF30BDE8F8834EB347
:104FAC00D4F8880088B91C4B23B9D8F8000000F05D
:104FBC0038F8F0E74FF48470FFF772FA0028F4D059
:104FCC000023C0E94033C4F88800636840F823909C
:104FDC0001229A4000EB8301D0F800311343C0F852
:104FEC000031022EC1F8807002BFD0F80431134397
:104FFC00C0F804316368D8F800005A1C02336260B0
:10500C0044F8235000F00EF80020C6E7E8E7032030
:10501C005CE7032000000000AD440B0074E60320A5
:10502C0070477047704700001D400B0059400B0043
:10503C0081400B0085400B00000000004469737434
:10504C00616E6365204D65617375726564203D20EA
:10505C0025690A0000000000000000006B450B00F1
:10506C0061450B0057450B000D450B004B450B00E4
:10507C003F450B0069480B0071480B0033450B0092
:10508C002B450B0021450B0017450B00A1480B00CD
:10509C00000000000000000003460B00F9450B0067
:1050AC00EF450B00E5450B00D9450B00CD450B003A
:1050BC0069480B0071480B00C1450B00B9450B004A
:1050CC00AF450B00A5450B00A1480B0000000000EC
:1050DC000000000021460B006B460B0043460B0002
:1050EC0023460B004B460B0053460B005B460B0054
:1050FC0063460B00000000000000000039470B0065
:10510C0029470B002B470B0061707000000000005A
:10511C000000000029480B0033480B003D480B00F1
:10512C0047480B0051480B005D480B0069480B00C9
:10513C0071480B0079480B0085480B008D480B001B
:10514C0097480B00A1480B0025592D256D2D256482
:10515C005425483A254D3A2553257A0061736374DA
:10516C00696D65000000000000000000DD4A0B00C6
:10517C00494B0B00214B0B008D490B00F14A0B00E6
:10518C000D4B0B00FF4A0B001B4B0B00DF4A0B00B7
:10519C00E34A0B000000000000000000874B0B00EE
:1051AC00EF4B0B00C54B0B008D490B00B74B0B00A5
:1051BC00894B0B00994B0B00E94B0B00A94B0B00D7
:1051CC00814B0B00005245454E54206D616C6C6F49
:1051DC006320737563636565646564002F746D701B
:1051EC002F6A656E6B696E732D4743432D31302DDD
:1051FC00706970656C696E652D34385F3230323091
:10520C00313132345F313630363138303633392F34
:10521C007372632F6E65776C69622F6E65776C693C
:10522C00622F6C6962632F7374646C69622F726194
:10523C006E642E6300000000FD440B0075450B00EE
:10524C000D460B0019480B0079490B00994A0B00CD
:10525C00A54A0B00C94A0B0000000000000000002A
:04526C00000000003E
:10527000040000001400000003000000474E550029
:10528000A99342D4901FB5F2CDDE8B58E6D982CBDC
:045290001F5BE1EBD4
:045294000000000016
:1052980068510B0014E60320000000000000000025
:1052A80000000000000000000000000000000000F6
:1052B80000000000000000000000000000000000E6
:1052C80000000000000000000000000000000000D6
:1052D80000000000000000000000000000000000C6
:1052E80000000000000000000000000000000000B6
:0C52F8000000000000000000ECE70320B4
:10530400FFFFFFFF00000102030405060708090A66
:105314000B0C0D0E0F101112131415161718191A61
:085324001B1C1D1E1F202800A8
:04532C007856341269
:04000003B000401CED
:00000001FF
