:02000002B0004C
:1040000000400B001C550B00000006000D000502CF
:0840100004010410000000008F
:04401800F0510B0058
:10401C0009480A49884208B505D0094A824202D0AB
:10402C00121A01F02DF80748074A0021121A01F064
:10403C0035F8014808BD00BFE4E5032088540B00A7
:10404C0050E6032050E60320EDE7032070B5074E41
:10405C00074C00F0DDFEA41BA4080025AC4200D1E7
:10406C0070BD56F8043B98470135F7E73C540B00FC
:10407C005C540B0000F022B808B500F063F8BDE802
:10408C00084000F07DBE00F097BA00F09DBA0078B1
:10409C00B0FA80F0400970470123037070470EB4EA
:1040AC0003B503AB002153F8042B019300F00FFD73
:1040BC0002B05DF804EB03B07047000038B500F0B7
:1040CC0017FE4FF4165100F003FE002000F0D8F854
:1040DC0043F698250446002000F0D2F8001B61F14D
:1040EC000001A84271F1000307D200F001FE00F0BC
:1040FC00F3FD10B900F0F0F9EDE700F0F9FD00F078
:10410C00EBFD0021102000F0F3FE0121072000F050
:10411C00EFFE0121082000F0EBFE0021082000F04A
:10412C00F8FE0121072000F0F4FE044B40F2FF32B0
:10413C001A60034B00221A6038BD00BF70E60320E2
:10414C006CE6032070B50121082000F0E2FE00218E
:10415C0008202C4E00F0DDFE0025344600210720FF
:10416C0000F0D7FE1E2000F07BF8102000F0EAFED5
:10417C00013546F8040B0121072000F0CAFE072D7B
:10418C00ECD1214D23682B6000F0B2FD2A681F4949
:10419C001F4DFFF784FF63682B6000F0A9FD2A68B0
:1041AC001C491D4DFFF77BFFA3682B6000F0A0FDA1
:1041BC002A681A491A4DFFF772FFE3682B6000F06A
:1041CC0097FD2A681749184DFFF769FF23692B6083
:1041DC0000F08EFD2A681549154DFFF760FF6369E5
:1041EC002B6000F085FD2A681249134DFFF757FF2D
:1041FC00A3692B6000F07CFD2A681049FFF74FFF84
:10420C0070BD00BF74E6032050E6032004520B007F
:10421C0054E6032010520B0058E603201C520B00EE
:10422C005CE6032028520B0060E6032034520B009E
:10423C0064E6032040520B0068E603204C520B004E
:10424C0008B5024B1B685B6C019308BD4802030068
:10425C0008B5024B1B685B68019308BD180203008C
:10426C0008B5024B1B68DB68019308BD18020300FC
:10427C0008B5024B1B685B69019308BD180203006B
:10428C0008B5024B1B68DB6D019308BD18020300D7
:10429C0008B5024B1B685B68019308BD2C02030038
:1042AC0008B5024B1B689B68019308BD2C020300E8
:1042BC0008B5024B1B68DB68019308BD2C02030098
:1042CC0008B5024B1B681B69019308BD2C02030047
:1042DC0008B5024B1B681B6B019308BD2C02030035
:1042EC0008B5024B1B681B6A019308BD280203002A
:1042FC0008B5024B1B685B6A019308BD28020300DA
:10430C0008B5024B1B689B6A019308BD2802030089
:10431C0008B5024B1B68DB6A019308BD2802030039
:10432C0008B5024B1B681B6B019308BD28020300E8
:10433C0008B5024B1B685B6B019308BD2802030098
:10434C0008B5024B1B681B6C019308BD28020300C7
:10435C0008B5024B1B685B69019308BD640203003E
:10436C0008B5024B1B689B68019308BD68020300EB
:10437C0008B5024B1B68DB68019308BD680203009B
:10438C0008B5024B1B68DB69019308BD30020300C2
:10439C0008B5024B1B681B6A019308BD3002030071
:1043AC0008B5024B1B68DB68019308BD3C02030097
:1043BC0008B5024B1B681B69019308BD3C02030046
:1043CC0008B5024B1B685B69019308BD3C020300F6
:1043DC0008B5024B1B689B69019308BD3C020300A6
:1043EC0008B5024B1B68DB69019308BD3C02030056
:1043FC0008B5024B1B681B6A019308BD3C02030005
:10440C0008B5024B1B689B6A019308BD3C02030074
:10441C0008B5024B1B681B6C019308BD3C020300E2
:10442C0008B5024B1B681B68019308BD4C020300C6
:10443C0008B5024B1B685B68019308BD4C02030076
:10444C0008B5024B1B681B69019308BD4C020300A5
:10445C0008B5024B1B685B69019308BD4C02030055
:10446C0008B5024B1B689B69019308BD4C02030005
:10447C0008B5024B1B68DB69019308BD4C020300B5
:10448C0008B5024B1B681B6A019308BD4C02030064
:10449C0008B5024B1B689B6A019308BD4C020300D4
:1044AC0008B5024B1B685B68019308BD2002030032
:1044BC0008B5034B1B68D3F88830019308BD000086
:1044CC002002030008B5034B1B68D3F8943001930A
:1044DC0008BD00002002030008B5024B1B689B6856
:1044EC00019308BD4402030008B5024B1B68DB6B4B
:1044FC00019308BD4402030008B5024B1B685B68BE
:10450C00019308BD4002030008B5024B1B689B6871
:10451C00019308BD4002030008B5024B1B68DB6821
:10452C00019308BD4002030008B5024B1B681B69D0
:10453C00019308BD4002030008B5024B1B685B6980
:10454C00019308BD4002030008B5024B1B689B6930
:10455C00019308BD4002030008B5024B1B68DB69E0
:10456C00019308BD4002030008B5024B1B681B6A8F
:10457C00019308BD4002030008B5024B1B681B6B7E
:10458C00019308BD4002030008B5024B1B685B6B2E
:10459C00019308BD4002030008B5024B1B681B6C5D
:1045AC00019308BD4002030008B5024B1B685B6C0D
:1045BC00019308BD4002030008B5024B1B681B6841
:1045CC00019308BD1C02030008B5024B1B685B6815
:1045DC00019308BD1C02030008B5024B1B685B6A03
:1045EC00019308BD1C02030008B5024B1B681B6C31
:1045FC00019308BD1C02030008B5024B1B685B6CE1
:10460C00019308BD1C020300024800230360FFF75E
:10461C0017BE00BF90E60320002240681146FFF74A
:10462C0083BF002240681146FFF79EBF00224068FE
:10463C001146FFF7A9BF40680022FFF79DBF4068F5
:10464C00002281F00101FFF787BF002340681A4662
:10465C001946FFF779BF002340681A461946FFF741
:10466C006BBF002240681146FFF74EBF4068002226
:10467C000221FFF751BF002340681A46FFF73CBFE9
:10468C00084B10B5282422461846002100F006FDE0
:10469C00054B04804FF0FF32426004225A60034AFB
:1046AC001A6010BD9CE6032094E6032060520B00B8
:1046BC00002240681146FFF757BF002240681146A0
:1046CC00FFF762BF40680022FFF756BF4068002228
:1046DC0081F00101FFF740BF002340681A461946DC
:1046EC00FFF732BF002340681A461946FFF724BF74
:1046FC00002240681146FFF717BF002240681146A0
:10470C00FFF702BF406800220221FFF705BF00231C
:10471C0040681A46FFF7F0BE024B03225A60024A69
:10472C001A607047C4E603209C520B007047F8B522
:10473C00064615460C468F18BC4206D0336814F852
:10474C00011B9B6830469847F6E72846F8BD007C6D
:10475C000022FFF7C5BD007C0021FFF7C9BD007C1E
:10476C000021FFF7CDBD007C0021FFF7D1BD007CFF
:10477C000021FFF7D5BD10B514210446FFF785FCC9
:10478C00204610BD38B5044615464FF47A73002206
:10479C00C4E90123094B2174084623602946FFF71D
:1047AC00CFFDBF3008D16B69DB0705D56868FFF713
:1047BC000BFFE868FFF708FF204638BDD8520B0006
:1047CC00704710B518210446FFF75FFC204610BD5A
:1047DC00F0B5037D062B8DB00E4600F104074FF0AB
:1047EC00000412D000F1080515F8011D0A2230460C
:1047FC0000F04FF9AF42044419D0002CF4D02E2114
:10480C00304600F037F90444EEE72F236A46394668
:10481C000A208DF80040FFF79BFD684600F074FC01
:10482C0033680246DB6869463046984704462046A2
:10483C000DB0F0BD10B5054B0446112240F8043BF9
:10484C00002100F02BFC204610BD00BF00530B00D4
:10485C000346074A10B543F8042B01F1100251F836
:10486C00044B43F8044B9142F9D10A781A7010BDED
:10487C0000530B0010B59DF8084044EA032343EAAB
:10488C00024242EA016104234160037510BD00003D
:10489C0007B5064B0360CB7800938B784A78097880
:1048AC00FFF7E8FF03B05DF804FB00BF00530B00FB
:1048BC00014B024A1A607047CCE603200C530B00E4
:1048CC00002340681A46FFF717BE406800220221F9
:1048DC00FFF722BE002240681146FFF715BE0022EA
:1048EC0040681146FFF720BE002340681A4619465F
:1048FC00FFF722BE002340681A461946FFF724BE74
:10490C0040680021FFF748BE40680021FFF74CBE0D
:10491C004068002281F00101FFF71EBE40680022B2
:10492C00FFF72ABE002240681146FFF72DBE002279
:10493C0040681146FFF718BE2DE9F04395B01446B8
:10494C000D460746FFF776FF00211C220DA80091AB
:10495C0000F0A4FB40230C9320466B460CAA0021CC
:10496C00FFF706FD044600284BD10246012168687A
:10497C00FFF7DAFD0221804622466868FFF7D4FD76
:10498C00009E81462146002E3BD0002939D1736808
:10499C00022B03D00A2B11D0F669F4E7B8F1000F03
:1049AC00FAD0716906A8043107ADFFF771FF0FCD7E
:1049BC003C1D0FC42B6823704146EDE7B9F1000F85
:1049CC00EAD07469102201A800F068FB06238DF868
:1049DC00143001AD04F108031834186859682A46DC
:1049EC0003C20833A3421546F7D101A906A807ADA7
:1049FC00FFF72EFF0FCD3C1D0FC42B6823704946CB
:104A0C00CAE70098FFF7ACFC384615B0BDE8F08358
:104A1C00024B034A1A6000225A607047D0E603200A
:104A2C0018530B00F8B506460D468F180024BD42EE
:104A3C000CD0336815F8011B9B6830469847031E51
:104A4C0001DB1C44F3E7002C08BF1C462046F8BDD4
:104A5C0013B50446084659B1019100F055FB236883
:104A6C000199DB680246204602B0BDE810401847A9
:104A7C0002B010BD03689B68184738B50D21054678
:104A8C00FFF7F8FF0A2104462846FFF7F3FF2044FE
:104A9C0038BD30B58BB00023012A8DF8243098BF77
:104AAC000A2209AC0D46B1FBF2F101FB125303F0E3
:104ABC00FF03092B94BF30333733DBB2AA4204F81F
:104ACC00013DEFD92146FFF7C3FF0BB030BD2DE9F7
:104ADC00F04186B000AF05460E46381D1421144631
:104AEC003B60FFF779FD13280ED8391D2846FFF7D8
:104AFC00AFFF04461EB12846FFF7BFFF0444204613
:104B0C001837BD46BDE8F08100F1080323F0070318
:104B1C00E846ADEB030D2246411C3B686846FFF7A7
:104B2C005BFD69462846FFF793FF0446C546E1E75F
:104B3C00014B00229A607047D8E6032010B504465A
:104B4C0008462170FFF71CFC00236360204610BD53
:104B5C00054B02221A60054B054A9A600020C3E9F6
:104B6C000000FFF79DBC00BFF4E60320E8E603203D
:104B7C000000FFFF024B1A68024B1A60704700BF1F
:104B8C00E4E50320F8E6032070474174704708B54C
:104B9C00007CFFF735FC20EAE07008BD08B5007C0E
:104BAC00FFF706FC20EAE07008BD08B5007CFFF7B3
:104BBC000FFC40EAE07008BD08B5007CFFF700FC74
:104BCC0040EAE07008BD007CFFF70ABC37B5457CB5
:104BDC0004462DB1207C03B0BDE83040FFF7E0BBAC
:104BEC00007C0191FFF70CFC00280199F2DC2846AF
:104BFC0003B030BD10B514210446FFF746FA204629
:104C0C0010BD000010B54FF47A73044608461146E7
:104C1C000022C4E90123044B236001232074637434
:104C2C00FFF7F6FB204610BD70530B004174704724
:104C3C007047704708B50021007CFFF711FC40EA73
:104C4C00E07008BD08B50121007CFFF709FC40EAC3
:104C5C00E07008BD08B5007CFFF7FAFB20EAE070B5
:104C6C0008BD08B5007CFFF7EBFB20EAE07008BD3F
:104C7C0013B50446007C0191FFF7EAFB002801996B
:104C8C0001DC607C20B1207CFFF7F2FB20EAE070B5
:104C9C0002B010BD007CFFF7F3BB10B51421044625
:104CAC00FFF7F3F9204610BD10B54FF47A730446A4
:104CBC0008460021C4E90113044B2360012320742E
:104CCC0063741146FFF7ACFB204610BDA0530B00DC
:104CDC00007C0022FFF7ACBB007CFFF7D9BB10B502
:104CEC0014220446002100F0D9F9204610BD000022
:104CFC0010B50F4C88B003A8FFF7F1FF2178BFF374
:104D0C005B8F11F001010FD120460191FFF7BFF924
:104D1C00019948B103AA0748FFF7C6FF2046FFF7E1
:104D2C00BBF9054800F0A6F9024808B010BD00BF59
:104D3C00FCE6032000E703203D4C0B00014B186000
:104D4C00704700BFE8E5032008B50B4B43B1FFF7F4
:104D5C00CFFF03681B699847002801DDAFF3008083
:104D6C00064B43B100F060F903681B6998470028B3
:104D7C0001DDAFF3008008BD000000000000000062
:104D8C0008B5FFF7E1FFFFF773FA014B186008BD98
:104D9C0028E703200548064A064908B5121A00F010
:104DAC006FF9054B054A1A6008BD00BF00F40320DB
:104DBC0004F4032084540B0000F403201E1C279AD7
:104DCC0007B5002300931A466FF07701FFF77AFBC3
:104DDC0003B05DF804FB000007B543880A2B08D02C
:104DEC00502B0BD1094B1B684BB103B05DF804EB96
:104DFC001847FFF7E5FF03B05DF804FB00230093B1
:104E0C001A466FF07701FFF75DFBF4E718E7032014
:104E1C0010B512480021FFF7EFFB114B1A68114B2C
:104E2C009A42114B0CBF012200221A7001D0FFF7DD
:104E3C00B1FFFFF70DFA044600F038F90B4B13B134
:104E4C002046AFF3008000210848FFF74DFBBDE87A
:104E5C00104007480021FFF72BBB00BF494D0B004A
:104E6C0000F403201E1C279A14E703200000000006
:104E7C00E54D0B00232813B502D9002002B010BD5C
:104E8C00A0F10B03022B1AD8174C2178BFF35B8FC0
:104E9C0011F001010BD120460191FFF7F8F80199AF
:104EAC0028B11248FFF74AFE2046FFF7F5F80F4BE2
:104EBC001878FFF76DFA0028DFD10120DEE7012812
:104ECC0009D800F071F80021007CFFF731FA80F06E
:104EDC000100C0B2D2E709380128EED800F0A4F8DE
:104EEC00007CFFF785FAF2E71CE7032020E703209C
:104EFC00232838B504460D460AD8FF2908D0FFF7F9
:104F0C00B9FF28B129462046BDE83840FFF7C8B99B
:104F1C0038BD38B504460D46FFF7CAF9FF2810D046
:104F2C00062804D84D2323FA00F0C30709D42046E1
:104F3C00FFF7A0FF28B129462046BDE83840FFF70F
:104F4C00BFB938BD0D2810B504469CBF0E34A4B2B1
:104F5C002046FFF78FFF50B103212046FFF798F949
:104F6C00032804D12046BDE81040FFF7B1B900205A
:104F7C0010BD704738B50A4B0360012304464361EA
:104F8C000849202000F074F8202560600549A560D0
:104F9C00284600F06DF8C4E90305204638BD00BF73
:104FAC0018000100C8530B0030B50E4D2978BFF323
:104FBC005B8F11F0010487B011D12846FFF767F819
:104FCC0068B16846FFF7D6FF6A4621460648FFF7E8
:104FDC00D9FB2846FFF760F8044800F04BF802486C
:104FEC0007B030BD2CE7032030E703207F4F0B00C8
:104FFC007047000038B5044614252A46002100F0FD
:10500C004DF825804025074925812846258200F04A
:10501C002FF804496060284600F02AF8E06020462A
:10502C0038BD00BFC8530B0030B50E4D2978BFF307
:10503C005B8F11F0010487B011D12846FFF727F8D8
:10504C0068B101A8FFF7D6FF01AA21460648FFF771
:10505C00D9FD2846FFF720F8044800F00BF8024869
:10506C0007B030BD44E7032048E70320FD4F0B0099
:10507C00FFF709B8002301461A46184600F04CB851
:10508C000A44914200F1FF3300D1704710B511F87A
:10509C00014B03F8014F9142F9D110BD0244034674
:1050AC00934200D1704703F8011BF9E738B5104B58
:1050BC001D68AB6B0446B3B91820FFF77DFA0246A6
:1050CC00A86320B90B4B0C484221FFF78DFA0B4912
:1050DC000B4BC0E900130B4B83600B238381002126
:1050EC000120C2E90401AB6B00221C615A6138BD7E
:1050FC00E8E50320C9530B00E0530B000E33CDAB96
:10510C0034126DE6ECDE0500034613F8012B002A81
:10511C00FBD1181A013870472DE9F843DFF8B88035
:10512C000646D8F800001F460D46914600F056F88A
:10513C00254B1C6834B9254C1C60254B13B11B68DE
:10514C00C4F8883063681F2B07DDD8F8000000F026
:10515C0047F84FF0FF30BDE8F8834EB3D4F8880021
:10516C0088B91C4B23B9D8F8000000F038F8F0E7E8
:10517C004FF48470FFF720FA0028F4D00023C0E924
:10518C004033C4F88800636840F8239001229A40A9
:10519C0000EB8301D0F800311343C0F80031022E2C
:1051AC00C1F8807002BFD0F804311343C0F8043149
:1051BC006368D8F800005A1C0233626044F823502C
:1051CC0000F00EF80020C6E7E8E703205CE70320B8
:1051DC0000000000C5450B004CE6032070477047EB
:1051EC00704700001D400B0059400B0081400B0024
:1051FC0085400B000000000042616E6431203D20B0
:10520C0025690A0042616E6432203D2025690A003E
:10521C0042616E6433203D2025690A0042616E6450
:10522C0034203D2025690A0042616E6435203D2002
:10523C0025690A0042616E6436203D2025690A000A
:10524C0042616E6437203D2025690A000000000091
:10525C000000000083460B0079460B006F460B00E4
:10526C0025460B0063460B0057460B000D490B00FF
:10527C0015490B004B460B0043460B0039460B00FF
:10528C002F460B0045490B000000000000000000F9
:10529C001B470B0011470B0007470B00FD460B008B
:1052AC00F1460B00E5460B000D490B0015490B00B0
:1052BC00D9460B00D1460B00C7460B00BD460B0070
:1052CC0045490B00000000000000000039470B00AE
:1052DC0083470B005B470B003B470B0063470B00FE
:1052EC006B470B0073470B007B470B000000000063
:1052FC0000000000DD470B00CD470B00CF470B0033
:10530C00617070000000000000000000CD480B0030
:10531C00D7480B00E1480B00EB480B00F5480B009D
:10532C0001490B000D490B0015490B001D490B00E1
:10533C0029490B0031490B003B490B0045490B0037
:10534C0025592D256D2D25645425483A254D3A2592
:10535C0053257A0061736374696D65000000000069
:10536C0000000000954B0B00014C0B00D94B0B00BF
:10537C00314A0B00A94B0B00C54B0B00B74B0B0074
:10538C00D34B0B00974B0B009B4B0B00000000000A
:10539C00000000003F4C0B00A74C0B007D4C0B0099
:1053AC00314A0B006F4C0B00414C0B00514C0B0065
:1053BC00A14C0B00614C0B00394C0B0000524545C5
:1053CC004E54206D616C6C6F6320737563636565FF
:1053DC00646564002F746D702F6A656E6B696E73F3
:1053EC002D4743432D31302D706970656C696E65A6
:1053FC002D34385F32303230313132345F31363027
:10540C00363138303633392F7372632F6E65776CC3
:10541C0069622F6E65776C69622F6C6962632F739A
:10542C0074646C69622F72616E642E6300000000FC
:10543C0015460B008D460B0025470B00BD480B0095
:10544C001D4A0B003D4B0B005D4B0B00814B0B00C1
:04545C00000000004C
:10546000040000001400000003000000474E550037
:10547000CBE059E81DA7ADF877C58D8E9EEE11865D
:04548000ADB3FCFCD0
:045484000000000024
:1054880060530B00ECE50320000000000000000062
:105498000000000000000000000000000000000004
:1054A80000000000000000000000000000000000F4
:1054B80000000000000000000000000000000000E4
:1054C80000000000000000000000000000000000D4
:1054D80000000000000000000000000000000000C4
:0C54E8000000000000000000ECE70320C2
:1054F400FFFFFFFF00000102030405060708090A75
:105504000B0C0D0E0F101112131415161718191A6F
:085514001B1C1D1E1F202800B6
:04551C007856341277
:04000003B000401CED
:00000001FF
